0000010010120141211DEDE11-B40                 +00000000000000000106660004                                    
0000020010120141212DEDE11-B40                 +00000000000000000106560004                                    
0000030010120141211DEDE13-A18                 +00000000000000000109690004                                    
0000040010120141212DEDE13-A18                 +00000000000000000109762504                                    
0000050010120141211DEDE19-B15                 +00000000000000000101642504                                    
0000060010120141212DEDE19-B15                 +00000000000000000101562504                                    
0000070010120141211DEDE20-B19                 +00000000000000000126205004                                    
0000080010120141212DEDE20-B19                 +00000000000000000126410004                                    
0000090010120141211DEDE21-B20                 +00000000000000000145980004                                    
0000100010120141212DEDE21-B20                 +00000000000000000145720004                                    
0000110010120141211DEDE22-B24                 +00000000000000000135350004                                    
0000120010120141212DEDE22-B24                 +00000000000000000135010004                                    
0000130010120141211DEDE23-B25                 +00000000000000000135420004                                    
0000140010120141212DEDE23-B25                 +00000000000000000135170004                                    
0000150010120141211DEDE24-B27                 +00000000000000000153850004                                    
0000160010120141212DEDE24-B27                 +00000000000000000153110004                                    
0000170010120141211DEDE25-B30                 +00000000000000000183530004                                    
0000180010120141212DEDE25-B30                 +00000000000000000183330004                                    
0000190010120141211DEDE26-B34                 +00000000000000000135390004                                    
0000200010120141212DEDE26-B34                 +00000000000000000134445004                                    
0000210010120141211DEDE27-B37                 +00000000000000000123600004                                    
0000220010120141212DEDE27-B37                 +00000000000000000123330004                                    
0000230010120141211DEDE28-T10                 +00000000000000000126765604                                    
0000240010120141212DEDE28-T10                 +00000000000000000127625004                                    
0000250010120141211DEDE29-BC3                 +00000000000000000124140004                                    
0000260010120141212DEDE29-BC3                 +00000000000000000126790004                                    
0000270010120141211DEDE30-BC5                 +00000000000000000188110004                                    
0000280010120141212DEDE30-BC5                 +00000000000000000192120004                                    
0000290010120141211DEDE31-BC7                 +00000000000000000227480004                                    
0000300010120141212DEDE31-BC7                 +00000000000000000231970004                                    
0000310010120141211IAACF-MD                   +00000000000000000000524902                                    
0000320010120141212IAACF-MD                   +00000000000000000000523702                                    
0000330010120141211IAACF-SA                   +00000000000000000000524502                                    
0000340010120141212IAACF-SA                   +00000000000000000000520002                                    
0000350010120141211IABOI-PZ-ESC               +00000000000000000000000700                                    
0000360010120141212IABOI-PZ-ESC               +00000000000000000000000700                                    
0000370010120141211IABOIDI-AV-R$              +00000000000000000001430902                                    
0000380010120141212IABOIDI-AV-R$              +00000000000000000001430002                                    
0000390010120141211IABOIDI-AV-US$             +00000000000000000000541302                                    
0000400010120141212IABOIDI-AV-US$             +00000000000000000000537302                                    
0000410010120141211IABOIDI-MD-R$              +00000000000000000001431002                                    
0000420010120141212IABOIDI-MD-R$              +00000000000000000001429502                                    
0000430010120141211IABOIDI-MD-US$             +00000000000000000000548002                                    
0000440010120141212IABOIDI-MD-US$             +00000000000000000000544602                                    
0000450010120141211IABOIDI-MN-R$              +00000000000000000001421102                                    
0000460010120141212IABOIDI-MN-R$              +00000000000000000001411702                                    
0000470010120141211IABOIDI-MX-R$              +00000000000000000001448602                                    
0000480010120141212IABOIDI-MX-R$              +00000000000000000001448102                                    
0000490010120141211IABOIDI-TX-IMPLI           +00000000000000000000059203                                    
0000500010120141212IABOIDI-TX-IMPLI           +00000000000000000000059203                                    
0000510010120141211IABZR-AV-R$                +00000000000000000000703203                                    
0000520010120141212IABZR-AV-R$                +00000000000000000000703203                                    
0000530010120141211IABZR-AV-R$/C              +00000000000000000012122602                                    
0000540010120141212IABZR-AV-R$/C              +00000000000000000012122602                                    
0000550010120141211IABZR-MD-R$                +00000000000000000000686003                                    
0000560010120141212IABZR-MD-R$                +00000000000000000000691503                                    
0000570010120141211IABZR-MD-R$/C              +00000000000000000120750003                                    
0000580010120141212IABZR-MD-R$/C              +00000000000000000120774003                                    
0000590010120141211IABZR-MN-R$/C              +00000000000000000011573802                                    
0000600010120141212IABZR-MN-R$/C              +00000000000000000011573802                                    
0000610010120141211IABZR-MX-R$/C              +00000000000000000012486402                                    
0000620010120141212IABZR-MX-R$/C              +00000000000000000012486402                                    
0000630010120141211IABZR-PZ-PMN               +00000000000000000011592402                                    
0000640010120141212IABZR-PZ-PMN               +00000000000000000011592402                                    
0000650010120141211IABZR-PZ-PMX               +00000000000000000012506502                                    
0000660010120141212IABZR-PZ-PMX               +00000000000000000012506502                                    
0000670010120141211IABZR-PZ-R$                +00000000000000000000707103                                    
0000680010120141212IABZR-PZ-R$                +00000000000000000000707103                                    
0000690010120141211IABZR-PZ-R$/C              +00000000000000000121912003                                    
0000700010120141212IABZR-PZ-R$/C              +00000000000000000121912003                                    
0000710010120141211IABZR-PZ-VPS               +00000000000000000001724002                                    
0000720010120141212IABZR-PZ-VPS               +00000000000000000001724002                                    
0000730010120141211IABZR-PZ-VPZ               +00000000000000000000050002                                    
0000740010120141212IABZR-PZ-VPZ               +00000000000000000000050002                                    
0000750010120141211IAETH-AV-R$/M3             +00000000000000000011985002                                    
0000760010120141212IAETH-AV-R$/M3             +00000000000000000012020002                                    
0000770010120141211IAETH-MD-R$/M3             +00000000000000000012055002                                    
0000780010120141212IAETH-MD-R$/M3             +00000000000000000012040002                                    
0000790010120141211IASOY-MD-US$               +00000000000000000000233502                                    
0000800010120141212IASOY-MD-US$               +00000000000000000000231602                                    
0000810010120141211IASOY-PA-US$               +00000000000000000000230702                                    
0000820010120141212IASOY-PA-US$               +00000000000000000000230002                                    
0000830010120141211MEDOF-T1                   +00000000000000000002627104                                    
0000840010120141212MEDOF-T1                   +00000000000000000002655804                                    
0000850010120141211MEDOF-T3                   +00000000000000000002626804                                    
0000860010120141212MEDOF-T3                   +00000000000000000002655504                                    
0000870010120141211MEDOL-T1                   +00000000000000000002627104                                    
0000880010120141212MEDOL-T1                   +00000000000000000002655804                                    
0000890010120141211MEDOL-T2                   +00000000000000000002626504                                    
0000900010120141212MEDOL-T2                   +00000000000000000002655204                                    
0000910010120141211MEDOL-T3                   +00000000000000000002626804                                    
0000920010120141212MEDOL-T3                   +00000000000000000002655504                                    
0000930010120141211RTALB-PA                   +00000000000000000193775003                                    
0000940010120141212RTALB-PA                   +00000000000000000192775003                                    
0000950010120141211RTALB-T1-S                 +00000000000000000192775003                                    
0000960010120141212RTALB-T1-S                 +00000000000000000191315003                                    
0000970010120141211RTALB-T2-S                 +00000000000000000192775003                                    
0000980010120141212RTALB-T2-S                 +00000000000000000191315003                                    
0000990010120141211RTAUD-PF                   +00000000000000000000827004                                    
0001000010120141212RTAUD-PF                   +00000000000000000000825604                                    
0001010010120141211RTAUD-T1                   +00000000000000002173400007                                    
0001020010120141212RTAUD-T1                   +00000000000000002190000007                                    
0001030010120141211RTAUD-T2                   +00000000000000002172400007                                    
0001040010120141212RTAUD-T2                   +00000000000000002188900007                                    
0001050010120141211RTBOV-MN                   +00000000000000000000474502                                    
0001060010120141212RTBOV-MN                   +00000000000000000000466302                                    
0001070010120141211RTBOV-MX                   +00000000000000000000486202                                    
0001080010120141212RTBOV-MX                   +00000000000000000000483302                                    
0001090010120141211RTBOV-PA                   +00000000000000000000481202                                    
0001100010120141212RTBOV-PA                   +00000000000000000000481702                                    
0001110010120141211RTBOV-PF                   +00000000000000000000483702                                    
0001120010120141212RTBOV-PF                   +00000000000000000000467502                                    
0001130010120141211RTBOV-PM                   +00000000000000000000480802                                    
0001140010120141212RTBOV-PM                   +00000000000000000000473002                                    
0001150010120141211RTCAD-PF                   +00000000000000000001152904                                    
0001160010120141212RTCAD-PF                   +00000000000000000001155304                                    
0001170010120141211RTCAD-T1                   +00000000000000002280900007                                    
0001180010120141212RTCAD-T1                   +00000000000000002296000007                                    
0001190010120141211RTCAD-T2                   +00000000000000002279800007                                    
0001200010120141212RTCAD-T2                   +00000000000000002294900007                                    
0001210010120141211RTCBB-PA                   +00000000000000000647550003                                    
0001220010120141212RTCBB-PA                   +00000000000000000651750003                                    
0001230010120141211RTCBB-T1-S                 +00000000000000000651750003                                    
0001240010120141212RTCBB-T1-S                 +00000000000000000654225003                                    
0001250010120141211RTCBB-T2-S                 +00000000000000000651750003                                    
0001260010120141212RTCBB-T2-S                 +00000000000000000654225003                                    
0001270010120141211RTCHF-PF                   +00000000000000000000970004                                    
0001280010120141212RTCHF-PF                   +00000000000000000000964204                                    
0001290010120141211RTCLP-PF                   +00000000000000000615880004                                    
0001300010120141212RTCLP-PF                   +00000000000000000618780004                                    
0001310010120141211RTCNI                      +00000000000000000000272402                                    
0001320010120141212RTCNI                      +00000000000000000000274402                                    
0001330010120141211RTCNY-PF                   +00000000000000000006188904                                    
0001340010120141212RTCNY-PF                   +00000000000000000006188404                                    
0001350010120141211RTDAU-W1                   +00000000000000000825350007                                    
0001360010120141212RTDAU-W1                   +00000000000000000824900007                                    
0001370010120141211RTDCA-W1                   +00000000000000001152950007                                    
0001380010120141212RTDCA-W1                   +00000000000000001154400007                                    
0001390010120141211RTDCH-W1                   +00000000000000000970150007                                    
0001400010120141212RTDCH-W1                   +00000000000000000963750007                                    
0001410010120141211RTDCL-W1                   +00000000000000616304990007                                    
0001420010120141212RTDCL-W1                   +00000000000000618199985007                                    
0001430010120141211RTDCN-W1                   +00000000000000006188600007                                    
0001440010120141212RTDCN-W1                   +00000000000000006186900007                                    
0001450010120141211RTDGB-W1                   +00000000000000001569600007                                    
0001460010120141212RTDGB-W1                   +00000000000000001569900007                                    
0001470010120141211RTDI1                      +00000000000000000000115902                                    
0001480010120141212RTDI1                      +00000000000000000000115902                                    
0001490010120141211RTDI1-RE                   +00000000000000000000115702                                    
0001500010120141212RTDI1-RE                   +00000000000000000000115902                                    
0001510010120141211RTDMX-W1                   +00000000000000014691250007                                    
0001520010120141212RTDMX-W1                   +00000000000000014775750007                                    
0001530010120141211RTDNZ-W1                   +00000000000000000779650007                                    
0001540010120141212RTDNZ-W1                   +00000000000000000777150007                                    
0001550010120141211RTDOL-CL                   +00000000000000000002643304                                    
0001560010120141212RTDOL-CL                   +00000000000000000002664504                                    
0001570010120141211RTDOL-D1                   +00000000000000000002643304                                    
0001580010120141212RTDOL-D1                   +00000000000000000002661604                                    
0001590010120141211RTDOL-D2                   +00000000000000000002644404                                    
0001600010120141212RTDOL-D2                   +00000000000000000002662704                                    
0001610010120141211RTDOL-MN                   +00000000000000000002618304                                    
0001620010120141212RTDOL-MN                   +00000000000000000002652404                                    
0001630010120141211RTDOL-MX                   +00000000000000000002635904                                    
0001640010120141212RTDOL-MX                   +00000000000000000002660404                                    
0001650010120141211RTDOL-PA                   +00000000000000000002618304                                    
0001660010120141212RTDOL-PA                   +00000000000000000002654404                                    
0001670010120141211RTDOL-T1                   +00000000000000000002627104                                    
0001680010120141212RTDOL-T1                   +00000000000000000002655804                                    
0001690010120141211RTDOL-T2                   +00000000000000000002626504                                    
0001700010120141212RTDOL-T2                   +00000000000000000002655204                                    
0001710010120141211RTDOL-T3                   +00000000000000000002626804                                    
0001720010120141212RTDOL-T3                   +00000000000000000002655504                                    
0001730010120141211RTDTR-W1                   +00000000000000002276950007                                    
0001740010120141212RTDTR-W1                   +00000000000000002300300007                                    
0001750010120141211RTDZA-W1                   +00000000000000011648900007                                    
0001760010120141212RTDZA-W1                   +00000000000000011668650007                                    
0001770010120141211RTEDO-B1                   +00000000000000001242800007                                    
0001780010120141212RTEDO-B1                   +00000000000000001245000007                                    
0001790010120141211RTEDO-W1                   +00000000000000001238250007                                    
0001800010120141212RTEDO-W1                   +00000000000000001246200007                                    
0001810010120141211RTEUR                      +00000000000000000001242804                                    
0001820010120141212RTEUR                      +00000000000000000001245004                                    
0001830010120141211RTFIN-MN                   +00000000000000000000478002                                    
0001840010120141212RTFIN-MN                   +00000000000000000000467802                                    
0001850010120141211RTFIN-MX                   +00000000000000000000479402                                    
0001860010120141212RTFIN-MX                   +00000000000000000000468102                                    
0001870010120141211RTFIN-PA                   +00000000000000000000479402                                    
0001880010120141212RTFIN-PA                   +00000000000000000000467802                                    
0001890010120141211RTFIN-PF                   +00000000000000000000478002                                    
0001900010120141212RTFIN-PF                   +00000000000000000000468102                                    
0001910010120141211RTFIN-PM                   +00000000000000000000478202                                    
0001920010120141212RTFIN-PM                   +00000000000000000000468002                                    
0001930010120141211RTFTS-BR                   +00000000000000000004243800                                    
0001940010120141212RTFTS-BR                   +00000000000000000004240000                                    
0001950010120141211RTFXV                      +00000000000000000001527603                                    
0001960010120141211RTGBP-PF                   +00000000000000000001570604                                    
0001970010120141212RTGBP-PF                   +00000000000000000001571404                                    
0001980010120141211RTGBP-T1                   +00000000000000004120300007                                    
0001990010120141212RTGBP-T1                   +00000000000000004176000007                                    
0002000010120141211RTGBP-T2                   +00000000000000004118900007                                    
0002010010120141212RTGBP-T2                   +00000000000000004173700007                                    
0002020010120141211RTGOV-MN                   +00000000000000000000208802                                    
0002030010120141212RTGOV-MN                   +00000000000000000000204402                                    
0002040010120141211RTGOV-MX                   +00000000000000000000211502                                    
0002050010120141212RTGOV-MX                   +00000000000000000000209202                                    
0002060010120141211RTGOV-PA                   +00000000000000000000208902                                    
0002070010120141212RTGOV-PA                   +00000000000000000000209202                                    
0002080010120141211RTGOV-PF                   +00000000000000000000211502                                    
0002090010120141212RTGOV-PF                   +00000000000000000000204402                                    
0002100010120141211RTGOV-PM                   +00000000000000000000210002                                    
0002110010120141212RTGOV-PM                   +00000000000000000000205102                                    
0002120010120141211RTHAN-BR                   +00000000000000000002331300                                    
0002130010120141212RTHAN-BR                   +00000000000000000002324900                                    
0002140010120141211RTIBR-PA                   +00000000000000000083902602                                    
0002150010120141212RTIBR-PA                   +00000000000000000084424702                                    
0002160010120141211RTIBR-PF                   +00000000000000000084440002                                    
0002170010120141212RTIBR-PF                   +00000000000000000081210002                                    
0002180010120141211RTIBR-PL                   +00000000000000000083670002                                    
0002190010120141212RTIBR-PL                   +00000000000000000081810002                                    
0002200010120141211RTIBR-PM                   +00000000000000000083630002                                    
0002210010120141212RTIBR-PM                   +00000000000000000082540002                                    
0002220010120141211RTIBV-MN                   +00000000000000000004880800                                    
0002230010120141212RTIBV-MN                   +00000000000000000004797300                                    
0002240010120141211RTIBV-MX                   +00000000000000000004994600                                    
0002250010120141212RTIBV-MX                   +00000000000000000004986100                                    
0002260010120141211RTIBV-PA                   +00000000000000000004954800                                    
0002270010120141212RTIBV-PA                   +00000000000000000004986100                                    
0002280010120141211RTIBV-PF                   +00000000000000000004986100                                    
0002290010120141212RTIBV-PF                   +00000000000000000004800100                                    
0002300010120141211RTIBV-PL                   +00000000000000000004941700                                    
0002310010120141212RTIBV-PL                   +00000000000000000004835700                                    
0002320010120141211RTIBV-PM                   +00000000000000000004938900                                    
0002330010120141212RTIBV-PM                   +00000000000000000004878100                                    
0002340010120141211RTIBX-MN                   +00000000000000000082640002                                    
0002350010120141212RTIBX-MN                   +00000000000000000081160002                                    
0002360010120141211RTIBX-MX                   +00000000000000000084590002                                    
0002370010120141212RTIBX-MX                   +00000000000000000084420002                                    
0002380010120141211RTIBX-PA                   +00000000000000000083902602                                    
0002390010120141212RTIBX-PA                   +00000000000000000084424702                                    
0002400010120141211RTIBX-PF                   +00000000000000000084440002                                    
0002410010120141212RTIBX-PF                   +00000000000000000081210002                                    
0002420010120141211RTIBX-PL                   +00000000000000000083670002                                    
0002430010120141212RTIBX-PL                   +00000000000000000081810002                                    
0002440010120141211RTIBX-PM                   +00000000000000000083630002                                    
0002450010120141212RTIBX-PM                   +00000000000000000082540002                                    
0002460010120141211RTIDI-03                   +00000000000000004276007902                                    
0002470010120141212RTIDI-03                   +00000000000000004277869002                                    
0002480010120141211RTIDI-09                   +00000000000000001736253702                                    
0002490010120141212RTIDI-09                   +00000000000000001737009402                                    
0002500010120141211RTIND-PA                   +00000000000000000495485802                                    
0002510010120141212RTIND-PA                   +00000000000000000498613302                                    
0002520010120141211RTIND-PF                   +00000000000000000498610002                                    
0002530010120141212RTIND-PF                   +00000000000000000480010002                                    
0002540010120141211RTIND-PL                   +00000000000000000494170002                                    
0002550010120141212RTIND-PL                   +00000000000000000483570002                                    
0002560010120141211RTIND-PM                   +00000000000000000493890002                                    
0002570010120141212RTIND-PM                   +00000000000000000487810002                                    
0002580010120141211RTIRF-DE                   +00000000000007134191586007                                    
0002590010120141211RTISE-05                   +00000000000000003005452602                                    
0002600010120141212RTISE-05                   +00000000000000003006767202                                    
0002610010120141211RTITC-12                   +00000000000000001294219002                                    
0002620010120141212RTITC-12                   +00000000000000001294785102                                    
0002630010120141211RTJPY-NY                   +00000000000000000119360004                                    
0002640010120141212RTJPY-NY                   +00000000000000000118410004                                    
0002650010120141211RTJPY-PA                   +00000000000000000002212006                                    
0002660010120141212RTJPY-PA                   +00000000000000000002245006                                    
0002670010120141211RTJPY-T1                   +00000000000000000002205006                                    
0002680010120141212RTJPY-T1                   +00000000000000000002232006                                    
0002690010120141211RTJPY-T2                   +00000000000000000002204006                                    
0002700010120141212RTJPY-T2                   +00000000000000000002231006                                    
0002710010120141211RTLIBOR                    +00000000000000000000160004                                    
0002720010120141212RTLIBOR                    +00000000000000000000160004                                    
0002730010120141211RTMIC-BR                   +00000000000000000000145500                                    
0002740010120141212RTMIC-BR                   +00000000000000000000146000                                    
0002750010120141211RTMXN-PF                   +00000000000000000014697104                                    
0002760010120141212RTMXN-PF                   +00000000000000000014657404                                    
0002770010120141211RTMXN-T1                   +00000000000000000180200007                                    
0002780010120141212RTMXN-T1                   +00000000000000000179600007                                    
0002790010120141211RTMXN-T2                   +00000000000000000180100007                                    
0002800010120141212RTMXN-T2                   +00000000000000000179500007                                    
0002810010120141211RTNIB-PA                   +00000000000000001625350003                                    
0002820010120141212RTNIB-PA                   +00000000000000001621000003                                    
0002830010120141211RTNIB-T1-S                 +00000000000000001621000003                                    
0002840010120141212RTNIB-T1-S                 +00000000000000001660800003                                    
0002850010120141211RTNIB-T2-S                 +00000000000000001621000003                                    
0002860010120141212RTNIB-T2-S                 +00000000000000001660800003                                    
0002870010120141211RTNZD-PF                   +00000000000000000000780704                                    
0002880010120141212RTNZD-PF                   +00000000000000000000777804                                    
0002890010120141211RTPBB-PA                   +00000000000000000200350003                                    
0002900010120141212RTPBB-PA                   +00000000000000000197000003                                    
0002910010120141211RTPBB-T1-S                 +00000000000000000197000003                                    
0002920010120141212RTPBB-T1-S                 +00000000000000000198250003                                    
0002930010120141211RTPBB-T2-S                 +00000000000000000197000003                                    
0002940010120141212RTPBB-T2-S                 +00000000000000000198250003                                    
0002950010120141211RTPRT                      +00000000000000000055613803                                    
0002960010120141212RTPRT                      +00000000000000000055630903                                    
0002970010120141211RTPRTIPCA                  +00000000000000000402639103                                    
0002980010120141212RTPRTIPCA                  +00000000000000000402741603                                    
0002990010120141211RTREU-PA                   +00000000000000003262900007                                    
0003000010120141212RTREU-PA                   +00000000000000003306300007                                    
0003010010120141211RTREU-PF                   +00000000000000000001238704                                    
0003020010120141212RTREU-PF                   +00000000000000000001245604                                    
0003030010120141211RTREU-T1                   +00000000000000003256600007                                    
0003040010120141212RTREU-T1                   +00000000000000003304900007                                    
0003050010120141211RTREU-T2                   +00000000000000003254800007                                    
0003060010120141212RTREU-T2                   +00000000000000003303900007                                    
0003070010120141211RTREU-T3                   +00000000000000003264959907                                    
0003080010120141212RTREU-T3                   +00000000000000003306471007                                    
0003090010120141211RTSEL                      +00000000000000000000116502                                    
0003100010120141212RTSEL                      +00000000000000000000116502                                    
0003110010120141211RTSEL-RE                   +00000000000000000000116502                                    
0003120010120141212RTSEL-RE                   +00000000000000000000116502                                    
0003130010120141211RTSEL-12                   +00000000000000000000116502                                    
0003140010120141212RTSEL-12                   +00000000000000000000116502                                    
0003150010120141211RTSEN-BR                   +00000000000000000002760200                                    
0003160010120141212RTSEN-BR                   +00000000000000000002735100                                    
0003170010120141211RTSNB-PA                   +00000000000000002023000003                                    
0003180010120141212RTSNB-PA                   +00000000000000002038900003                                    
0003190010120141211RTSNB-T1-S                 +00000000000000002038900003                                    
0003200010120141212RTSNB-T1-S                 +00000000000000002040300003                                    
0003210010120141211RTSNB-T2-S                 +00000000000000002038900003                                    
0003220010120141212RTSNB-T2-S                 +00000000000000002040300003                                    
0003230010120141211RTSUS-MN                   +00000000000000000000232702                                    
0003240010120141212RTSUS-MN                   +00000000000000000000227902                                    
0003250010120141211RTSUS-MX                   +00000000000000000000234502                                    
0003260010120141212RTSUS-MX                   +00000000000000000000231802                                    
0003270010120141211RTSUS-PA                   +00000000000000000000232702                                    
0003280010120141212RTSUS-PA                   +00000000000000000000231802                                    
0003290010120141211RTSUS-PF                   +00000000000000000000234502                                    
0003300010120141212RTSUS-PF                   +00000000000000000000227902                                    
0003310010120141211RTSUS-PM                   +00000000000000000000233502                                    
0003320010120141212RTSUS-PM                   +00000000000000000000229002                                    
0003330010120141211RTTBF01                    +00000000000000000000896104                                    
0003340010120141212RTTBF01                    +00000000000000000000896104                                    
0003350010120141211RTTBF02                    +00000000000000000000821904                                    
0003360010120141212RTTBF02                    +00000000000000000000821904                                    
0003370010120141211RTTBF03                    +00000000000000000000875604                                    
0003380010120141212RTTBF03                    +00000000000000000000875604                                    
0003390010120141211RTTBF04                    +00000000000000000000820104                                    
0003400010120141212RTTBF04                    +00000000000000000000820104                                    
0003410010120141211RTTBF05                    +00000000000000000000793804                                    
0003420010120141212RTTBF05                    +00000000000000000000793804                                    
0003430010120141211RTTBF06                    +00000000000000000000775404                                    
0003440010120141212RTTBF06                    +00000000000000000000775404                                    
0003450010120141211RTTBF07                    +00000000000000000000816404                                    
0003460010120141212RTTBF07                    +00000000000000000000816404                                    
0003470010120141211RTTBF08                    +00000000000000000000837104                                    
0003480010120141212RTTBF08                    +00000000000000000000837104                                    
0003490010120141211RTTBF09                    +00000000000000000000866604                                    
0003500010120141212RTTBF09                    +00000000000000000000866604                                    
0003510010120141211RTTBF10                    +00000000000000000000863004                                    
0003520010120141212RTTBF10                    +00000000000000000000863004                                    
0003530010120141211RTTBF11                    +00000000000000000000840304                                    
0003540010120141212RTTBF11                    +00000000000000000000840304                                    
0003550010120141211RTTBF12                    +00000000000000000000870104                                    
0003560010120141211RTTBF13                    +00000000000000000000891504                                    
0003570010120141212RTTBF13                    +00000000000000000000891504                                    
0003580010120141211RTTBF14                    +00000000000000000000837504                                    
0003590010120141212RTTBF14                    +00000000000000000000837504                                    
0003600010120141211RTTBF15                    +00000000000000000000796004                                    
0003610010120141212RTTBF15                    +00000000000000000000796004                                    
0003620010120141211RTTBF16                    +00000000000000000000835904                                    
0003630010120141212RTTBF16                    +00000000000000000000835904                                    
0003640010120141211RTTBF17                    +00000000000000000000874304                                    
0003650010120141212RTTBF17                    +00000000000000000000874304                                    
0003660010120141211RTTBF18                    +00000000000000000000899504                                    
0003670010120141212RTTBF18                    +00000000000000000000899504                                    
0003680010120141211RTTBF19                    +00000000000000000000893204                                    
0003690010120141212RTTBF19                    +00000000000000000000893204                                    
0003700010120141211RTTBF20                    +00000000000000000000915704                                    
0003710010120141212RTTBF20                    +00000000000000000000915704                                    
0003720010120141211RTTBF21                    +00000000000000000000833504                                    
0003730010120141212RTTBF21                    +00000000000000000000833504                                    
0003740010120141211RTTBF22                    +00000000000000000000816404                                    
0003750010120141212RTTBF22                    +00000000000000000000816404                                    
0003760010120141211RTTBF23                    +00000000000000000000857404                                    
0003770010120141212RTTBF23                    +00000000000000000000857404                                    
0003780010120141211RTTBF24                    +00000000000000000000923404                                    
0003790010120141212RTTBF24                    +00000000000000000000923404                                    
0003800010120141211RTTBF25                    +00000000000000000000861804                                    
0003810010120141212RTTBF25                    +00000000000000000000861804                                    
0003820010120141211RTTBF26                    +00000000000000000000855604                                    
0003830010120141212RTTBF26                    +00000000000000000000855604                                    
0003840010120141211RTTBF27                    +00000000000000000000843604                                    
0003850010120141212RTTBF27                    +00000000000000000000843604                                    
0003860010120141211RTTBF28                    +00000000000000000000807104                                    
0003870010120141212RTTBF28                    +00000000000000000000807104                                    
0003880010120141211RTTBF29                    +00000000000000000000770004                                    
0003890010120141212RTTBF29                    +00000000000000000000770004                                    
0003900010120141211RTTBF30                    +00000000000000000000810704                                    
0003910010120141212RTTBF30                    +00000000000000000000810704                                    
0003920010120141211RTTBF31                    +00000000000000000000855204                                    
0003930010120141212RTTBF31                    +00000000000000000000855204                                    
0003940010120141211RTTJL                      +00000000000000000000050002                                    
0003950010120141212RTTJL                      +00000000000000000000050002                                    
0003960010120141211RTTJ3                      +00000000000000000000118302                                    
0003970010120141212RTTJ3                      +00000000000000000000118702                                    
0003980010120141211RTTJ6                      +00000000000000000000122102                                    
0003990010120141212RTTJ6                      +00000000000000000000122402                                    
0004000010120141211RTTR 01                    +00000000000000000000105304                                    
0004010010120141212RTTR 01                    +00000000000000000000105304                                    
0004020010120141211RTTR 02                    +00000000000000000000071404                                    
0004030010120141212RTTR 02                    +00000000000000000000071404                                    
0004040010120141211RTTR 03                    +00000000000000000000094904                                    
0004050010120141212RTTR 03                    +00000000000000000000094904                                    
0004060010120141211RTTR 04                    +00000000000000000000059604                                    
0004070010120141212RTTR 04                    +00000000000000000000059604                                    
0004080010120141211RTTR 05                    +00000000000000000000043504                                    
0004090010120141212RTTR 05                    +00000000000000000000043504                                    
0004100010120141211RTTR 06                    +00000000000000000000025204                                    
0004110010120141212RTTR 06                    +00000000000000000000025204                                    
0004120010120141211RTTR 07                    +00000000000000000000056004                                    
0004130010120141212RTTR 07                    +00000000000000000000056004                                    
0004140010120141211RTTR 08                    +00000000000000000000066604                                    
0004150010120141212RTTR 08                    +00000000000000000000066604                                    
0004160010120141211RTTR 09                    +00000000000000000000085904                                    
0004170010120141212RTTR 09                    +00000000000000000000085904                                    
0004180010120141211RTTR 10                    +00000000000000000000082404                                    
0004190010120141212RTTR 10                    +00000000000000000000082404                                    
0004200010120141211RTTR 11                    +00000000000000000000069804                                    
0004210010120141212RTTR 11                    +00000000000000000000069804                                    
0004220010120141211RTTR 12                    +00000000000000000000099304                                    
0004230010120141211RTTR 13                    +00000000000000000000100704                                    
0004240010120141212RTTR 13                    +00000000000000000000100704                                    
0004250010120141211RTTR 14                    +00000000000000000000067004                                    
0004260010120141212RTTR 14                    +00000000000000000000067004                                    
0004270010120141211RTTR 15                    +00000000000000000000045704                                    
0004280010120141212RTTR 15                    +00000000000000000000045704                                    
0004290010120141211RTTR 16                    +00000000000000000000065404                                    
0004300010120141212RTTR 16                    +00000000000000000000065404                                    
0004310010120141211RTTR 17                    +00000000000000000000103504                                    
0004320010120141212RTTR 17                    +00000000000000000000103504                                    
0004330010120141211RTTR 18                    +00000000000000000000108604                                    
0004340010120141212RTTR 18                    +00000000000000000000108604                                    
0004350010120141211RTTR 19                    +00000000000000000000102404                                    
0004360010120141212RTTR 19                    +00000000000000000000102404                                    
0004370010120141211RTTR 20                    +00000000000000000000124704                                    
0004380010120141212RTTR 20                    +00000000000000000000124704                                    
0004390010120141211RTTR 21                    +00000000000000000000072904                                    
0004400010120141212RTTR 21                    +00000000000000000000072904                                    
0004410010120141211RTTR 22                    +00000000000000000000056004                                    
0004420010120141212RTTR 22                    +00000000000000000000056004                                    
0004430010120141211RTTR 23                    +00000000000000000000086704                                    
0004440010120141212RTTR 23                    +00000000000000000000086704                                    
0004450010120141211RTTR 24                    +00000000000000000000122404                                    
0004460010120141212RTTR 24                    +00000000000000000000122404                                    
0004470010120141211RTTR 25                    +00000000000000000000091104                                    
0004480010120141212RTTR 25                    +00000000000000000000091104                                    
0004490010120141211RTTR 26                    +00000000000000000000084904                                    
0004500010120141212RTTR 26                    +00000000000000000000084904                                    
0004510010120141211RTTR 27                    +00000000000000000000073004                                    
0004520010120141212RTTR 27                    +00000000000000000000073004                                    
0004530010120141211RTTR 28                    +00000000000000000000046704                                    
0004540010120141212RTTR 28                    +00000000000000000000046704                                    
0004550010120141211RTTR 29                    +00000000000000000000019904                                    
0004560010120141212RTTR 29                    +00000000000000000000019904                                    
0004570010120141211RTTR 30                    +00000000000000000000050304                                    
0004580010120141212RTTR 30                    +00000000000000000000050304                                    
0004590010120141211RTTR 31                    +00000000000000000000084504                                    
0004600010120141212RTTR 31                    +00000000000000000000084504                                    
0004610010120141211RTTRY-PF                   +00000000000000000002277604                                    
0004620010120141212RTTRY-PF                   +00000000000000000002295004                                    
0004630010120141211RTYDO-B2                   +00000000000000117940000007                                    
0004640010120141212RTYDO-B2                   +00000000000000118770000007                                    
0004650010120141211RTYDO-W1                   +00000000000000119430000007                                    
0004660010120141212RTYDO-W1                   +00000000000000118545000007                                    
0004670010120141211RTZAR-PF                   +00000000000000000011632004                                    
0004680010120141212RTZAR-PF                   +00000000000000000011602804                                    
0004690010120141211RTZNB-PA                   +00000000000000000216500003                                    
0004700010120141212RTZNB-PA                   +00000000000000000218075003                                    
0004710010120141211RTZNB-T1-S                 +00000000000000000218075003                                    
0004720010120141212RTZNB-T1-S                 +00000000000000000217850003                                    
0004730010120141211RTZNB-T2-S                 +00000000000000000218075003                                    
0004740010120141212RTZNB-T2-S                 +00000000000000000217850003                                    
0004750010120141211IDIDI2003                  +00000000000000004276007902                                    
0004760010120141211IDIDI2009                  +00000000000000001736253702                                    
0004770010120141212IDIDI2003                  +00000000000000004277869002                                    
0004780010120141212IDIDI2009                  +00000000000000001737009402                                    
0004790010120141211BVIBOVESPA                 +00000000000000000004986100                                    
0004800010120141212BVIBOVESPA                 +00000000000000000004800100                                    
