00BDIN9999BOVESPA 999920151119201511191724                                                                                                                                                                                                                                                                                                                    
0101IBOVESPA                      0474370474370482260479260479410580512015050504395620150928048138+00148+00040+00349+00268+00495+00146-00374-0098604401600306373759700000041780440000000533543300700047950                                                                                                                                                    
0102IEELETRICA                    0268290265930269850267780266990315342015051102418520150211026873+00049+00042-00053-00101+00061+00071-00106-0000000800600101506146500000001645650000000029343044200026768                                                                                                                                                    
0103IVBX2                         0077260077260078270077790077750081452015051500678020150114007801+00097+00055+00207+00205+00646+00406+00844+0036503001600304939320100000019065380000000201827991200007784                                                                                                                                                    
0104IBRX BRASIL                   0197490197490200590199460199500238472015050501847120150928020028+00141+00031+00321+00256+00450+00095-00326-0091006602800409883893300000045375950000000574905964000019955                                                                                                                                                    
0106IBRX 50                       0080480080480081780081300081330098422015050500755820150928008163+00144+00034+00340+00270+00437+00065-00357-0098803501400105066936600000040229610000000513012334500008134                                                                                                                                                    
0108IGOVERNANCA                   0076010076010077190076720076770087872015051500713220150928007702+00133+00015+00255+00213+00468+00094-00335-0078610805201517775421000000037203650000000482541789100007678                                                                                                                                                    
0109ISUSTENTABIL                  0022470022470022930022780022810026992015050500217420150824002289+00184-00004+00240+00241+00205-00208-00585-0098103801100105044874600000025023410000000328133202900002280                                                                                                                                                    
0110ITAG ALONG                    0106950106950108860108090108260123152015051500992520150928010867+00161+00019+00355+00284+00633+00248-00214-0072709605101516866810100000032530720000000433326942200010820                                                                                                                                                    
0111INDUSTRIAL                    0130680130680132360131730131690137132015051101146620150114013222+00118+00005+00172+00211+00265-00102+01054+0067103101200304626658500000017336150000000150652904600013183                                                                                                                                                    
0112SMALL CAP                     0009520009520009650009570009550010842015042400084720150928000957+00057+00039+00145+00090+00523+00306-01194-0153804201900406522516200000014205210000000079657535700000957                                                                                                                                                    
0113MIDLARGE CAP                  0009100009100009250009190009200011062015050500085620150928000924+00150+00028+00339+00271+00442+00079-00278-0086203901500205663299600000031730490000000501202413800000920                                                                                                                                                    
0114ICONSUMO                      0026710026710027110026970026960029432015051500253020150211002698+00100-00015+00180+00180+00294-00103+00094-0031402400800203418729900000006579700000000121782915100002696                                                                                                                                                    
0115IMOBILIARIO                   0004920004880004980004920004900006222015040600041920150928000492-00003-00064+00013+00130+00761+00728-01095-0167600800400301505030600000001622520000000017188358800000491                                                                                                                                                    
0116IFINANCEIRO                   0047830047830048930048440048610057382015051500428620150928004886+00217+00046+00545+00379+00959+00466-00106-0067101200300001522305100000011625160000000208659518200004853                                                                                                                                                    
0117ICO2                          0011960011960012190012110012120014152015050500114720150824001216+00163+00017+00329+00277+00465+00084-00078-0057602300700003042979700000019281930000000349809103300001212                                                                                                                                                    
0118IGC TRADE                     0020060020060020410020260020290023932015050500188320150928002036+00151+00019+00291+00237+00495+00108-00571-0101107303100611074007900000036149770000000477429216300002028                                                                                                                                                    
0119UTILITIES                     0026220026160026520026330026280031342015051100234520150908002642+00078+00093+00077+00076+00545+00487-00411-0038001000700101807163000000001894710000000032595675600002633                                                                                                                                                    
0120I DIVIDENDOS                  0022710022700023110022990022990031182015050500209420150928002308+00164+00061+00226+00109+00136+00048-01733-0234701800900303017019600000007127960000000094446383900002302                                                                                                                                                    
0121IMAT BASICOS                  0014310014270014500014380014370016852015050500117420150825001449+00124+00136+00156+00176+00492-00168+00559+0050900800400001215807800000013807090000000091137664600001442                                                                                                                                                    
0122IBRASIL                       0018290018290018570018470018470022072015050500171020150928001854+00141+00029+00318+00252+00450+00103-00358-0091808003400612085788400000045922110000000580557847600001848                                                                                                                                                    
0123BDRX                          0042200041840042210042060042030043672015102800270320150127004199-00050-00026+00025+00053-00297+00026+04570+0515801502200008400008300000000006430000000000937497100004220                                                                                                                                                    
0124IND FDO IMOB                  0014550014540014620014580014590014792015071600133020150324001462+00048-00007+00133+00135+00223+00325+00938+0090004101601006900718900000000017083400000001373420133001459                                                                                                                                                    
0125IGC - NM                      0017790017790018030017940017940019652015051500165120150113001797+00101+00011+00212+00192+00439+00071+00170-0032306903301211541214000000014268230000000253428657800001795                                                                                                                                                    
0202LOTE PADRAO                   3M          DRN ED     MMMC34      010VISTA          0000000000000000000000000000000000000000000000000000000000/000000000001459500000014856000000000000000000000000000000000000000000000000000000000MOEDA CORRENTE 00000010000000000000BRMMMCBDR0001150               0000000000                                            
0202LOTE PADRAO                   524 PARTICIPON      MB QVQP3B      010VISTA          0000000000000000000000000000000000000000000000000000000000/000000000000002900000000000000000000000000000000000000000000000000000000000000000000MOEDA CORRENTE 00000010000000000000BRQVQPACNOR11130               0000000000                                            
0202LOTE PADRAO                   ABBOTT      DRN        ABTT34      010VISTA          0000000000000000000000000000000000000000000000000000000000/000000000000423400000004327000000000000000000000000000000000000000000000000000000000MOEDA CORRENTE 00000010000000000000BRABTTBDR0071160               0000000000                                            
0202LOTE PADRAO                   ABC BRASIL  PN      N2 ABCB4       010VISTA          0000000000095500000000995000000009550000000097100000000990+003660000000098700000000990015160000000002777000000000026958720000000000000000000000MOEDA CORRENTE 00000010000000000000BRABCBACNPR41240               0000000366                                            
0202LOTE PADRAO                   ACCENTURE   DRN        ACNB34      010VISTA          0000000000000000000000000000000000000000000000000000000000/000000000004124600000000000000000000000000000000000000000000000000000000000000000000MOEDA CORRENTE 00000010000000000000BRACNBBDR0061010               0000000000                                            
0202LOTE PADRAO                   ACO ALTONA  ON         EALT3       010VISTA          0000000000000000000000000000000000000000000000000000000000/000000000000239200000000000000000000000000000000000000000000000000000000000000000000MOEDA CORRENTE 00000010000000000000BREALTACNOR41270               0000000000                                            
0202LOTE PADRAO                   ACO ALTONA  PN         EALT4       010VISTA          0000000000129900000001299000000012990000000129900000001299+010080000000100000000001300000010000000000001000000000000012990000000000000000000000MOEDA CORRENTE 00000010000000000000BREALTACNPR11270               0000001008                                            
0202LOTE PADRAO                   AES ELPA    ON         AELP3       010VISTA          0000000000054900000000550000000005490000000055000000000550+003770000000052500000000550000030000000000005000000000000027490000000000000000000000MOEDA CORRENTE 00000010000000000000BRAELPACNOR21220               0000000377                                            
0202LOTE PADRAO                   AES TIETE   ON         GETI3       010VISTA          0000000000137000000001371000000013590000000136600000001370-000720000000137000000001374010880000000002733000000000037329740000000000000000000000MOEDA CORRENTE 00000010000000000000BRGETIACNOR71620               0000000072                                            
0202LOTE PADRAO                   AES TIETE   PN         GETI4       010VISTA          0000000000138400000001384000000013570000000136400000001365-000720000000136500000001369027540000000007549000000000102981360000000000000000000000MOEDA CORRENTE 00000010000000000000BRGETIACNPR41620               0000000072                                            
0202LOTE PADRAO                   AFLUENTE    ON         AFLU3       010VISTA          0000000000000000000000000000000000000000000000000000000000/000000000000024600000000350000000000000000000000000000000000000000000000000000000000MOEDA CORRENTE 00000010000000000000BRAFLUACNOR91190               0000000000                                            
0202LOTE PADRAO                   AFLUENTE    PNA        AFLU5       010VISTA          0000000000000000000000000000000000000000000000000000000000/000000000000020100000000000000000000000000000000000000000000000000000000000000000000MOEDA CORRENTE 00000010000000000000BRAFLUACNPA21190               0000000000                                            
0202LOTE PADRAO                   AFLUENTE T  ON         AFLT3       010VISTA          0000000000000000000000000000000000000000000000000000000000/000000000000022100000000250000000000000000000000000000000000000000000000000000000000MOEDA CORRENTE 00000010000000000000BRAFLTACNOR11070               0000000000                                            
0202LOTE PADRAO                   AGCONCESSOESON      MB ANDG3B      010VISTA          0000000000000000000000000000000000000000000000000000000000/000000000000000200000000000000000000000000000000000000000000000000000000000000000000MOEDA CORRENTE 00000010000000000000BRANDGACNOR91300               0000000000                                            
0202LOTE PADRAO                   AGCONCESSOESPN      MB ANDG4B      010VISTA          0000000000000000000000000000000000000000000000000000000000/000000000000000200000000000000000000000000000000000000000000000000000000000000000000MOEDA CORRENTE 00000010000000000000BRANDGACNPR61300               0000000000                                            
0202LOTE PADRAO                   ALFA CONSORCON         BRGE3       010VISTA          0000000000000000000000000000000000000000000000000000000000/000000000000017500000000300000000000000000000000000000000000000000000000000000000000MOEDA CORRENTE 00000010000000000000BRBRGEACNOR61980               0000000000                                            
0202LOTE PADRAO                   ALFA CONSORCPNB        BRGE6       010VISTA          0000000000000000000000000000000000000000000000000000000000/000000000000000000000001000000000000000000000000000000000000000000000000000000000000MOEDA CORRENTE 00000010000000000000BRBRGEACNPB72020               0000000000                                            
0202LOTE PADRAO                   ALFA CONSORCPND        BRGE8       010VISTA          0000000000000000000000000000000000000000000000000000000000/000000000000031100000000540000000000000000000000000000000000000000000000000000000000MOEDA CORRENTE 00000010000000000000BRBRGEACNPD32040               0000000000                                            
0202LOTE PADRAO                   ALFA CONSORCPNE        BRGE11      010VISTA          0000000000000000000000000000000000000000000000000000000000/000000000000037000000001000000000000000000000000000000000000000000000000000000000000MOEDA CORRENTE 00000010000000000000BRBRGEACNPE10950               0000000000                                            
0202LOTE PADRAO                   ALFA CONSORCPNF        BRGE12      010VISTA          0000000000000000000000000000000000000000000000000000000000/000000000000025900000000440000000000000000000000000000000000000000000000000000000000MOEDA CORRENTE 00000010000000000000BRBRGEACNPF80920               0000000000                                            
0202LOTE PADRAO                   ALFA FINANC ON         CRIV3       010VISTA          0000000000000000000000000000000000000000000000000000000000/000000000000026200000000282000000000000000000000000000000000000000000000000000000000MOEDA CORRENTE 00000010000000000000BRCRIVACNOR41900               0000000000                                            
0202LOTE PADRAO                   ALFA FINANC PN         CRIV4       010VISTA          0000000000000000000000000000000000000000000000000000000000/000000000000030600000000346000000000000000000000000000000000000000000000000000000000MOEDA CORRENTE 00000010000000000000BRCRIVACNPR11940               0000000000                                            
0202LOTE PADRAO                   ALFA HOLDINGON         RPAD3       010VISTA          0000000000000000000000000000000000000000000000000000000000/000000000000023500000000400000000000000000000000000000000000000000000000000000000000MOEDA CORRENTE 00000010000000000000BRRPADACNOR11950               0000000000                                            
0202LOTE PADRAO                   ALFA HOLDINGPNA        RPAD5       010VISTA          0000000000000000000000000000000000000000000000000000000000/000000000000042000000000500000000000000000000000000000000000000000000000000000000000MOEDA CORRENTE 00000010000000000000BRRPADACNPA42010               0000000000                                            
0202LOTE PADRAO                   ALFA HOLDINGPNB        RPAD6       010VISTA          0000000000000000000000000000000000000000000000000000000000/000000000000015400000000223000000000000000000000000000000000000000000000000000000000MOEDA CORRENTE 00000010000000000000BRRPADACNPB21950               0000000000                                            
0202LOTE PADRAO                   ALFA INVEST ON         BRIV3       010VISTA          0000000000000000000000000000000000000000000000000000000000/000000000000061300000000705000000000000000000000000000000000000000000000000000000000MOEDA CORRENTE 00000010000000000000BRBRIVACNOR62010               0000000000                                            
0202LOTE PADRAO                   ALFA INVEST PN         BRIV4       010VISTA          0000000000000000000000000000000000000000000000000000000000/000000000000062300000000690000000000000000000000000000000000000000000000000000000000MOEDA CORRENTE 00000010000000000000BRBRIVACNPR32010               0000000000                                            
0202LOTE PADRAO                   ALIANSCE    ON      NM ALSC3       010VISTA          0000000000116100000001189000000011460000000116600000001170+001290000000116200000001178013970000000002890000000000033708320000000000000000000000MOEDA CORRENTE 00000010000000000000BRALSCACNOR01070               0000000129                                            
0202LOTE PADRAO                   ALIPERTI    ON         APTI3       010VISTA          0000000000000000000000000000000000000000000000000000000000/000000000003250000000000000000000000000000000000000000000000000000000000000000000000MOEDA CORRENTE 00000010000000000000BRAPTIACNOR61270               0000000000                                            
0202LOTE PADRAO                   ALIPERTI    PN         APTI4       010VISTA          0000000000000000000000000000000000000000000000000000000000/000000000002000000000000000000000000000000000000000000000000000000000000000000000000MOEDA CORRENTE 00000010000000000000BRAPTIACNPR31270               0000000000                                            
0202LOTE PADRAO                   ALPARGATAS  ON      N1 ALPA3       010VISTA          0000000000100000000001005000000010000000000100200000001005+000700000000098000000001009000070000000000104000000000001042550000000000000000000000MOEDA CORRENTE 00000010000000000000BRALPAACNOR02130               0000000070                                            
0202LOTE PADRAO                   ALPARGATAS  PN      N1 ALPA4       010VISTA          0000000000099100000000991000000009720000000098200000000979+000920000000097500000000979015210000000002658000000000026092990000000000000000000000MOEDA CORRENTE 00000010000000000000BRALPAACNPR72130               0000000092                                            
0202LOTE PADRAO                   ALUPAR      UNT     N2 ALUP11      010VISTA          0000000000145500000001475000000014430000000145500000001465+000680000000144800000001465009610000000002040000000000029684450000000000000000000000MOEDA CORRENTE 00000010000000000000BRALUPCDAM151030               0000000068                                            
0202LOTE PADRAO                   AMAZON      DRN        AMZO34      010VISTA          0000000012480000000124800000001248000000012480000000124800+000110000012377600000125809000010000000000001000000000001248000000000000000000000000MOEDA CORRENTE 00000010000000000000BRAMZOBDR0021010               0000000011                                            
0202LOTE PADRAO                   AMAZONIA    ON         BAZA3       010VISTA          0000000000002500000000025000000000240000000002500000000024=000000000000002400000000025000070000000000510000000000000125500000000000000000000000MOEDA CORRENTE 00000010000000000000BRBAZAACNOR01670               0000000000                                            
0202LOTE PADRAO                   AMBEV S/A   ON        .ABEV3       010VISTA          0000000000194100000001945000000019170000000193000000001935+000930000000193500000001938161140000000117393000000002266145690000000000000000000000MOEDA CORRENTE 00000010000000000000BRABEVACNOR11100               0000000093                                            
0202LOTE PADRAO                   AMERICAN EXPDRN        AXPB34      010VISTA          0000000002721300000027213000000272130000002721300000027213+000400000002880800000000000000010000000000003000000000000816390000000000000000000000MOEDA CORRENTE 00000010000000000000BRAXPBBDR0071140               0000000040                                            
0202LOTE PADRAO                   AMGEN       DRN ED     AMGN34      010VISTA          0000000000000000000000000000000000000000000000000000000000/000000000005914200000059798000000000000000000000000000000000000000000000000000000000MOEDA CORRENTE 00000010000000000000BRAMGNBDR0041160               0000000000                                            
0202LOTE PADRAO                   AMPLA ENERG ON *       CBEE3       010VISTA          0000000000012600000000126000000001260000000012600000000126+009560000000010000000000125000010000000001000000000000000001260000000000000000000000MOEDA CORRENTE 00010000000000000000BRCBEEACNOR31510               0000000956                                            
0202LOTE PADRAO                   ANIMA       ON      NM ANIM3       010VISTA          0000000000121500000001300000000012140000000126200000001283+006560000000128200000001299015730000000002668000000000033668820000000000000000000000MOEDA CORRENTE 00000010000000000000BRANIMACNOR61020               0000000656                                            
0202LOTE PADRAO                   APPLE       DRN        AAPL34      010VISTA          0000000000447800000004486000000044550000000447000000004472+000600000000446900000004481000040000000000139000000000006213730000000000000000000000MOEDA CORRENTE 00000010000000000000BRAAPLBDR0041150               0000000060                                            
0202LOTE PADRAO                   ARCELOR     DRN        ARMT34      010VISTA          0000000000000000000000000000000000000000000000000000000000/000000000000096100000001007000000000000000000000000000000000000000000000000000000000MOEDA CORRENTE 00000010000000000000BRARMTBDR0081130               0000000000                                            
0202LOTE PADRAO                   AREZZO CO   ON      NM ARZZ3       010VISTA          0000000000222100000002250000000021680000000222300000002201+000040000000220100000002250002740000000001359000000000030210190000000000000000000000MOEDA CORRENTE 00000010000000000000BRARZZACNOR31180               0000000004                                            
0202LOTE PADRAO                   ARTERIS     ON      NM ARTR3       010VISTA          0000000000097300000000979000000009650000000097400000000975+000510000000097300000000975001250000000000347000000000003380000000000000000000000000MOEDA CORRENTE 00000010000000000000BRARTRACNOR31050               0000000051                                            
0202LOTE PADRAO                   ATT INC     DRN        ATTB34      010VISTA          0000000001258300000012634000000125830000001259800000012634-001360000001371900000012694000030000000000007000000000000881830000000000000000000000MOEDA CORRENTE 00000010000000000000BRATTBBDR0071130               0000000136                                            
0202LOTE PADRAO                   AVON        DRN ED     AVON34      010VISTA          0000000000000000000000000000000000000000000000000000000000/000000000000048500000000517000000000000000000000000000000000000000000000000000000000MOEDA CORRENTE 00000010000000000000BRAVONBDR0091210               0000000000                                            
0202LOTE PADRAO                   AZEVEDO     ON         AZEV3       010VISTA          0000000000000000000000000000000000000000000000000000000000/000000000000010000000000255000000000000000000000000000000000000000000000000000000000MOEDA CORRENTE 00000010000000000000BRAZEVACNOR01150               0000000000                                            
0202LOTE PADRAO                   AZEVEDO     PN         AZEV4       010VISTA          0000000000000000000000000000000000000000000000000000000000/000000000000010500000000140000000000000000000000000000000000000000000000000000000000MOEDA CORRENTE 00000010000000000000BRAZEVACNPR71150               0000000000                                            
0202LOTE PADRAO                   B2W DIGITAL ON      NM BTOW3       010VISTA          0000000000148000000001496000000014220000000145300000001450-001220000000145000000001460025240000000014643000000000212781950000000000000000000000MOEDA CORRENTE 00000010000000000000BRBTOWACNOR81070               0000000122                                            
0202LOTE PADRAO                   BAHEMA      ON         BAHI3       010VISTA          0000000000000000000000000000000000000000000000000000000000/000000000000028100000000308000000000000000000000000000000000000000000000000000000000MOEDA CORRENTE 00000010000000000000BRBAHIACNOR10680               0000000000                                            
0202LOTE PADRAO                   BANCO PAN   PN      N1 BPAN4       010VISTA          0000000000017000000000175000000001700000000017300000000175+001740000000017200000000175000060000000000015000000000000025930000000000000000000000MOEDA CORRENTE 00000010000000000000BRBPANACNPR11030               0000000174                                            
0202LOTE PADRAO                   BANESE      ON  EJ     BGIP3       010VISTA          0000000000000000000000000000000000000000000000000000000000/000000000000121000000000000000000000000000000000000000000000000000000000000000000000MOEDA CORRENTE 00000010000000000000BRBGIPACNOR11860               0000000000                                            
0202LOTE PADRAO                   BANESE      PN  EJ     BGIP4       010VISTA          0000000000115700000001167000000011400000000115000000001167+000860000000112000000001167000250000000001166000000000013409350000000000000000000000MOEDA CORRENTE 00000010000000000000BRBGIPACNPR81860               0000000086                                            
0202LOTE PADRAO                   BANESTES    ON         BEES3       010VISTA          0000000000018500000000185000000001840000000018500000000185+000540000000018400000000185000110000000000441000000000000815650000000000000000000000MOEDA CORRENTE 00000010000000000000BRBEESACNOR92740               0000000054                                            
0202LOTE PADRAO                   BANESTES    PN         BEES4       010VISTA          0000000000000000000000000000000000000000000000000000000000/000000000000018400000000190000000000000000000000000000000000000000000000000000000000MOEDA CORRENTE 00000010000000000000BRBEESACNPR61990               0000000000                                            
0202LOTE PADRAO                   BANK AMERICADRN        BOAC34      010VISTA          0000000000669200000006692000000066920000000669200000006692-000930000000655700000006693000010000000000001000000000000066920000000000000000000000MOEDA CORRENTE 00000010000000000000BRBOACBDR0041200               0000000093                                            
0202LOTE PADRAO                   BANPARA     ON         BPAR3       010VISTA          0000000000000000000000000000000000000000000000000000000000/000000000000200000000000000000000000000000000000000000000000000000000000000000000000MOEDA CORRENTE 00000010000000000000BRBPARACNOR51370               0000000000                                            
0202LOTE PADRAO                   BANRISUL    ON      N1 BRSR3       010VISTA          0000000000000000000000000000000000000000000000000000000000/000000000000070100000001078000000000000000000000000000000000000000000000000000000000MOEDA CORRENTE 00000010000000000000BRBRSRACNOR31410               0000000000                                            
0202LOTE PADRAO                   BANRISUL    PNA     N1 BRSR5       010VISTA          0000000000000000000000000000000000000000000000000000000000/000000000000063800000000000000000000000000000000000000000000000000000000000000000000MOEDA CORRENTE 00000010000000000000BRBRSRACNPA61450               0000000000                                            
0202LOTE PADRAO                   BANRISUL    PNB     N1 BRSR6       010VISTA          0000000000063000000000648000000006270000000063900000000647+002690000000064100000000647061420000000028517000000000182160320000000000000000000000MOEDA CORRENTE 00000010000000000000BRBRSRACNPB41440               0000000269                                            
0202LOTE PADRAO                   BANSANTANDERDR3        BSAN33      010VISTA          0000000000000000000000000000000000000000000000000000000000/000000000000190000000002199000000000000000000000000000000000000000000000000000000000MOEDA CORRENTE 00000010000000000000BRBSANBDR0021040               0000000000                                            
0202LOTE PADRAO                   BARDELLA    ON         BDLL3       010VISTA          0000000000000000000000000000000000000000000000000000000000/000000000000400000000000000000000000000000000000000000000000000000000000000000000000MOEDA CORRENTE 00000010000000000000BRBDLLACNOR11490               0000000000                                            
0202LOTE PADRAO                   BARDELLA    PN         BDLL4       010VISTA          0000000000000000000000000000000000000000000000000000000000/000000000000401000000004390000000000000000000000000000000000000000000000000000000000MOEDA CORRENTE 00000010000000000000BRBDLLACNPR81510               0000000000                                            
0202LOTE PADRAO                   BATTISTELLA ON         BTTL3       010VISTA          0000000000000000000000000000000000000000000000000000000000/000000000000100000000000000000000000000000000000000000000000000000000000000000000000MOEDA CORRENTE 00000010000000000000BRBTTLACNOR01060               0000000000                                            
0202LOTE PADRAO                   BATTISTELLA PN         BTTL4       010VISTA          0000000000120000000001374000000012000000000129900000001310-004720000000130000000001374000110000000000014000000000000181910000000000000000000000MOEDA CORRENTE 00000010000000000000BRBTTLACNPR71060               0000000472                                            
0202LOTE PADRAO                   BAUMER      ON         BALM3       010VISTA          0000000000000000000000000000000000000000000000000000000000/000000000000031600000000000000000000000000000000000000000000000000000000000000000000MOEDA CORRENTE 00000010000000000000BRBALMACNOR50440               0000000000                                            
0202LOTE PADRAO                   BAUMER      PN         BALM4       010VISTA          0000000000000000000000000000000000000000000000000000000000/000000000000090000000000910000000000000000000000000000000000000000000000000000000000MOEDA CORRENTE 00000010000000000000BRBALMACNPR20450               0000000000                                            
0202LOTE PADRAO                   BB ETF SP DVCI         BBSD11      010VISTA          0000000000321000000003211000000032100000000321000000003211+001320000000313200000000000000020000000000035000000000001123650000000000000000000000MOEDA CORRENTE 00000010000000000000BRBBSDCTF0001000               0000000132                                            
0202LOTE PADRAO                   BBSEGURIDADEON      NM.BBSE3       010VISTA          0000000000289900000002929000000028500000000289000000002920+002560000000291700000002920129880000000028075000000000811477460000000000000000000000MOEDA CORRENTE 00000010000000000000BRBBSEACNOR51050               0000000256                                            
0202LOTE PADRAO                   BERKSHIRE   DRN        BERK34      010VISTA          0000000000000000000000000000000000000000000000000000000000/000000000005095000000051250000000000000000000000000000000000000000000000000000000000MOEDA CORRENTE 00000010000000000000BRBERKBDR0021000               0000000000                                            
0202LOTE PADRAO                   BIC MONARK  ON         BMKS3       010VISTA          0000000002590000000025900000000258990000002590000000025899=000000000002495000000025899000030000000000000060000000000015539900000000000000000000MOEDA CORRENTE 00000010000000000000BRBMKSACNOR91570               0000000000                                            
0202LOTE PADRAO                   BIOMM       ON      MA BIOM3       010VISTA          0000000000000000000000000000000000000000000000000000000000/000000000000060500000000650000000000000000000000000000000000000000000000000000000000MOEDA CORRENTE 00000010000000000000BRBIOMACNOR21040               0000000000                                            
0202LOTE PADRAO                   BIOSEV      ON      NM BSEV3       010VISTA          0000000000000000000000000000000000000000000000000000000000/000000000000049000000000491000000000000000000000000000000000000000000000000000000000MOEDA CORRENTE 00000010000000000000BRBSEVACNOR31010               0000000000                                            
0202LOTE PADRAO                   BMFBOVESPA  ON      NM.BVMF3       010VISTA          0000000000125600000001258000000012150000000122600000001221-001530000000122100000001223234510000000152416000000001869336170000000000000000000000MOEDA CORRENTE 00000010000000000000BRBVMFACNOR31340               0000000153                                            
0202LOTE PADRAO                   BNY MELLON  DRN        BONY34      010VISTA          0000000000000000000000000000000000000000000000000000000000/000000000001680300000000000000000000000000000000000000000000000000000000000000000000MOEDA CORRENTE 00000010000000000000BRBONYBDR0011010               0000000000                                            
0202LOTE PADRAO                   BOEING      DRN        BOEI34      010VISTA          0000000005589400000055894000000558940000005589400000055894+001370000005854800000000000000010000000000001000000000000558940000000000000000000000MOEDA CORRENTE 00000010000000000000BRBOEIBDR0031150               0000000137                                            
0202LOTE PADRAO                   BOMBRIL     ON         BOBR3       010VISTA          0000000000000000000000000000000000000000000000000000000000/000000000000029300000000000000000000000000000000000000000000000000000000000000000000MOEDA CORRENTE 00000010000000000000BRBOBRACNOR61280               0000000000                                            
0202LOTE PADRAO                   BOMBRIL     PN         BOBR4       010VISTA          0000000000018600000000186000000001860000000018600000000186=000000000000018300000000186000020000000000008000000000000014880000000000000000000000MOEDA CORRENTE 00000010000000000000BRBOBRACNPR31280               0000000000                                            
0202LOTE PADRAO                   BOSTON PROP DRN        BOXP34      010VISTA          0000000000000000000000000000000000000000000000000000000000/000000000000458000000004658000000000000000000000000000000000000000000000000000000000MOEDA CORRENTE 00000010000000000000BRBOXPBDR0081010               0000000000                                            
0202LOTE PADRAO                   BR BROKERS  ON      NM BBRK3       010VISTA          0000000000016800000000172000000001650000000016700000000165=000000000000016400000000170006390000000011458000000000019145600000000000000000000000MOEDA CORRENTE 00000010000000000000BRBBRKACNOR41100               0000000000                                            
0202LOTE PADRAO                   BR INSURANCEON  EG  NM BRIN3       010VISTA          0000000000185000000001860000000016570000000176200000001860-001060000000186000000001940002930000000000971000000000017105480000000000000000000000MOEDA CORRENTE 00000010000000000000BRBRINACNOR31100               0000000106                                            
0202LOTE PADRAO                   BR MALLS PARON      NM.BRML3       010VISTA          0000000000139600000001396000000013220000000134700000001341-002470000000134100000001342117470000000029122000000000392233180000000000000000000000MOEDA CORRENTE 00000010000000000000BRBRMLACNOR91080               0000000247                                            
0202LOTE PADRAO                   BR PHARMA   ON      NM BPHA3       010VISTA          0000000000004000000000041000000000380000000003900000000040=000000000000003900000000040001920000000010048000000000003961910000000000000000000000MOEDA CORRENTE 00000010000000000000BRBPHAACNOR61030               0000000000                                            
0202LOTE PADRAO                   BR PROPERT  ON      NM.BRPR3       010VISTA          0000000000115800000001170000000011410000000115700000001150=000000000000114400000001155030880000000005132000000000059381320000000000000000000000MOEDA CORRENTE 00000010000000000000BRBRPRACNOR91150               0000000000                                            
0202LOTE PADRAO                   BRADESCO    ON      N1.BBDC3       010VISTA          0000000000256500000002619000000025580000000259200000002594+002400000000259400000002597079800000000016916000000000438410870000000000000000000000MOEDA CORRENTE 00000010000000000000BRBBDCACNOR16390               0000000240                                            
0202LOTE PADRAO                   BRADESCO    PN      N1.BBDC4       010VISTA          0000000000230000000002340000000022820000000231900000002340+003170000000233700000002340254350000000124590000000002889593590000000000000000000000MOEDA CORRENTE 00000010000000000000BRBBDCACNPR86390               0000000317                                            
0202LOTE PADRAO                   BRADESPAR   ON      N1 BRAP3       010VISTA          0000000000059000000000590000000005830000000058800000000583-001350000000058200000000583000430000000000043000000000000253050000000000000000000000MOEDA CORRENTE 00000010000000000000BRBRAPACNOR51290               0000000135                                            
0202LOTE PADRAO                   BRADESPAR   PN      N1.BRAP4       010VISTA          0000000000068300000000686000000006640000000067000000000664-001040000000066300000000664060970000000021803000000000146175140000000000000000000000MOEDA CORRENTE 00000010000000000000BRBRAPACNPR21290               0000000104                                            
0202LOTE PADRAO                   BRASIL      ON      NM.BBAS3       010VISTA          0000000000180500000001882000000017950000000184600000001873+005580000000187300000001874238350000000120493000000002224131360000000000000000000000MOEDA CORRENTE 00000010000000000000BRBBASACNOR32550               0000000558                                            
0202LOTE PADRAO                   BRASILAGRO  ON      NM AGRO3       010VISTA          0000000000113000000001132000000011210000000112700000001129-000080000000112200000001129000580000000000115000000000001296290000000000000000000000MOEDA CORRENTE 00000010000000000000BRAGROACNOR71040               0000000008                                            
0202LOTE PADRAO                   BRASKEM     ON      N1 BRKM3       010VISTA          0000000000160000000001615000000015830000000159400000001615+004870000000160000000001615000160000000000063000000000001004200000000000000000000000MOEDA CORRENTE 00000010000000000000BRBRKMACNOR11120               0000000487                                            
0202LOTE PADRAO                   BRASKEM     PNA     N1.BRKM5       010VISTA          0000000000253700000002649000000025200000000259100000002649+005280000000264100000002649132100000000028258000000000732061200000000000000000000000MOEDA CORRENTE 00000010000000000000BRBRKMACNPA41120               0000000528                                            
0202LOTE PADRAO                   BRASKEM     PNB     N1 BRKM6       010VISTA          0000000000000000000000000000000000000000000000000000000000/000000000000107000000001250000000000000000000000000000000000000000000000000000000000MOEDA CORRENTE 00000010000000000000BRBRKMACNPB21100               0000000000                                            
0202LOTE PADRAO                   BRASMOTOR   ON  ED     BMTO3       010VISTA          0000000000000000000000000000000000000000000000000000000000/000000000000042000000000539000000000000000000000000000000000000000000000000000000000MOEDA CORRENTE 00000010000000000000BRBMTOACNOR91860               0000000000                                            
0202LOTE PADRAO                   BRASMOTOR   PN  ED     BMTO4       010VISTA          0000000000000000000000000000000000000000000000000000000000/000000000000054500000000555000000000000000000000000000000000000000000000000000000000MOEDA CORRENTE 00000010000000000000BRBMTOACNPR60710               0000000000                                            
0202LOTE PADRAO                   BRB BANCO   ON         BSLI3       010VISTA          0000000000000000000000000000000000000000000000000000000000/000000000000250000000000000000000000000000000000000000000000000000000000000000000000MOEDA CORRENTE 00000010000000000000BRBSLIACNOR51550               0000000000                                            
0202LOTE PADRAO                   BRB BANCO   PN         BSLI4       010VISTA          0000000000000000000000000000000000000000000000000000000000/000000000000000000000002500000000000000000000000000000000000000000000000000000000000MOEDA CORRENTE 00000010000000000000BRBSLIACNPR21550               0000000000                                            
0202LOTE PADRAO                   BRF SA      ON      NM.BRFS3       010VISTA          0000000000559100000005697000000055910000000564500000005624+001330000000562400000005629125620000000025254000000001425545120000000000000000000000MOEDA CORRENTE 00000010000000000000BRBRFSACNOR81140               0000000133                                            
0202LOTE PADRAO                   BRISTOLMYERSDRN        BMYB34      010VISTA          0000000000000000000000000000000000000000000000000000000000/000000000002567800000000000000000000000000000000000000000000000000000000000000000000MOEDA CORRENTE 00000010000000000000BRBMYBBDR0001080               0000000000                                            
0202LOTE PADRAO                   BTG PACTUAL UNT        BBTG11      010VISTA          0000000000309700000003110000000030500000000307600000003050-000940000000305000000003066008300000000001844000000000056722100000000000000000000000MOEDA CORRENTE 00000010000000000000BRBBTGUNT0071120               0000000094                                            
0202LOTE PADRAO                   CAIXAETFXBOVCI         XBOV11      010VISTA          0000000000480000000004816000000047580000000479300000004803+001450000000478300000000000002660000000002038400000000097690498000000000000000000000MOEDA CORRENTE 00000010000000000000BRXBOVCTF0051000               0000000145                                            
0202LOTE PADRAO                   CAMBUCI     PN         CAMB4       010VISTA          0000000000009800000000100000000000950000000009600000000097-003960000000009300000000097000060000000000018000000000000017350000000000000000000000MOEDA CORRENTE 00000010000000000000BRCAMBACNPR11170               0000000396                                            
0202LOTE PADRAO                   CAPITALPART ON      MB CPTP3B      010VISTA          0000000000000000000000000000000000000000000000000000000000/000000000000000100000000090000000000000000000000000000000000000000000000000000000000MOEDA CORRENTE 00000010000000000000BRCPTPACNOR71050               0000000000                                            
0202LOTE PADRAO                   CASAN       ON         CASN3       010VISTA          0000000000000000000000000000000000000000000000000000000000/000000000000000000000001000000000000000000000000000000000000000000000000000000000000MOEDA CORRENTE 00000010000000000000BRCASNACNOR61110               0000000000                                            
0202LOTE PADRAO                   CASAN       PN         CASN4       010VISTA          0000000000000000000000000000000000000000000000000000000000/000000000000000000000000995000000000000000000000000000000000000000000000000000000000MOEDA CORRENTE 00000010000000000000BRCASNACNPR31110               0000000000                                            
0202LOTE PADRAO                   CATERPILLAR DRN        CATP34      010VISTA          0000000002603400000026034000000260340000002603400000026034-001300000002583900000026261000010000000000004000000000001041360000000000000000000000MOEDA CORRENTE 00000010000000000000BRCATPBDR0031170               0000000130                                            
0202LOTE PADRAO                   CCR SA      ON      NM.CCRO3       010VISTA          0000000000137100000001416000000013710000000140300000001405+003300000000140500000001406169610000000062707000000000879580340000000000000000000000MOEDA CORRENTE 00000010000000000000BRCCROACNOR21270               0000000330                                            
0202LOTE PADRAO                   CCX CARVAO  ON      NM CCXC3       010VISTA          0000000000034400000000358000000003440000000035200000000357+004380000000034600000000357000400000000000164000000000000577430000000000000000000000MOEDA CORRENTE 00000010000000000000BRCCXCACNOR51010               0000000438                                            
0202LOTE PADRAO                   CEB         ON         CEBR3       010VISTA          0000000000000000000000000000000000000000000000000000000000/000000000000105000000001550000000000000000000000000000000000000000000000000000000000MOEDA CORRENTE 00000010000000000000BRCEBRACNOR51150               0000000000                                            
0202LOTE PADRAO                   CEB         PNA        CEBR5       010VISTA          0000000000000000000000000000000000000000000000000000000000/000000000000213000000005000000000000000000000000000000000000000000000000000000000000MOEDA CORRENTE 00000010000000000000BRCEBRACNPA81140               0000000000                                            
0202LOTE PADRAO                   CEB         PNB        CEBR6       010VISTA          0000000000000000000000000000000000000000000000000000000000/000000000000130000000001630000000000000000000000000000000000000000000000000000000000MOEDA CORRENTE 00000010000000000000BRCEBRACNPB61140               0000000000                                            
0202LOTE PADRAO                   CEDRO       ON      N1 CEDO3       010VISTA          0000000000000000000000000000000000000000000000000000000000/000000000000050000000000800000000000000000000000000000000000000000000000000000000000MOEDA CORRENTE 00000010000000000000BRCEDOACNOR80960               0000000000                                            
0202LOTE PADRAO                   CEDRO       PN      N1 CEDO4       010VISTA          0000000000050000000000788000000005000000000064400000000788+057910000000037600000000789000020000000000002000000000000012880000000000000000000000MOEDA CORRENTE 00000010000000000000BRCEDOACNPR51280               0000005791                                            
0202LOTE PADRAO                   CEEE-D      ON      N1 CEED3       010VISTA          0000000000000000000000000000000000000000000000000000000000/000000000000005000000000109000000000000000000000000000000000000000000000000000000000MOEDA CORRENTE 00000010000000000000BRCEEDACNOR91010               0000000000                                            
0202LOTE PADRAO                   CEEE-D      PN      N1 CEED4       010VISTA          0000000000000000000000000000000000000000000000000000000000/000000000000006200000000115000000000000000000000000000000000000000000000000000000000MOEDA CORRENTE 00000010000000000000BRCEEDACNPR61010               0000000000                                            
0202LOTE PADRAO                   CEEE-GT     ON      N1 EEEL3       010VISTA          0000000000000000000000000000000000000000000000000000000000/000000000000005500000000066000000000000000000000000000000000000000000000000000000000MOEDA CORRENTE 00000010000000000000BREEELACNOR81020               0000000000                                            
0202LOTE PADRAO                   CEEE-GT     PN      N1 EEEL4       010VISTA          0000000000014000000000140000000001400000000014000000000140-006040000000011000000000140000020000000000002000000000000002800000000000000000000000MOEDA CORRENTE 00000010000000000000BREEELACNPR51020               0000000604                                            
0202LOTE PADRAO                   CEG         ON *       CEGR3       010VISTA          0000000000000000000000000000000000000000000000000000000000/000000000001000000000000000000000000000000000000000000000000000000000000000000000000MOEDA CORRENTE 00010000000000000000BRCEGRACNOR41270               0000000000                                            
0202LOTE PADRAO                   CELESC      ON      N2 CLSC3       010VISTA          0000000000000000000000000000000000000000000000000000000000/000000000000310000000000000000000000000000000000000000000000000000000000000000000000MOEDA CORRENTE 00000010000000000000BRCLSCACNOR61310               0000000000                                            
0202LOTE PADRAO                   CELESC      PN      N2 CLSC4       010VISTA          0000000000123900000001239000000012000000000120100000001200-003140000000119400000001200000590000000001681000000000020197010000000000000000000000MOEDA CORRENTE 00000010000000000000BRCLSCACNPR31100               0000000314                                            
0202LOTE PADRAO                   CELGPAR     ON         GPAR3       010VISTA          0000000000000000000000000000000000000000000000000000000000/000000000000020100000001200000000000000000000000000000000000000000000000000000000000MOEDA CORRENTE 00000010000000000000BRGPARACNOR41020               0000000000                                            
0202LOTE PADRAO                   CELPA       ON         CELP3       010VISTA          0000000000000000000000000000000000000000000000000000000000/000000000000016000000000179000000000000000000000000000000000000000000000000000000000MOEDA CORRENTE 00000010000000000000BRCELPACNOR81130               0000000000                                            
0202LOTE PADRAO                   CELPA       PNA        CELP5       010VISTA          0000000000000000000000000000000000000000000000000000000000/000000000000015000000000180000000000000000000000000000000000000000000000000000000000MOEDA CORRENTE 00000010000000000000BRCELPACNPA11150               0000000000                                            
0202LOTE PADRAO                   CELPA       PNB        CELP6       010VISTA          0000000000000000000000000000000000000000000000000000000000/000000000000010400000000000000000000000000000000000000000000000000000000000000000000MOEDA CORRENTE 00000010000000000000BRCELPACNPB91150               0000000000                                            
0202LOTE PADRAO                   CELPA       PNC        CELP7       010VISTA          0000000000000000000000000000000000000000000000000000000000/000000000000010000000000200000000000000000000000000000000000000000000000000000000000MOEDA CORRENTE 00000010000000000000BRCELPACNPC71150               0000000000                                            
0202LOTE PADRAO                   CELPE       ON         CEPE3       010VISTA          0000000000000000000000000000000000000000000000000000000000/000000000000240900000000000000000000000000000000000000000000000000000000000000000000MOEDA CORRENTE 00000010000000000000BRCEPEACNOR31540               0000000000                                            
0202LOTE PADRAO                   CELPE       PNA        CEPE5       010VISTA          0000000000000000000000000000000000000000000000000000000000/000000000000190100000002500000000000000000000000000000000000000000000000000000000000MOEDA CORRENTE 00000010000000000000BRCEPEACNPA61540               0000000000                                            
0202LOTE PADRAO                   CELPE       PNB        CEPE6       010VISTA          0000000000000000000000000000000000000000000000000000000000/000000000000000000000001900000000000000000000000000000000000000000000000000000000000MOEDA CORRENTE 00000010000000000000BRCEPEACNPB41540               0000000000                                            
0202LOTE PADRAO                   CELUL IRANI ON  ED     RANI3       010VISTA          0000000000033400000000334000000003340000000033400000000334=000000000000030000000000400000010000000000001000000000000003340000000000000000000000MOEDA CORRENTE 00000010000000000000BRRANIACNOR50490               0000000000                                            
0202LOTE PADRAO                   CELUL IRANI PN  ED     RANI4       010VISTA          0000000000000000000000000000000000000000000000000000000000/000000000000030000000000380000000000000000000000000000000000000000000000000000000000MOEDA CORRENTE 00000010000000000000BRRANIACNPR20500               0000000000                                            
0202LOTE PADRAO                   CEMAR       ON      MB ENMA3B      010VISTA          0000000000180000000001800000000018000000000180000000001800=000000000000160000000001850000010000000000002000000000000036000000000000000000000000MOEDA CORRENTE 00000010000000000000BRENMAACNOR51130               0000000000                                            
0202LOTE PADRAO                   CEMAR       PNB     MB ENMA6B      010VISTA          0000000000000000000000000000000000000000000000000000000000/000000000000228300000000000000000000000000000000000000000000000000000000000000000000MOEDA CORRENTE 00000010000000000000BRENMAACNPB61130               0000000000                                            
0202LOTE PADRAO                   CEMEPE      ON         MAPT3       010VISTA          0000000000000000000000000000000000000000000000000000000000/000000000000000500000000121000000000000000000000000000000000000000000000000000000000MOEDA CORRENTE 00000010000000000000BRMAPTACNOR81050               0000000000                                            
0202LOTE PADRAO                   CEMEPE      PN         MAPT4       010VISTA          0000000000002900000000029000000000290000000002900000000029-017140000000002900000000033000030000000000017000000000000004930000000000000000000000MOEDA CORRENTE 00000010000000000000BRMAPTACNPR51050               0000001714                                            
0202LOTE PADRAO                   CEMIG       ON      N1 CMIG3       010VISTA          0000000000068400000000700000000006840000000068900000000685+000290000000068500000000698003100000000001451000000000009992660000000000000000000000MOEDA CORRENTE 00000010000000000000BRCMIGACNOR62150               0000000029                                            
0202LOTE PADRAO                   CEMIG       PN      N1.CMIG4       010VISTA          0000000000072700000000730000000007130000000072400000000726+000970000000072500000000726067100000000032203000000000233268990000000000000000000000MOEDA CORRENTE 00000010000000000000BRCMIGACNPR32150               0000000097                                            
0202LOTE PADRAO                   CESP        ON      N1 CESP3       010VISTA          0000000000120000000001205000000012000000000120500000001205+000410000000120000000001214000020000000000010000000000000120450000000000000000000000MOEDA CORRENTE 00000010000000000000BRCESPACNOR31630               0000000041                                            
0202LOTE PADRAO                   CESP        PNA     N1 CESP5       010VISTA          0000000000000000000000000000000000000000000000000000000000/000000000000140000000001623000000000000000000000000000000000000000000000000000000000MOEDA CORRENTE 00000010000000000000BRCESPACNPA61110               0000000000                                            
0202LOTE PADRAO                   CESP        PNB     N1.CESP6       010VISTA          0000000000154100000001605000000015300000000156300000001587+003050000000158700000001594047470000000010361000000000161972760000000000000000000000MOEDA CORRENTE 00000010000000000000BRCESPACNPB41220               0000000305                                            
0202LOTE PADRAO                   CETIP       ON      NM.CTIP3       010VISTA          0000000000389100000003917000000037770000000381400000003810-001390000000380500000003814102820000000021354000000000814386680000000000000000000000MOEDA CORRENTE 00000010000000000000BRCTIPACNOR21350               0000000139                                            
0202LOTE PADRAO                   CHEVRON     DRN ED     CHVX34      010VISTA          0000000000000000000000000000000000000000000000000000000000/000000000001680100000017085000000000000000000000000000000000000000000000000000000000MOEDA CORRENTE 00000010000000000000BRCHVXBDR0081190               0000000000                                            
0202LOTE PADRAO                   CIA HERING  ON      NM.HGTX3       010VISTA          0000000000163900000001666000000016230000000164600000001655+001650000000165300000001655035970000000008554000000000140820910000000000000000000000MOEDA CORRENTE 00000010000000000000BRHGTXACNOR91310               0000000165                                            
0202LOTE PADRAO                   CIELO       ON      NM.CIEL3       010VISTA          0000000000371100000003782000000036900000000374500000003769+002410000000376800000003769146810000000068450000000002563402950000000000000000000000MOEDA CORRENTE 00000010000000000000BRCIELACNOR31180               0000000241                                            
0202LOTE PADRAO                   CISCO       DRN        CSCO34      010VISTA          0000000001034500000010365000000103450000001035600000010352-000560000001015400000010346000030000000000017000000000001760600000000000000000000000MOEDA CORRENTE 00000010000000000000BRCSCOBDR0041190               0000000056                                            
0202LOTE PADRAO                   CITIGROUP   DRN        CTGP34      010VISTA          0000000002067500000020692000000206750000002068300000020692-000420000002037600000020729000040000000000011000000000002275100000000000000000000000MOEDA CORRENTE 00000010000000000000BRCTGPBDR0001200               0000000042                                            
0202LOTE PADRAO                   COBRASMA    ON         CBMA3       010VISTA          0000000000000100000000001000000000010000000000100000000001-050000000000000100000000002000120000000002000000000000000020000000000000000000000000MOEDA CORRENTE 00000010000000000000BRCBMAACNOR41240               0000005000                                            
0202LOTE PADRAO                   COBRASMA    PN         CBMA4       010VISTA          0000000000000000000000000000000000000000000000000000000000/000000000000000100000000002000000000000000000000000000000000000000000000000000000000MOEDA CORRENTE 00000010000000000000BRCBMAACNPR11240               0000000000                                            
0202LOTE PADRAO                   COCA COLA   DRN        COCA34      010VISTA          0000000000000000000000000000000000000000000000000000000000/000000000001594700000016215000000000000000000000000000000000000000000000000000000000MOEDA CORRENTE 00000010000000000000BRCOCABDR0021160               0000000000                                            
0202LOTE PADRAO                   COELBA      ON         CEEB3       010VISTA          0000000000000000000000000000000000000000000000000000000000/000000000000000000000002600000000000000000000000000000000000000000000000000000000000MOEDA CORRENTE 00000010000000000000BRCEEBACNOR31660               0000000000                                            
0202LOTE PADRAO                   COELBA      PNA        CEEB5       010VISTA          0000000000000000000000000000000000000000000000000000000000/000000000000000000000002685000000000000000000000000000000000000000000000000000000000MOEDA CORRENTE 00000010000000000000BRCEEBACNPA61600               0000000000                                            
0202LOTE PADRAO                   COELCE      ON         COCE3       010VISTA          0000000000000000000000000000000000000000000000000000000000/000000000000345000000003760000000000000000000000000000000000000000000000000000000000MOEDA CORRENTE 00000010000000000000BRCOCEACNOR01340               0000000000                                            
0202LOTE PADRAO                   COELCE      PNA        COCE5       010VISTA          0000000000365200000003800000000036500000000372900000003800+002700000000377000000003800000750000000000106000000000003953090000000000000000000000MOEDA CORRENTE 00000010000000000000BRCOCEACNPA31350               0000000270                                            
0202LOTE PADRAO                   COELCE      PNB        COCE6       010VISTA          0000000000000000000000000000000000000000000000000000000000/000000000000282600000000000000000000000000000000000000000000000000000000000000000000MOEDA CORRENTE 00000010000000000000BRCOCEACNPB11350               0000000000                                            
0202LOTE PADRAO                   COLGATE     DRN        COLG34      010VISTA          0000000000000000000000000000000000000000000000000000000000/000000000002447200000024880000000000000000000000000000000000000000000000000000000000MOEDA CORRENTE 00000010000000000000BRCOLGBDR0001180               0000000000                                            
0202LOTE PADRAO                   COMCAST     DRN        CMCS34      010VISTA          0000000002346600000023488000000234660000002348300000023488-000330000002311100000023514000030000000000019000000000004461720000000000000000000000MOEDA CORRENTE 00000010000000000000BRCMCSBDR0081150               0000000033                                            
0202LOTE PADRAO                   COMGAS      ON         CGAS3       010VISTA          0000000000385000000003850000000038500000000385000000003850+002660000000300000000003899000040000000000005000000000000192500000000000000000000000MOEDA CORRENTE 00000010000000000000BRCGASACNOR01360               0000000266                                            
0202LOTE PADRAO                   COMGAS      PNA        CGAS5       010VISTA          0000000000406200000004062000000040250000000404100000004045-000120000000402700000004045000770000000000187000000000007555870000000000000000000000MOEDA CORRENTE 00000010000000000000BRCGASACNPA31330               0000000012                                            
0202LOTE PADRAO                   CONST A LINDON         CALI3       010VISTA          0000000000000000000000000000000000000000000000000000000000/000000000000500000000200000000000000000000000000000000000000000000000000000000000000MOEDA CORRENTE 00000010000000000000BRCALIACNOR11290               0000000000                                            
0202LOTE PADRAO                   CONST A LINDPN         CALI4       010VISTA          0000000000000000000000000000000000000000000000000000000000/000000000000500000000024000000000000000000000000000000000000000000000000000000000000MOEDA CORRENTE 00000010000000000000BRCALIACNPR81330               0000000000                                            
0202LOTE PADRAO                   CONTAX      ON      N2 CTAX3       010VISTA          0000000000001700000000017000000000150000000001600000000016=000000000000001600000000017000180000000000296000000000000048430000000000000000000000MOEDA CORRENTE 00000010000000000000BRCTAXACNOR31160               0000000000                                            
0202LOTE PADRAO                   CONTAX      PN      N2 CTAX4       010VISTA          0000000000001700000000017000000000150000000001600000000015+007140000000001500000000016000380000000000978000000000000152310000000000000000000000MOEDA CORRENTE 00000010000000000000BRCTAXACNPR01170               0000000714                                            
0202LOTE PADRAO                   CONTAX      UNT     N2 CTAX11      010VISTA          0000000000007100000000076000000000690000000007300000000075+007140000000007200000000076001680000000003222000000000002367530000000000000000000000MOEDA CORRENTE 00000010000000000000BRCTAXCDAM191030               0000000714                                            
0202LOTE PADRAO                   COPASA      ON  EJ  NM CSMG3       010VISTA          0000000000157000000001659000000015630000000162000000001650+006100000000163100000001650010330000000001810000000000029327750000000000000000000000MOEDA CORRENTE 00000010000000000000BRCSMGACNOR51360               0000000610                                            
0202LOTE PADRAO                   COPEL       ON      N1 CPLE3       010VISTA          0000000000204300000002059000000020100000000203000000002030-000240000000202700000002030002610000000000590000000000011977210000000000000000000000MOEDA CORRENTE 00000010000000000000BRCPLEACNOR81320               0000000024                                            
0202LOTE PADRAO                   COPEL       PNA     N1 CPLE5       010VISTA          0000000000000000000000000000000000000000000000000000000000/000000000000364000000000000000000000000000000000000000000000000000000000000000000000MOEDA CORRENTE 00000010000000000000BRCPLEACNPA11300               0000000000                                            
0202LOTE PADRAO                   COPEL       PNB     N1.CPLE6       010VISTA          0000000000306700000003105000000030110000000304700000003040=000000000000304000000003056028230000000004029000000000122757320000000000000000000000MOEDA CORRENTE 00000010000000000000BRCPLEACNPB91290               0000000000                                            
0202LOTE PADRAO                   COPHILLIPS  DRN        COPH34      010VISTA          0000000000504300000005043000000050430000000504300000005043-001610000000494200000005044000010000000000001000000000000050430000000000000000000000MOEDA CORRENTE 00000010000000000000BRCOPHBDR0091160               0000000161                                            
0202LOTE PADRAO                   COR RIBEIRO PN         CORR4       010VISTA          0000000000000000000000000000000000000000000000000000000000/000000000000000000000014500000000000000000000000000000000000000000000000000000000000MOEDA CORRENTE 00000010000000000000BRCORRACNPR70170               0000000000                                            
0202LOTE PADRAO                   COSAN       ON      NM.CSAN3       010VISTA          0000000000256000000002601000000025320000000256300000002600+001480000000258600000002600074330000000013815000000000354111720000000000000000000000MOEDA CORRENTE 00000010000000000000BRCSANACNOR61130               0000000148                                            
0202LOTE PADRAO                   COSAN LOG   ON      NM RLOG3       010VISTA          0000000000011400000000116000000001100000000011300000000116+001750000000011500000000116015420000000012532000000000014162890000000000000000000000MOEDA CORRENTE 00000010000000000000BRRLOGACNOR41010               0000000175                                            
0202LOTE PADRAO                   COSAN LTD   DR3        CZLT33      010VISTA          0000000000141700000001450000000013710000000142300000001446+002620000000142200000001446008060000000001217000000000017313700000000000000000000000MOEDA CORRENTE 00000010000000000000BRCZLTBDR0091080               0000000262                                            
0202LOTE PADRAO                   COSERN      ON         CSRN3       010VISTA          0000000000000000000000000000000000000000000000000000000000/000000000000070100000001503000000000000000000000000000000000000000000000000000000000MOEDA CORRENTE 00000010000000000000BRCSRNACNOR01560               0000000000                                            
0202LOTE PADRAO                   COSERN      PNA        CSRN5       010VISTA          0000000000000000000000000000000000000000000000000000000000/000000000000070100000000000000000000000000000000000000000000000000000000000000000000MOEDA CORRENTE 00000010000000000000BRCSRNACNPA31560               0000000000                                            
0202LOTE PADRAO                   COSERN      PNB        CSRN6       010VISTA          0000000000000000000000000000000000000000000000000000000000/000000000000070100000000000000000000000000000000000000000000000000000000000000000000MOEDA CORRENTE 00000010000000000000BRCSRNACNPB11570               0000000000                                            
0202LOTE PADRAO                   COTEMINAS   ON         CTNM3       010VISTA          0000000000000000000000000000000000000000000000000000000000/000000000000021000000000349000000000000000000000000000000000000000000000000000000000MOEDA CORRENTE 00000010000000000000BRCTNMACNOR91300               0000000000                                            
0202LOTE PADRAO                   COTEMINAS   PN         CTNM4       010VISTA          0000000000025000000000250000000002400000000025000000000250+005930000000024000000000250000320000000003672000000000009172250000000000000000000000MOEDA CORRENTE 00000010000000000000BRCTNMACNPR61290               0000000593                                            
0202LOTE PADRAO                   COTY INC    DRN        COTY34      010VISTA          0000000000000000000000000000000000000000000000000000000000/000000000000494900000005054000000000000000000000000000000000000000000000000000000000MOEDA CORRENTE 00000010000000000000BRCOTYBDR0061010               0000000000                                            
0202LOTE PADRAO                   CPFL ENERGIAON      NM.CPFE3       010VISTA          0000000000168500000001685000000016480000000165800000001649-001190000000164700000001649085990000000017615000000000292078110000000000000000000000MOEDA CORRENTE 00000010000000000000BRCPFEACNOR01250               0000000119                                            
0202LOTE PADRAO                   CPFL RENOVAVON      NM CPRE3       010VISTA          0000000000113400000001134000000011200000000112800000001120-001320000000112000000001134000040000000000005000000000000056420000000000000000000000MOEDA CORRENTE 00000010000000000000BRCPREACNOR51000               0000000132                                            
0202LOTE PADRAO                   CR2         ON      NM CRDE3       010VISTA          0000000000000000000000000000000000000000000000000000000000/000000000000022500000000240000000000000000000000000000000000000000000000000000000000MOEDA CORRENTE 00000010000000000000BRCRDEACNOR11090               0000000000                                            
0202LOTE PADRAO                   CREMER      ON         CREM3       010VISTA          0000000000000000000000000000000000000000000000000000000000/000000000000000000000001889000000000000000000000000000000000000000000000000000000000MOEDA CORRENTE 00000010000000000000BRCREMACNOR21720               0000000000                                            
0202LOTE PADRAO                   CRISTAL     ON         CRPG3       010VISTA          0000000000000000000000000000000000000000000000000000000000/000000000000022100000000000000000000000000000000000000000000000000000000000000000000MOEDA CORRENTE 00000010000000000000BRCRPGACNOR01000               0000000000                                            
0202LOTE PADRAO                   CRISTAL     PNA        CRPG5       010VISTA          0000000000035000000000350000000003500000000035000000000350+000280000000032000000000350000030000000000004000000000000014000000000000000000000000MOEDA CORRENTE 00000010000000000000BRCRPGACNPA31000               0000000028                                            
0202LOTE PADRAO                   CRISTAL     PNB        CRPG6       010VISTA          0000000000038000000000380000000003800000000038000000000380+002980000000031000000000380000030000000000010000000000000038000000000000000000000000MOEDA CORRENTE 00000010000000000000BRCRPGACNPB11000               0000000298                                            
0202LOTE PADRAO                   CSU CARDSYSTON      NM CARD3       010VISTA          0000000000030800000000317000000003050000000031100000000309+000320000000030900000000315000780000000000904000000000002813260000000000000000000000MOEDA CORRENTE 00000010000000000000BRCARDACNOR91070               0000000032                                            
0202LOTE PADRAO                   CVC BRASIL  ON      NM CVCB3       010VISTA          0000000000146500000001465000000014050000000143200000001430-001370000000143000000001434020180000000004388000000000062816020000000000000000000000MOEDA CORRENTE 00000010000000000000BRCVCBACNOR11030               0000000137                                            
0202LOTE PADRAO                   CYRE COM-CCPON      NM CCPR3       010VISTA          0000000000092000000000920000000009200000000092000000000920=000000000000091000000000920000010000000000006000000000000055200000000000000000000000MOEDA CORRENTE 00000010000000000000BRCCPRACNOR91100               0000000000                                            
0202LOTE PADRAO                   CYRELA REALTON      NM.CYRE3       010VISTA          0000000000084400000000855000000008410000000084600000000845=000000000000084400000000845076240000000029194000000000246893710000000000000000000000MOEDA CORRENTE 00000010000000000000BRCYREACNOR71270               0000000000                                            
0202LOTE PADRAO                   D H B       ON         DHBI3       010VISTA          0000000000000000000000000000000000000000000000000000000000/000000000000000000000005000000000000000000000000000000000000000000000000000000000000MOEDA CORRENTE 00000010000000000000BRDHBIACNOR51140               0000000000                                            
0202LOTE PADRAO                   D H B       PN         DHBI4       010VISTA          0000000000000000000000000000000000000000000000000000000000/000000000000010000000000160000000000000000000000000000000000000000000000000000000000MOEDA CORRENTE 00000010000000000000BRDHBIACNPR21140               0000000000                                            
0202LOTE PADRAO                   DANAHER CORPDRN        DHER34      010VISTA          0000000000904400000009044000000090440000000904400000009044-000610000000893700000009104000010000000000001000000000000090440000000000000000000000MOEDA CORRENTE 00000010000000000000BRDHERBDR0041010               0000000061                                            
0202LOTE PADRAO                   DASA        ON      NM DASA3       010VISTA          0000000000089500000000933000000008830000000090600000000933+004240000000091500000000933000630000000000354000000000003206330000000000000000000000MOEDA CORRENTE 00000010000000000000BRDASAACNOR11100               0000000424                                            
0202LOTE PADRAO                   DAYCOVAL    PN      N2 DAYC4       010VISTA          0000000000086000000000877000000008600000000086300000000863-000230000000086300000000878000140000000000056000000000000483180000000000000000000000MOEDA CORRENTE 00000010000000000000BRDAYCACNPR21370               0000000023                                            
0202LOTE PADRAO                   DIMED       ON         PNVL3       010VISTA          0000000002310000000023200000000230800000002316300000023200+000650000002253000000023280000120000000000012000000000002779610000000000000000000000MOEDA CORRENTE 00000010000000000000BRPNVLACNOR91850               0000000065                                            
0202LOTE PADRAO                   DIMED       PN         PNVL4       010VISTA          0000000000000000000000000000000000000000000000000000000000/000000000001000000000014700000000000000000000000000000000000000000000000000000000000MOEDA CORRENTE 00000010000000000000BRPNVLACNPR61850               0000000000                                            
0202LOTE PADRAO                   DIRECIONAL  ON      NM DIRR3       010VISTA          0000000000038600000000388000000003660000000037800000000388+001830000000037600000000388008530000000003562000000000013468480000000000000000000000MOEDA CORRENTE 00000010000000000000BRDIRRACNOR01080               0000000183                                            
0202LOTE PADRAO                   DOC IMBITUBAON         IMBI3       010VISTA          0000000000000000000000000000000000000000000000000000000000/000000000000006500000000097000000000000000000000000000000000000000000000000000000000MOEDA CORRENTE 00000010000000000000BRIMBIACNOR40220               0000000000                                            
0202LOTE PADRAO                   DOC IMBITUBAPN         IMBI4       010VISTA          0000000000006700000000070000000000670000000006800000000069-009210000000006700000000075000060000000000060000000000000040700000000000000000000000MOEDA CORRENTE 00000010000000000000BRIMBIACNPR11140               0000000921                                            
0202LOTE PADRAO                   DOHLER      ON         DOHL3       010VISTA          0000000000000000000000000000000000000000000000000000000000/000000000000038000000000800000000000000000000000000000000000000000000000000000000000MOEDA CORRENTE 00000010000000000000BRDOHLACNOR20540               0000000000                                            
0202LOTE PADRAO                   DOHLER      PN         DOHL4       010VISTA          0000000000040100000000425000000004010000000041800000000425-001160000000042500000000440000030000000000013000000000000054290000000000000000000000MOEDA CORRENTE 00000010000000000000BRDOHLACNPR90570               0000000116                                            
0202LOTE PADRAO                   DOW CHEMICALDRN        DOWB34      010VISTA          0000000000000000000000000000000000000000000000000000000000/000000000001849400000000000000000000000000000000000000000000000000000000000000000000MOEDA CORRENTE 00000010000000000000BRDOWBBDR0061080               0000000000                                            
0202LOTE PADRAO                   DTCOM-DIRECTON         DTCY3       010VISTA          0000000000004700000000047000000000460000000004600000000047-002080000000004500000000047000030000000000014000000000000006480000000000000000000000MOEDA CORRENTE 00000010000000000000BRDTCYACNOR51070               0000000208                                            
0202LOTE PADRAO                   DUFRY AG    DR3        DAGB33      010VISTA          0000000004550000000045500000000441000000004469000000044550-001430000004430000000044550005270000000000114260000000051062735400000000000000000000MOEDA CORRENTE 00000010000000000000BRDAGBBDR0081020               0000000143                                            
0202LOTE PADRAO                   DURATEX     ON      NM DTEX3       010VISTA          0000000000067600000000690000000006750000000068400000000685+001630000000068500000000688026250000000008320000000000056910930000000000000000000000MOEDA CORRENTE 00000010000000000000BRDTEXACNOR31220               0000000163                                            
0202LOTE PADRAO                   EBAY        DRN        EBAY34      010VISTA          0000000000000000000000000000000000000000000000000000000000/000000000000530400000005413000000000000000000000000000000000000000000000000000000000MOEDA CORRENTE 00000010000000000000BREBAYBDR0091010               0000000000                                            
0202LOTE PADRAO                   ECORODOVIAS ON      NM.ECOR3       010VISTA          0000000000058900000000615000000005880000000060500000000605+002890000000060500000000609101520000000030311000000000183334480000000000000000000000MOEDA CORRENTE 00000010000000000000BRECORACNOR81110               0000000289                                            
0202LOTE PADRAO                   ELEKEIROZ   ON         ELEK3       010VISTA          0000000000000000000000000000000000000000000000000000000000/000000000000040000000000850000000000000000000000000000000000000000000000000000000000MOEDA CORRENTE 00000010000000000000BRELEKACNOR51190               0000000000                                            
0202LOTE PADRAO                   ELEKEIROZ   PN         ELEK4       010VISTA          0000000000000000000000000000000000000000000000000000000000/000000000000050200000000699000000000000000000000000000000000000000000000000000000000MOEDA CORRENTE 00000010000000000000BRELEKACNPR21200               0000000000                                            
0202LOTE PADRAO                   ELEKTRO     ON         EKTR3       010VISTA          0000000000000000000000000000000000000000000000000000000000/000000000000100000000002900000000000000000000000000000000000000000000000000000000000MOEDA CORRENTE 00000010000000000000BREKTRACNOR01350               0000000000                                            
0202LOTE PADRAO                   ELEKTRO     PN         EKTR4       010VISTA          0000000000000000000000000000000000000000000000000000000000/000000000000161000000002299000000000000000000000000000000000000000000000000000000000MOEDA CORRENTE 00000010000000000000BREKTRACNPR71350               0000000000                                            
0202LOTE PADRAO                   ELETROBRAS  ON      N1.ELET3       010VISTA          0000000000061300000000629000000006100000000062200000000629+003110000000062400000000629036170000000009938000000000061832030000000000000000000000MOEDA CORRENTE 00000010000000000000BRELETACNOR61520               0000000311                                            
0202LOTE PADRAO                   ELETROBRAS  PNA     N1 ELET5       010VISTA          0000000000000000000000000000000000000000000000000000000000/000000000000186200000000000000000000000000000000000000000000000000000000000000000000MOEDA CORRENTE 00000010000000000000BRELETACNPA90680               0000000000                                            
0202LOTE PADRAO                   ELETROBRAS  PNB     N1 ELET6       010VISTA          0000000000106800000001108000000010680000000109300000001108+004130000000110000000001108049200000000018878000000000206336700000000000000000000000MOEDA CORRENTE 00000010000000000000BRELETACNPB70680               0000000413                                            
0202LOTE PADRAO                   ELETROPAR   ON         LIPR3       010VISTA          0000000000000000000000000000000000000000000000000000000000/000000000000000000000004888000000000000000000000000000000000000000000000000000000000MOEDA CORRENTE 00000010000000000000BRLIPRACNOR71120               0000000000                                            
0202LOTE PADRAO                   ELETROPAULO ON      N2 ELPL3       010VISTA          0000000000000000000000000000000000000000000000000000000000/000000000000080000000001499000000000000000000000000000000000000000000000000000000000MOEDA CORRENTE 00000010000000000000BRELPLACNOR91280               0000000000                                            
0202LOTE PADRAO                   ELETROPAULO PN      N2 ELPL4       010VISTA          0000000000078600000000800000000007760000000078600000000800+002560000000080000000000801026650000000007762000000000061042810000000000000000000000MOEDA CORRENTE 00000010000000000000BRELPLACNPR61190               0000000256                                            
0202LOTE PADRAO                   EMAE        PN         EMAE4       010VISTA          0000000000037600000000376000000003750000000037600000000375-018300000000037500000000399000090000000000014000000000000052590000000000000000000000MOEDA CORRENTE 00000010000000000000BREMAEACNPR11070               0000001830                                            
0202LOTE PADRAO                   EMBRAER     ON      NM.EMBR3       010VISTA          0000000000290000000002919000000028760000000290100000002915+001420000000291000000002915078080000000019470000000000564902990000000000000000000000MOEDA CORRENTE 00000010000000000000BREMBRACNOR41750               0000000142                                            
0202LOTE PADRAO                   ENCORPAR    ON         ECPR3       010VISTA          0000000000000000000000000000000000000000000000000000000000/000000000000100000000007000000000000000000000000000000000000000000000000000000000000MOEDA CORRENTE 00000010000000000000BRECPRACNOR51090               0000000000                                            
0202LOTE PADRAO                   ENCORPAR    PN         ECPR4       010VISTA          0000000000000000000000000000000000000000000000000000000000/000000000000000000000003855000000000000000000000000000000000000000000000000000000000MOEDA CORRENTE 00000010000000000000BRECPRACNPR21090               0000000000                                            
0202LOTE PADRAO                   ENERGIAS BR ON      NM.ENBR3       010VISTA          0000000000126200000001277000000012540000000126600000001273+001590000000126300000001273074350000000012158000000000153869240000000000000000000000MOEDA CORRENTE 00000010000000000000BRENBRACNOR21190               0000000159                                            
0202LOTE PADRAO                   ENERGISA    ON         ENGI3       010VISTA          0000000000000000000000000000000000000000000000000000000000/000000000000025000000000289000000000000000000000000000000000000000000000000000000000MOEDA CORRENTE 00000010000000000000BRENGIACNOR01260               0000000000                                            
0202LOTE PADRAO                   ENERGISA    PN         ENGI4       010VISTA          0000000000000000000000000000000000000000000000000000000000/000000000000026000000000290000000000000000000000000000000000000000000000000000000000MOEDA CORRENTE 00000010000000000000BRENGIACNPR71220               0000000000                                            
0202LOTE PADRAO                   ENERGISA    UNT        ENGI11      010VISTA          0000000000135000000001350000000013500000000135000000001350-003570000000130000000001400000030000000000053000000000000715500000000000000000000000MOEDA CORRENTE 00000010000000000000BRENGICDAM161160               0000000357                                            
0202LOTE PADRAO                   ENERGISA MT ON         ENMT3       010VISTA          0000000000000000000000000000000000000000000000000000000000/000000000000000000000000850000000000000000000000000000000000000000000000000000000000MOEDA CORRENTE 00000010000000000000BRENMTACNOR51030               0000000000                                            
0202LOTE PADRAO                   ENERGISA MT PN         ENMT4       010VISTA          0000000000000000000000000000000000000000000000000000000000/000000000000000000000001499000000000000000000000000000000000000000000000000000000000MOEDA CORRENTE 00000010000000000000BRENMTACNPR21030               0000000000                                            
0202LOTE PADRAO                   EQUATORIAL  ON      NM.EQTL3       010VISTA          0000000000374200000003764000000036640000000369900000003697-000290000000369700000003708053720000000016644000000000615603550000000000000000000000MOEDA CORRENTE 00000010000000000000BREQTLACNOR01170               0000000029                                            
0202LOTE PADRAO                   ESTACIO PARTON      NM.ESTC3       010VISTA          0000000000167700000001685000000016350000000165900000001653+000790000000165200000001653051210000000012996000000000215558950000000000000000000000MOEDA CORRENTE 00000010000000000000BRESTCACNOR51100               0000000079                                            
0202LOTE PADRAO                   ESTRELA     ON         ESTR3       010VISTA          0000000000000000000000000000000000000000000000000000000000/000000000000020000000000000000000000000000000000000000000000000000000000000000000000MOEDA CORRENTE 00000010000000000000BRESTRACNOR31420               0000000000                                            
0202LOTE PADRAO                   ESTRELA     PN         ESTR4       010VISTA          0000000000004000000000040000000000400000000004000000000040=000000000000004000000000043000040000000000402000000000000160800000000000000000000000MOEDA CORRENTE 00000010000000000000BRESTRACNPR01420               0000000000                                            
0202LOTE PADRAO                   ETERNIT     ON      NM ETER3       010VISTA          0000000000022800000000230000000002250000000022800000000229=000000000000022700000000230001800000000001278000000000002917520000000000000000000000MOEDA CORRENTE 00000010000000000000BRETERACNOR32290               0000000000                                            
0202LOTE PADRAO                   EUCATEX     ON      N1 EUCA3       010VISTA          0000000000000000000000000000000000000000000000000000000000/000000000000030000000000000000000000000000000000000000000000000000000000000000000000MOEDA CORRENTE 00000010000000000000BREUCAACNOR11470               0000000000                                            
0202LOTE PADRAO                   EUCATEX     PN      N1 EUCA4       010VISTA          0000000000025700000000279000000002530000000026700000000279+008980000000026400000000279000240000000000042000000000000112120000000000000000000000MOEDA CORRENTE 00000010000000000000BREUCAACNPR80340               0000000898                                            
0202LOTE PADRAO                   EVEN        ON      NM EVEN3       010VISTA          0000000000041600000000428000000004160000000042100000000422+002170000000042200000000424021200000000008960000000000037762730000000000000000000000MOEDA CORRENTE 00000010000000000000BREVENACNOR81090               0000000217                                            
0202LOTE PADRAO                   EVORA       ON         PTPA3       010VISTA          0000000000000000000000000000000000000000000000000000000000/000000000000076900000000000000000000000000000000000000000000000000000000000000000000MOEDA CORRENTE 00000010000000000000BRPTPAACNOR11730               0000000000                                            
0202LOTE PADRAO                   EVORA       PN         PTPA4       010VISTA          0000000000000000000000000000000000000000000000000000000000/000000000000310000000005500000000000000000000000000000000000000000000000000000000000MOEDA CORRENTE 00000010000000000000BRPTPAACNPR81730               0000000000                                            
0202LOTE PADRAO                   EXCELSIOR   PN         BAUH4       010VISTA          0000000000062900000000629000000006290000000062900000000629+004310000000057000000000629000010000000000001000000000000006290000000000000000000000MOEDA CORRENTE 00000010000000000000BRBAUHACNPR31100               0000000431                                            
0202LOTE PADRAO                   EXXON MOBIL DRN ED     EXXO34      010VISTA          0000000000753200000007544000000075320000000753900000007544-001140000000742100000007563000040000000000019000000000001432400000000000000000000000MOEDA CORRENTE 00000010000000000000BREXXOBDR0061210               0000000114                                            
0202LOTE PADRAO                   EZTEC       ON      NM EZTC3       010VISTA          0000000000130500000001329000000012860000000130800000001320+002160000000131300000001320021160000000005079000000000066448750000000000000000000000MOEDA CORRENTE 00000010000000000000BREZTCACNOR01080               0000000216                                            
0202LOTE PADRAO                   FACEBOOK    DRN        FBOK34      010VISTA          0000000000000000000000000000000000000000000000000000000000/000000000001965300000020096000000000000000000000000000000000000000000000000000000000MOEDA CORRENTE 00000010000000000000BRFBOKBDR0061000               0000000000                                            
0202LOTE PADRAO                   FEDEX CORP  DRN        FDXB34      010VISTA          0000000006092500000060925000000609250000006092500000060925+001010000006262000000000000000010000000000002000000000001218500000000000000000000000MOEDA CORRENTE 00000010000000000000BRFDXBBDR0021080               0000000101                                            
0202LOTE PADRAO                   FEMSA       DRN        FMXB34      010VISTA          0000000000000000000000000000000000000000000000000000000000/000000000002982300000000000000000000000000000000000000000000000000000000000000000000MOEDA CORRENTE 00000010000000000000BRFMXBBDR0031000               0000000000                                            
0202LOTE PADRAO                   FER C ATLANTON         VSPT3       010VISTA          0000000000000000000000000000000000000000000000000000000000/000000000000031200000000000000000000000000000000000000000000000000000000000000000000MOEDA CORRENTE 00000010000000000000BRVSPTACNOR11070               0000000000                                            
0202LOTE PADRAO                   FER HERINGERON      NM FHER3       010VISTA          0000000000017300000000176000000001690000000017200000000176+003520000000017600000000177000250000000000240000000000000411950000000000000000000000MOEDA CORRENTE 00000010000000000000BRFHERACNOR51030               0000000352                                            
0202LOTE PADRAO                   FERBASA     ON      N1 FESA3       010VISTA          0000000000000000000000000000000000000000000000000000000000/000000000000060100000000900000000000000000000000000000000000000000000000000000000000MOEDA CORRENTE 00000010000000000000BRFESAACNOR81540               0000000000                                            
0202LOTE PADRAO                   FERBASA     PN      N1 FESA4       010VISTA          0000000000072800000000733000000007160000000072200000000723+000830000000072000000000723001960000000001126000000000008132670000000000000000000000MOEDA CORRENTE 00000010000000000000BRFESAACNPR50500               0000000083                                            
0202LOTE PADRAO                   FIBRIA      ON      NM.FIBR3       010VISTA          0000000000545600000005490000000053440000000540500000005391-001870000000539100000005401082170000000015562000000000841173330000000000000000000000MOEDA CORRENTE 00000010000000000000BRFIBRACNOR91030               0000000187                                            
0202LOTE PADRAO                   FLEURY      ON      NM FLRY3       010VISTA          0000000000159100000001630000000015900000000161500000001630+002320000000160000000001630003560000000000889000000000014360140000000000000000000000MOEDA CORRENTE 00000010000000000000BRFLRYACNOR51130               0000000232                                            
0202LOTE PADRAO                   FORD MOTORS DRN        FDMO34      010VISTA          0000000000000000000000000000000000000000000000000000000000/000000000000538700000005479000000000000000000000000000000000000000000000000000000000MOEDA CORRENTE 00000010000000000000BRFDMOBDR0081150               0000000000                                            
0202LOTE PADRAO                   FORJA TAURUSON      N2 FJTA3       010VISTA          0000000000000000000000000000000000000000000000000000000000/000000000000014500000000189000000000000000000000000000000000000000000000000000000000MOEDA CORRENTE 00000010000000000000BRFJTAACNOR51550               0000000000                                            
0202LOTE PADRAO                   FORJA TAURUSPN      N2 FJTA4       010VISTA          0000000000010400000000105000000001010000000010300000000105+001940000000010200000000104000240000000000447000000000000461390000000000000000000000MOEDA CORRENTE 00000010000000000000BRFJTAACNPR21560               0000000194                                            
0202LOTE PADRAO                   FRAS-LE     ON      N1 FRAS3       010VISTA          0000000000034600000000350000000003310000000034500000000331-005420000000033100000000358000090000000000048000000000000165430000000000000000000000MOEDA CORRENTE 00000010000000000000BRFRASACNOR01370               0000000542                                            
0202LOTE PADRAO                   FREEPORT    DRN        FCXO34      010VISTA          0000000000000000000000000000000000000000000000000000000000/000000000000313400000003188000000000000000000000000000000000000000000000000000000000MOEDA CORRENTE 00000010000000000000BRFCXOBDR0071240               0000000000                                            
0202LOTE PADRAO                   FUTURETEL   ON      MB FTRT3B      010VISTA          0000000000000000000000000000000000000000000000000000000000/000000000000001300000000000000000000000000000000000000000000000000000000000000000000MOEDA CORRENTE 00000010000000000000BRFTRTACNOR81120               0000000000                                            
0202LOTE PADRAO                   GAFISA      ON      NM GFSA3       010VISTA          0000000000026500000000268000000002630000000026700000000268+001510000000026800000000269011970000000005829000000000015565000000000000000000000000MOEDA CORRENTE 00000010000000000000BRGFSAACNOR31100               0000000151                                            
0202LOTE PADRAO                   GE          DRN        GEOO34      010VISTA          0000000001141200000011412000000113500000001136800000011399-000880000001080000000000000000030000000000030000000000003410450000000000000000000000MOEDA CORRENTE 00000010000000000000BRGEOOBDR0001200               0000000088                                            
0202LOTE PADRAO                   GEN DYNAMICSDRN        GDBR34      010VISTA          0000000000000000000000000000000000000000000000000000000000/000000000005487000000000000000000000000000000000000000000000000000000000000000000000MOEDA CORRENTE 00000010000000000000BRGDBRBDR0021010               0000000000                                            
0202LOTE PADRAO                   GENERALSHOPPON      NM GSHP3       010VISTA          0000000000021700000000231000000002140000000022000000000222+005210000000021600000000222000470000000000280000000000000615920000000000000000000000MOEDA CORRENTE 00000010000000000000BRGSHPACNOR71000               0000000521                                            
0202LOTE PADRAO                   GER PARANAP ON         GEPA3       010VISTA          0000000000000000000000000000000000000000000000000000000000/000000000000000000000004800000000000000000000000000000000000000000000000000000000000MOEDA CORRENTE 00000010000000000000BRGEPAACNOR21320               0000000000                                            
0202LOTE PADRAO                   GER PARANAP PN         GEPA4       010VISTA          0000000000430000000004300000000043000000000430000000004300+002400000000425000000004300000010000000000001000000000000043000000000000000000000000MOEDA CORRENTE 00000010000000000000BRGEPAACNPR91390               0000000240                                            
