0010430010120150410DI12K15   20150504201501020000000020150430000000000000000000000003                    DI1K15              BRBMEFD1I4P1    21000000000000001NN02N000140002400014DI DE 1 DIA    
0010440010120150410DI12M15   20150601201502020000000020150529000000000000000000000003                    DI1M15              BRBMEFD1I4Q9    21000000000000001NN02N000340005200034DI DE 1 DIA    
0010450010120150410DI12N15   20150701201002020000000020150630000000000000000000000003                    DI1N15              BRBMEFD1I2H2    21000000000000001NN02N000550008200055DI DE 1 DIA    
0010460010120150410DI12Q15   20150803201502020000000020150731000000000000000000000003                    DI1Q15              BRBMEFD1I4R7    21000000000000010NN02N000780011500077DI DE 1 DIA    
0010470010120150410DI12U15   20150901201502020000000020150831000000000000000000000003                    DI1U15              BRBMEFD1I4S5    21000000000000010NN02N000990014400098DI DE 1 DIA    
0010480010120150410DI12V15   20151001201003100000000020150930000000000000000000000003                    DI1V15              BRBMEFD1I2X9    21000000000000010NN02N001200017400119DI DE 1 DIA    
0010490010120150410DI12X15   20151103201502020000000020151030000000000000000000000003                    DI1X15              BRBMEFD1I4T3    21000000000000010NN02N001410020700140DI DE 1 DIA    
0010500010120150410DI12Z15   20151201201502020000000020151130000000000000000000000003                    DI1Z15              BRBMEFD1I4U1    21000000000000010NN02N001610023500159DI DE 1 DIA    
0010510010120150410DI12F16   20160104200510030000000020151230000000000000000000000003                    DI1F16              BRBMEFD2I007    21000000000000010NN02N001830026900179DI DE 1 DIA    
0010520010120150410DI12G16   20160201201502020000000020160129000000000000000000000003                    DI1G16              BRBMEFD1I4V9    21000000000000010NN02N002030029700198DI DE 1 DIA    
0010530010120150410DI12H16   20160301201502020000000020160229000000000000000000000003                    DI1H16              BRBMEFD1I4W7    21000000000000010NN02N002220032600217DI DE 1 DIA    
0010540010120150410DI12J16   20160401201102030000000020160331000000000000000000000003                    DI1J16              BRBMEFD1I3B3    21000000000000010NN02N002440035700239DI DE 1 DIA    
0010550010120150410DI12K16   20160502201504010000000020160429000000000000000000000003                    DI1K16              BRBMEFD1I512    21000000000000010NN02N002640038800259DI DE 1 DIA    
0010560010120150410DI12M16   20160601201502030000000020160531000000000000000000000003                    DI1M16              BRBMEFD1I4X5    21000000000000010NN02N002850041800280DI DE 1 DIA    
0010570010120150410DI12N16   20160701201002020000000020160630000000000000000000000003                    DI1N16              BRBMEFD1I2W1    21000000000000010NN02N003070044800302DI DE 1 DIA    
0010580010120150410DI12V16   20161003201103250000000020160930000000000000000000000003                    DI1V16              BRBMEFD1I3C1    21000000000000010NN02N003720054200367DI DE 1 DIA    
0010590010120150410DI12F17   20170102200510030000000020161229000000000000000000000003                    DI1F17              BRBMEFD2I015    21000000000000010NN02N004340063300428DI DE 1 DIA    
0010600010120150410DI12J17   20170403201007020000000020170331000000000000000000000003                    DI1J17              BRBMEFD1I322    21000000000000010NN02N004970072400490DI DE 1 DIA    
0010610010120150410DI12N17   20170703201109090000000020170630000000000000000000000003                    DI1N17              BRBMEFD1I3H0    21000000000000010NN02N005580081500551DI DE 1 DIA    
0010620010120150410DI12V17   20171002201109200000000020170929000000000000000000000003                    DI1V17              BRBMEFD1I3I8    21000000000000010NN02N006220090600615DI DE 1 DIA    
0010630010120150410DI12F18   20180102200611130000000020171228000000000000000000000003                    DI1F18              BRBMEFD1I1R3    21000000000000010NN02N006830099800674DI DE 1 DIA    
0010640010120150410DI12J18   20180402201111240000000020180329000000000000000000000003                    DI1J18              BRBMEFD1I3N8    21000000000000010NN02N007440108800734DI DE 1 DIA    
0010650010120150410DI12N18   20180702201111090000000020180629000000000000000000000003                    DI1N18              BRBMEFD1I3L2    21000000000000010NN02N008070117900797DI DE 1 DIA    
0010660010120150410DI12V18   20181001201203270000000020180928000000000000000000000003                    DI1V18              BRBMEFD1I3Q1    21000000000000010NN02N008710127000860DI DE 1 DIA    
0010670010120150410DI12F19   20190102200612140000000020181228000000000000000000000003                    DI1F19              BRBMEFD1I1Y9    21000000000000010NN02N009330136300919DI DE 1 DIA    
0010680010120150410DI12J19   20190401201211280000000020190329000000000000000000000003                    DI1J19              BRBMEFD1I405    21000000000000010NN02N009940145200979DI DE 1 DIA    
0010690010120150410DI12N19   20190701201209210000000020190628000000000000000000000003                    DI1N19              BRBMEFD1I3V1    21000000000000010NN02N010560154301041DI DE 1 DIA    
0010700010120150410DI12V19   20191001201211280000000020190930000000000000000000000003                    DI1V19              BRBMEFD1I413    21000000000000010NN02N011220163501106DI DE 1 DIA    
0010710010120150410DI12F20   20200102200905210000000020191230000000000000000000000003                    DI1F20              BRBMEFD1I2O8    21000000000000010NN02N011860172801167DI DE 1 DIA    
0010720010120150410DI12J20   20200401201211280000000020200331000000000000000000000003                    DI1J20              BRBMEFD1I421    21000000000000010NN02N012480181801229DI DE 1 DIA    
0010730010120150410DI12N20   20200701201111090000000020200630000000000000000000000003                    DI1N20              BRBMEFD1I3M0    21000000000000010NN02N013090190901290DI DE 1 DIA    
0010740010120150410DI12V20   20201001201009230000000020200930000000000000000000000003                    DI1V20              BRBMEFD1I363    21000000000000010NN02N013740200101354DI DE 1 DIA    
0010750010120150410DI12F21   20210104200905210000000020201230000000000000000000000003                    DI1F21              BRBMEFD1I2P5    21000000000000010NN02N014370209601414DI DE 1 DIA    
0010760010120150410DI12J21   20210401201211280000000020210331000000000000000000000003                    DI1J21              BRBMEFD1I439    21000000000000010NN02N014980218301474DI DE 1 DIA    
0010770010120150410DI12N21   20210701201209210000000020210630000000000000000000000003                    DI1N21              BRBMEFD1I3W9    21000000000000010NN02N015600227401536DI DE 1 DIA    
0010780010120150410DI12V21   20211001201211280000000020210930000000000000000000000003                    DI1V21              BRBMEFD1I447    21000000000000010NN02N016250236601600DI DE 1 DIA    
0010790010120150410DI12F22   20220103200609250000000020211230000000000000000000000003                    DI1F22              BRBMEFD1I1N2    21000000000000010NN02N016880246001661DI DE 1 DIA    
0010800010120150410DI12N22   20220701201209210000000020220630000000000000000000000003                    DI1N22              BRBMEFD1I3X7    21000000000000010NN02N018120263901784DI DE 1 DIA    
0010810010120150410DI12F23   20230102201008130000000020221229000000000000000000000003                    DI1F23              BRBMEFD1I355    21000000000000010NN02N019390282401910DI DE 1 DIA    
0010820010120150410DI12N23   20230703201211280000000020230630000000000000000000000003                    DI1N23              BRBMEFD1I454    21000000000000010NN02N020630300602033DI DE 1 DIA    
0010830010120150410DI12F24   20240102201008090000000020231228000000000000000000000003                    DI1F24              BRBMEFD1I348    21000000000000010NN02N021880318902156DI DE 1 DIA    
0010840010120150410DI12N24   20240701201211280000000020240628000000000000000000000003                    DI1N24              BRBMEFD1I462    21000000000000010NN02N023120337002279DI DE 1 DIA    
0010850010120150410DI12F25   20250102201004120000000020241230000000000000000000000003                    DI1F25              BRBMEFD1I2Z4    21000000000000010NN02N024420355502405DI DE 1 DIA    
0010860010120150410DI12F26   20260102201311130000000020251230000000000000000000000003                    DI1F26              BRBMEFD1I4F2    21000000000000010NN02N026950392002654DI DE 1 DIA    
0010870010120150410DI12F29   20290102201406030000000020281228000000000000000000000003                    DI1F29              BRBMEFD1I4K2    21000000000000010NN02N034450501603393DI DE 1 DIA    
