00COTAHIST.2016BOVESPA 20160104                                                                                                                                                                                                                      
012016010402AAPL34      010APPLE       DRN          R$  000000000415000000000042200000000004150000000000421300000000042080000000003950000000000435000005000000000000012500000000000052664400000000000000009999123100000010000000000000BRAAPLBDR004115
012016010496AAPL34F     020APPLE       DRN          R$  000000000421100000000042110000000004208000000000420900000000042080000000004116000000000000000003000000000000000132000000000000555588000000000000009999123100000010000000000000BRAAPLBDR004115
012016010402ABCB4       010ABC BRASIL  PN  EJS N2   R$  000000000082000000000008280000000000766000000000080800000000008130000000000812000000000082500831000000000000148000000000000119705600000000000000009999123100000010000000000000BRABCBACNPR4125
012016010496ABCB4F      020ABC BRASIL  PN  EJS N2   R$  000000000082000000000008650000000000776000000000081800000000008140000000000814000000000085000010000000000000000300000000000000245515000000000000009999123100000010000000000000BRABCBACNPR4125
012016010412ABCP11      010FII ABC IMOBCI  ER       R$  000000000094300000000009430000000000943000000000094300000000009430000000000915000000000094300001000000000000000001000000000000000943000000000000009999123100000010000000000000BRABCPCTF000243
012016010402ABEV3       010AMBEV S/A   ON  EJ       R$  000000000177300000000017730000000001721000000000173400000000017210000000001720000000000172133912000000000013206900000000022913285600000000000000009999123100000010000000000000BRABEVACNOR1111
012016010496ABEV3F      020AMBEV S/A   ON  EJ       R$  000000000176800000000017850000000001720000000000174300000000017520000000001730000000000175200435000000000000009386000000000016360689000000000000009999123100000010000000000000BRABEVACNOR1111
012016010462ABEV3T      030AMBEV S/A   ON  EJ    016R$  000000000174300000000017440000000001743000000000174300000000017440000000000000000000000000000002000000000000003000000000000005230714000000000000009999123100000010000000000000BRABEVACNOR1111
012016010462ABEV3T      030AMBEV S/A   ON  EJ    030R$  000000000177000000000017710000000001770000000000177000000000017710000000000000000000000000000002000000000000050000000000000088521805000000000000009999123100000010000000000000BRABEVACNOR1111
012016010462ABEV3T      030AMBEV S/A   ON  EJ    091R$  000000000178400000000017850000000001784000000000178400000000017850000000000000000000000000000002000000000000000100000000000000178417000000000000009999123100000010000000000000BRABEVACNOR1111
012016010478ABEVA1      070ABEVE       ON        000R$  000000000035900000000003590000000000359000000000035900000000003590000000000000000000000000000002000000000000200000000000000071800000000000000172502017011600000010000000000000BRABEVACNOR1111
012016010478ABEVA2      070ABEVE       ON        000R$  000000000018200000000001820000000000181000000000018100000000001810000000000000000000000000000003000000000000400000000000000072720000000000000192502017011600000010000000000000BRABEVACNOR1111
012016010478ABEVA20     070ABEVE   /EJ ON        000R$  000000000000100000000000010000000000001000000000000100000000000010000000000000000000000000400001000000000000010000000000000000010000000000000198102016011800000010000000000000BRABEVACNOR1110
012016010478ABEVA68     070ABEV  FM/EJ ON        000R$  000000000003600000000000400000000000026000000000003100000000000280000000000022000000000003100063000000000000378200000000000012010500000000000175602016011800000010000000000000BRABEVACNOR1107
012016010478ABEVA69     070ABEV  FM/EJ ON        000R$  000000000001000000000000100000000000005000000000000500000000000050000000000003000000000001000007000000000000029700000000000000176900000000000185602016011800000010000000000000BRABEVACNOR1107
012016010478ABEVA78     070ABEV  FM/EJ ON        000R$  000000000002000000000000200000000000011000000000001500000000000110000000000010000000000001800044000000000000114900000000000001781800000000000180602016011800000010000000000000BRABEVACNOR1107
012016010478ABEVA79     070ABEV  FM/EJ ON        000R$  000000000000300000000000030000000000002000000000000200000000000020000000000001000000000001600004000000000000026800000000000000055900000000000190602016011800000010000000000000BRABEVACNOR1107
012016010478ABEVA80     070ABEV    /EJ ON        000R$  000000000000100000000000010000000000001000000000000100000000000010000000000000000000000001000001000000000000000300000000000000000300000000000195602016011800000010000000000000BRABEVACNOR1107
012016010478ABEVA88     070ABEVE   /EJ ON        000R$  000000000002200000000000220000000000022000000000002200000000000220000000000000000000000000000001000000000000000200000000000000004400000000000178102016011800000010000000000000BRABEVACNOR1107
012016010478ABEVA89     070ABEVE   /EJ ON        000R$  000000000000100000000000030000000000001000000000000200000000000030000000000001000000000002000002000000000000014400000000000000037200000000000188102016011800000010000000000000BRABEVACNOR1107
012016010478ABEVA98     070ABEVE   /EJ ON        000R$  000000000001000000000000120000000000005000000000000700000000000050000000000000000000000001300032000000000000013700000000000000097800000000000183102016011800000010000000000000BRABEVACNOR1107
012016010478ABEVB18     070ABEVE   /EJ ON        000R$  000000000005500000000000600000000000047000000000005300000000000470000000000000000000000000000010000000000000024000000000000001290000000000000177302016021500000010000000000000BRABEVACNOR1110
012016010478ABEVB19     070ABEVE   /EJ ON        000R$  000000000001900000000000210000000000019000000000002000000000000210000000000000000000000006200002000000000000002000000000000000040000000000000187302016021500000010000000000000BRABEVACNOR1109
012016010478ABEVB20     070ABEVE   /EJ ON        000R$  000000000000900000000000090000000000007000000000000800000000000070000000000004000000000003100006000000000000181000000000000001608000000000000197302016021500000010000000000000BRABEVACNOR1107
012016010478ABEVB48     070ABEV  FM/EJ ON        000R$  000000000004100000000000480000000000038000000000004000000000000400000000000000000000000000000009000000000000032100000000000001309100000000000179802016021500000010000000000000BRABEVACNOR1110
012016010478ABEVB67     070ABEV  FM/EJ ON        000R$  000000000006800000000000720000000000059000000000006600000000000600000000000000000000000009900045000000000000271300000000000017975500000000000174802016021500000010000000000000BRABEVACNOR1110
012016010478ABEVB69     070ABEV    /EJ ON        000R$  000000000000900000000000090000000000009000000000000900000000000090000000000000000000000000000001000000000000000600000000000000005400000000000194802016021500000010000000000000BRABEVACNOR1110
012016010478ABEVB71     070ABEV    /EJ ON        000R$  000000000000300000000000040000000000003000000000000300000000000040000000000000000000000000000002000000000000002100000000000000007300000000000204802016021500000010000000000000BRABEVACNOR1106
012016010478ABEVB78     070ABEV  FM/EJ ON        000R$  000000000003200000000000320000000000023000000000002400000000000230000000000010000000000000000002000000000000011500000000000000278000000000000184802016021500000010000000000000BRABEVACNOR1109
012016010478ABEVB8      070ABEVE   /EJ ON        000R$  000000000003400000000000340000000000030000000000003200000000000300000000000000000000000000000002000000000000006000000000000000192000000000000182302016021500000010000000000000BRABEVACNOR1109
012016010478ABEVC19     070ABEVE   /EJ ON        000R$  000000000003000000000000300000000000022000000000002300000000000220000000000000000000000010000029000000000000295800000000000006930600000000000193102016032100000010000000000000BRABEVACNOR1110
012016010478ABEVC20     070ABEV    /EJ ON        000R$  000000000002100000000000210000000000017000000000001800000000000170000000000005000000000000000002000000000000016000000000000000296000000000000200602016032100000010000000000000BRABEVACNOR1110
012016010478ABEVC21     070ABEV    /EJ ON        000R$  000000000001000000000000100000000000010000000000001000000000000100000000000000000000000000000001000000000000131000000000000001310000000000000210602016032100000010000000000000BRABEVACNOR1110
012016010478ABEVC48     070ABEV    /EJ ON        000R$  000000000005200000000000540000000000045000000000005000000000000540000000000000000000000000000010000000000000079300000000000003986200000000000185602016032100000010000000000000BRABEVACNOR1110
012016010478ABEVC49     070ABEV    /EJ ON        000R$  000000000002500000000000250000000000024000000000002400000000000240000000000000000000000000000003000000000000020500000000000000512000000000000195602016032100000010000000000000BRABEVACNOR1110
012016010478ABEVC69     070ABEV    /EJ ON        000R$  000000000003600000000000370000000000032000000000003500000000000370000000000000000000000000000006000000000000059300000000000002094800000000000190602016032100000010000000000000BRABEVACNOR1110
012016010478ABEVC78     070ABEVE   /EJ ON        000R$  000000000004300000000000460000000000038000000000004200000000000450000000000000000000000000000018000000000000114300000000000004873400000000000188102016032100000010000000000000BRABEVACNOR1110
012016010478ABEVC80     070ABEVE   /EJ ON        000R$  000000000001300000000000150000000000013000000000001300000000000130000000000000000000000000000011000000000000117700000000000001570100000000000203102016032100000010000000000000BRABEVACNOR1110
012016010478ABEVD20     070ABEV    /EJ ON        000R$  000000000004000000000000400000000000040000000000004000000000000400000000000000000000000000000001000000000000000300000000000000012000000000000195602016041800000010000000000000BRABEVACNOR1107
012016010478ABEVD94     070ABEVE   /EJ ON        000R$  000000000010500000000001070000000000105000000000010500000000001070000000000000000000000000000002000000000000019200000000000002034400000000000178102016041800000010000000000000BRABEVACNOR1108
012016010478ABEVH92     070ABEVE   /EJ ON        000R$  000000000003000000000000300000000000030000000000003000000000000300000000000000000000000000000001000000000000010100000000000000303000000000000223102016081500000010000000000000BRABEVACNOR1109
012016010478ABEVI84     070ABEVE   /EJ ON        000R$  000000000001800000000000180000000000018000000000001800000000000180000000000000000000000000000001000000000000332900000000000005992200000000000238102016091900000010000000000000BRABEVACNOR1108
012016010478ABEVJ73     070ABEVE   /EJ ON        000R$  000000000004000000000000400000000000040000000000004000000000000400000000000000000000000000000001000000000000100000000000000004000000000000000229702016101700000010000000000000BRABEVACNOR1109
012016010478ABEVK71     070ABEVE   /EJ ON        000R$  000000000009200000000000920000000000092000000000009200000000000920000000000000000000000000000001000000000000700000000000000064400000000000000209702016112100000010000000000000BRABEVACNOR1110
012016010482ABEVM47     080ABEVE FM/EJ ON        000R$  000000000002800000000000340000000000028000000000003000000000000340000000000000000000000000000007000000000000040000000000000001230000000000000173102016011800000010000000000000BRABEVACNOR1109
012016010482ABEVM68     080ABEVE   /EJ ON        000R$  000000000003600000000000490000000000036000000000004400000000000460000000000001000000000000000006000000000000032200000000000001418200000000000175602016011800000010000000000000BRABEVACNOR1107
012016010482ABEVM69     080ABEVE   /EJ ON        000R$  000000000011400000000001140000000000114000000000011400000000001140000000000000000000000000000001000000000000005000000000000000570000000000000185602016011800000010000000000000BRABEVACNOR1107
012016010482ABEVM78     080ABEVE   /EJ ON        000R$  000000000007300000000000820000000000067000000000006800000000000820000000000000000000000000000009000000000000075600000000000005164700000000000180602016011800000010000000000000BRABEVACNOR1107
012016010482ABEVM88     080ABEVE FM/EJ ON        000R$  000000000004700000000000640000000000045000000000005500000000000610000000000039000000000000000075000000000000430600000000000024074900000000000178102016011800000010000000000000BRABEVACNOR1107
012016010482ABEVM97     080ABEVE   /EJ ON        000R$  000000000001800000000000250000000000016000000000002000000000000250000000000000000000000000000009000000000000040200000000000000818800000000000170602016011800000010000000000000BRABEVACNOR1107
012016010482ABEVM98     080ABEVE FM/EJ ON        000R$  000000000008100000000001030000000000078000000000009200000000000990000000000000000000000000000172000000000000743600000000000068442400000000000183102016011800000010000000000000BRABEVACNOR1107
012016010482ABEVN17     080ABEVE   /EJ ON        000R$  000000000003100000000000310000000000031000000000003100000000000310000000000000000000000000000001000000000000001000000000000000031000000000000167302016021500000010000000000000BRABEVACNOR1109
012016010482ABEVN18     080ABEVE   /EJ ON        000R$  000000000006000000000000690000000000060000000000006100000000000690000000000000000000000000000004000000000000005300000000000000327900000000000177302016021500000010000000000000BRABEVACNOR1110
012016010482ABEVN47     080ABEVE FM/EJ ON        000R$  000000000003400000000000340000000000034000000000003400000000000340000000000000000000000000000001000000000000170000000000000005780000000000000169802016021500000010000000000000BRABEVACNOR1107
012016010482ABEVN48     080ABEVE FM/EJ ON        000R$  000000000007500000000000900000000000070000000000008100000000000870000000000000000000000000000050000000000000278900000000000022664000000000000179802016021500000010000000000000BRABEVACNOR1110
012016010482ABEVN49     080ABEVE   /EJ ON        000R$  000000000016000000000001600000000000160000000000016000000000001600000000000000000000000000000002000000000000016300000000000002608000000000000189802016021500000010000000000000BRABEVACNOR1109
012016010482ABEVN67     080ABEVE FM/EJ ON        000R$  000000000004900000000000600000000000049000000000005300000000000600000000000000000000000000000006000000000000035000000000000001860000000000000174802016021500000010000000000000BRABEVACNOR1110
012016010482ABEVN78     080ABEVE   /EJ ON        000R$  000000000012100000000001210000000000121000000000012100000000001210000000000000000000000000000002000000000000011300000000000001367300000000000184802016021500000010000000000000BRABEVACNOR1109
012016010482ABEVN8      080ABEVE   /EJ ON        000R$  000000000010400000000001040000000000104000000000010400000000001040000000000000000000000000000001000000000000010000000000000001040000000000000182302016021500000010000000000000BRABEVACNOR1109
012016010482ABEVN9      080ABEVE   /EJ ON        000R$  000000000018100000000001810000000000181000000000018100000000001810000000000000000000000000000001000000000000006300000000000001140300000000000192302016021500000010000000000000BRABEVACNOR1109
012016010482ABEVO15     080ABEVE   /EJ ON        000R$  000000000001200000000000120000000000008000000000001000000000000080000000000000000000000000000002000000000000000200000000000000002000000000000150602016032100000010000000000000BRABEVACNOR1110
012016010482ABEVO17     080ABEVE   /EJ ON        000R$  000000000007000000000000700000000000070000000000007000000000000700000000000000000000000000000001000000000000010000000000000000700000000000000175602016032100000010000000000000BRABEVACNOR1110
012016010482ABEVO18     080ABEVE   /EJ ON        000R$  000000000009800000000001040000000000094000000000009800000000000940000000000000000000000000000010000000000000091300000000000008953400000000000180602016032100000010000000000000BRABEVACNOR1110
012016010482ABEVO19     080ABEVE   /EJ ON        000R$  000000000017400000000001880000000000174000000000017600000000001880000000000000000000000000000004000000000000033200000000000005863200000000000193102016032100000010000000000000BRABEVACNOR1110
012016010482ABEVO48     080ABEVE   /EJ ON        000R$  000000000012700000000001340000000000121000000000012500000000001220000000000000000000000000000013000000000000117900000000000014848400000000000185602016032100000010000000000000BRABEVACNOR1110
012016010482ABEVO69     080ABEVE   /EJ ON        000R$  000000000016100000000001690000000000156000000000015900000000001560000000000000000000000000000009000000000000061000000000000009729200000000000190602016032100000010000000000000BRABEVACNOR1110
012016010482ABEVO77     080ABEVE   /EJ ON        000R$  000000000008500000000000910000000000082000000000008500000000000910000000000000000000000000000006000000000000037500000000000003206200000000000178102016032100000010000000000000BRABEVACNOR1110
012016010482ABEVO78     080ABEVE   /EJ ON        000R$  000000000014200000000001510000000000137000000000014200000000001370000000000000000000000000000011000000000000085400000000000012173900000000000188102016032100000010000000000000BRABEVACNOR1110
012016010482ABEVP19     080ABEVE   /EJ ON        000R$  000000000013000000000001300000000000130000000000013000000000001300000000000000000000000000000002000000000000005000000000000000650000000000000188102016041800000010000000000000BRABEVACNOR1108
012016010482ABEVT69     080ABEVE   /EJ ON        000R$  000000000009000000000000900000000000090000000000009000000000000900000000000000000000000000000001000000000000010100000000000000909000000000000185602016081500000010000000000000BRABEVACNOR1107
012016010482ABEVU65     080ABEVE   /EJ ON        000R$  000000000002200000000000220000000000021000000000002100000000000210000000000000000000000000000002000000000000333000000000000007325900000000000153102016091900000010000000000000BRABEVACNOR1108
012016010482ABEVU89     080ABEVE   /EJ ON        000R$  000000000010000000000001000000000000100000000000010000000000001000000000000000000000000000000001000000000000332900000000000033290000000000000190602016091900000010000000000000BRABEVACNOR1107
012016010482ABEVV89     080ABEVE   /EJ ON        000R$  000000000009000000000000900000000000090000000000009000000000000900000000000000000000000000000001000000000000100000000000000009000000000000000187202016101700000010000000000000BRABEVACNOR1109
012016010482ABEVW96     080ABEVE   /EJ ON        000R$  000000000009500000000000950000000000095000000000009500000000000950000000000000000000000000000001000000000000700000000000000066500000000000000184702016112100000010000000000000BRABEVACNOR1109
012016010402ABTT34      010ABBOTT      DRN          R$  000000000432000000000043200000000004320000000000432000000000043200000000000000000000000000000001000000000000002500000000000010800000000000000000009999123100000010000000000000BRABTTBDR007116
012016010496ABTT34F     020ABBOTT      DRN          R$  000000000432000000000043200000000004320000000000432000000000043200000000000000000000000000000001000000000000000008000000000000034560000000000000009999123100000010000000000000BRABTTBDR007116
012016010412AEFI11      010FII AESAPAR CI  ER       R$  000000001012900000000101350000000010000000000001009900000000101000000000010022000000001010000018000000000000000494000000000004988974000000000000009999123100000010000000000000BRAEFICTF002149
012016010412AGCX11      010FII AG CAIXACI  ER       R$  000000009950000000000995010000000098500000000009892700000000985000000000098697000000009900000023000000000000000075000000000007419592000000000000009999123100000010000000000000BRAGCXCTF003138
012016010402AGRO3       010BRASILAGRO  ON      NM   R$  000000000110300000000011030000000001094000000000109900000000010950000000001095000000000110000136000000000000046700000000000051350500000000000000009999123100000010000000000000BRAGROACNOR7104
012016010496AGRO3F      020BRASILAGRO  ON      NM   R$  000000000107900000000011520000000001079000000000110400000000010970000000001097000000000114900015000000000000000273000000000000301406000000000000009999123100000010000000000000BRAGROACNOR7104
012016010462AGRO3T      030BRASILAGRO  ON      NM060R$  000000000112500000000011260000000001125000000000112500000000011260000000000000000000000000000002000000000000001000000000000001125120000000000000009999123100000010000000000000BRAGROACNOR7104
012016010462AGRO3T      030BRASILAGRO  ON      NM091R$  000000000113800000000011380000000001138000000000113800000000011380000000000000000000000000000001000000000000001000000000000001138000000000000000009999123100000010000000000000BRAGROACNOR7104
012016010412ALMI11B     010FII TORRE ALCI  ER  MB   R$  000000016700000000001670000000000155001000000016127400000001560000000000155001000000015600000065000000000000000331000000000053381889000000000000009999123100000010000000000000BRALMICTF003233
012016010402ALPA3       010ALPARGATAS  ON      N1   R$  000000000095000000000009500000000000950000000000095000000000009500000000000950000000000099800002000000000000001900000000000001805000000000000000009999123100000010000000000000BRALPAACNOR0215
012016010496ALPA3F      020ALPARGATAS  ON      N1   R$  000000000095000000000009500000000000950000000000095000000000009500000000000950000000000106900001000000000000000063000000000000059850000000000000009999123100000010000000000000BRALPAACNOR0215
012016010402ALPA4       010ALPARGATAS  PN      N1   R$  000000000070700000000007140000000000687000000000070000000000007070000000000695000000000070700567000000000000152000000000000106443600000000000000009999123100000010000000000000BRALPAACNPR7215
012016010496ALPA4F      020ALPARGATAS  PN      N1   R$  000000000072200000000007220000000000692000000000070200000000007050000000000639000000000070500010000000000000000145000000000000101823000000000000009999123100000010000000000000BRALPAACNPR7215
012016010402ALSC3       010ALIANSCE    ON  EJ  NM   R$  000000000107300000000010940000000001049000000000107500000000010780000000001072000000000107802324000000000000592000000000000636840700000000000000009999123100000010000000000000BRALSCACNOR0108
012016010496ALSC3F      020ALIANSCE    ON  EJ  NM   R$  000000000111500000000011500000000001115000000000114300000000011500000000001001000000000107800002000000000000000054000000000000061750000000000000009999123100000010000000000000BRALSCACNOR0108
012016010402ALUP11      010ALUPAR      UNT     N2   R$  000000000130000000000013000000000001215000000000124400000000012150000000001215000000000123500738000000000000140300000000000174608000000000000000009999123100000010000000000000BRALUPCDAM15103
012016010496ALUP11F     020ALUPAR      UNT     N2   R$  000000000130000000000013850000000001233000000000125800000000012330000000001202000000000122900010000000000000000223000000000000280623000000000000009999123100000010000000000000BRALUPCDAM15103
012016010402AMAR3       010LOJAS MARISAON      NM   R$  000000000048000000000005030000000000449000000000046800000000004740000000000474000000000048000290000000000000084300000000000039529900000000000000009999123100000010000000000000BRAMARACNOR4112
012016010496AMAR3F      020LOJAS MARISAON      NM   R$  000000000047300000000005030000000000404000000000046200000000005030000000000503000000000055000015000000000000000329000000000000152019000000000000009999123100000010000000000000BRAMARACNOR4112
012016010402AMGN34      010AMGEN       DRN          R$  000000006432800000000643280000000063638000000006429300000000636380000000000000000000000000000003000000000000004000000000000257174000000000000000009999123100000010000000000000BRAMGNBDR004116
012016010496AMGN34F     020AMGEN       DRN          R$  000000006432800000000643280000000063638000000006379100000000636380000000000000000000000000000002000000000000000099000000000006315342000000000000009999123100000010000000000000BRAMGNBDR004116
012016010402AMZO34      010AMAZON      DRN          R$  000000012983100000001298310000000128674000000012963800000001286740000000000000000000000000000002000000000000000600000000000077782900000000000000009999123100000010000000000000BRAMZOBDR002101
012016010496AMZO34F     020AMAZON      DRN          R$  000000013800000000001380000000000128674000000012927100000001286740000000000000000000000000000002000000000000000078000000000010083202000000000000009999123100000010000000000000BRAMZOBDR002101
012016010402ANIM3       010ANIMA       ON      NM   R$  000000000132400000000013240000000001233000000000127400000000012950000000001275000000000129502487000000000000471800000000000601164800000000000000009999123100000010000000000000BRANIMACNOR6102
012016010496ANIM3F      020ANIMA       ON      NM   R$  000000000105500000000012900000000001055000000000126100000000012680000000001202000000000133000005000000000000000060000000000000075676000000000000009999123100000010000000000000BRANIMACNOR6102
012016010402ARTR3       010ARTERIS     ON      NM   R$  000000000096800000000009710000000000962000000000096500000000009650000000000965000000000096700207000000000000058600000000000056575300000000000000009999123100000010000000000000BRARTRACNOR3105
012016010496ARTR3F      020ARTERIS     ON      NM   R$  000000000096000000000009600000000000960000000000096000000000009600000000000963000000000098700001000000000000000020000000000000019200000000000000009999123100000010000000000000BRARTRACNOR3105
012016010402ARZZ3       010AREZZO CO   ON      NM   R$  000000000209500000000020970000000001970000000000202200000000019750000000001975000000000199900654000000000000103300000000000208916800000000000000009999123100000010000000000000BRARZZACNOR3119
012016010496ARZZ3F      020AREZZO CO   ON      NM   R$  000000000210000000000021000000000001975000000000206100000000019750000000001971000000000218400011000000000000000209000000000000430862000000000000009999123100000010000000000000BRARZZACNOR3119
012016010408ATOM3       010ATOMPAR     ON           R$  000000000002800000000000300000000000027000000000002800000000000290000000000028000000000002900914000000000006555600000000000188944600000000000000009999123100000010000000000000BRATOMACNOR1100
012016010496ATOM3F      020ATOMPAR     ON           R$  000000000003000000000000300000000000028000000000002900000000000280000000000028000000000003000002000000000000000104000000000000003110000000000000009999123100000010000000000000BRATOMACNOR1100
012016010402AVON34      010AVON        DRN          R$  000000000081300000000008130000000000813000000000081300000000008130000000000000000000000000000001000000000000007500000000000006097500000000000000009999123100000010000000000000BRAVONBDR009121
012016010496AVON34F     020AVON        DRN          R$  000000000081300000000008130000000000813000000000081300000000008130000000000000000000000000000001000000000000000058000000000000047154000000000000009999123100000010000000000000BRAVONBDR009121
012016010402AXPB34      010AMERICAN EXPDRN          R$  000000002717700000000271770000000027177000000002717700000000271770000000000000000000000000000002000000000000003600000000000097837200000000000000009999123100000010000000000000BRAXPBBDR007114
012016010496AXPB34F     020AMERICAN EXPDRN          R$  000000002722000000000272200000000027220000000002722000000000272200000000000000000000000000000001000000000000000004000000000000108880000000000000009999123100000010000000000000BRAXPBBDR007114
012016010402AZEV4       010AZEVEDO     PN           R$  000000000013500000000001350000000000135000000000013500000000001350000000000130000000000013500002000000000000001100000000000000148500000000000000009999123100000010000000000000BRAZEVACNPR7116
012016010402BAUH4       010EXCELSIOR   PN           R$  000000000080000000000008000000000000800000000000080000000000008000000000000630000000000080000001000000000000000100000000000000080000000000000000009999123100000010000000000000BRBAUHACNPR3110
012016010496BAZA3F      020AMAZONIA    ON           R$  000000000002500000000000250000000000025000000000002500000000000250000000000023000000000002500001000000000000000800000000000000020000000000000000009999123100000010000000000000BRBAZAACNOR0167
012016010402BBAS3       010BRASIL      ON      NM   R$  000000000144400000000014570000000001424000000000143900000000014240000000001424000000000142514351000000000006090500000000008768939900000000000000009999123100000010000000000000BRBBASACNOR3257
012016010496BBAS3F      020BRASIL      ON      NM   R$  000000000145900000000015000000000001427000000000144400000000014280000000001428000000000145000486000000000000010141000000000014648337000000000000009999123100000010000000000000BRBBASACNOR3257
012016010462BBAS3T      030BRASIL      ON      NM016R$  000000000144600000000014570000000001439000000000145500000000014400000000000000000000000000000010000000000000020500000000000029840715000000000000009999123100000010000000000000BRBBASACNOR3257
012016010462BBAS3T      030BRASIL      ON      NM030R$  000000000146600000000014670000000001441000000000144600000000014420000000000000000000000000000012000000000000083500000000000120759010000000000000009999123100000010000000000000BRBBASACNOR3257
012016010462BBAS3T      030BRASIL      ON      NM060R$  000000000146800000000014690000000001468000000000146800000000014690000000000000000000000000000002000000000000005000000000000007342351000000000000009999123100000010000000000000BRBBASACNOR3257
012016010462BBAS3T      030BRASIL      ON      NM091R$  000000000149000000000015020000000001490000000000149300000000014960000000000000000000000000000010000000000000004300000000000006422697000000000000009999123100000010000000000000BRBBASACNOR3257
012016010462BBAS3T      030BRASIL      ON      NM121R$  000000000153100000000015320000000001531000000000153100000000015320000000000000000000000000000002000000000000000100000000000000153165000000000000009999123100000010000000000000BRBBASACNOR3257
012016010462BBAS3T      030BRASIL      ON      NM182R$  000000000153200000000015330000000001532000000000153200000000015330000000000000000000000000000002000000000000000400000000000000613174000000000000009999123100000010000000000000BRBBASACNOR3257
012016010478BBASA14     070BBAS        ON      NM000R$  000000000010000000000001100000000000100000000000010100000000001100000000000090000000000040000004000000000000009600000000000000970000000000000137702016011800000010000000000000BRBBASACNOR3255
012016010478BBASA15     070BBAS  FM    ON      NM000R$  000000000004600000000000540000000000041000000000004600000000000410000000000040000000000004500115000000000000256800000000000011926100000000000147702016011800000010000000000000BRBBASACNOR3255
012016010478BBASA16     070BBAS  FM    ON      NM000R$  000000000002000000000000230000000000017000000000001900000000000180000000000018000000000002000343000000000000546600000000000010895300000000000157702016011800000010000000000000BRBBASACNOR3255
012016010478BBASA17     070BBAS        ON      NM000R$  000000000001000000000000120000000000008000000000000900000000000090000000000008000000000001200186000000000000313300000000000003060600000000000167702016011800000010000000000000BRBBASACNOR3255
012016010478BBASA18     070BBAS        ON      NM000R$  000000000000600000000000070000000000005000000000000500000000000060000000000005000000000000900024000000000000070400000000000000407900000000000177702016011800000010000000000000BRBBASACNOR3255
012016010478BBASA19     070BBAS        ON      NM000R$  000000000000500000000000060000000000003000000000000500000000000050000000000001000000000000500013000000000000048100000000000000274100000000000182702016011800000010000000000000BRBBASACNOR3253
012016010478BBASA20     070BBAS        ON      NM000R$  000000000000300000000000030000000000002000000000000200000000000020000000000002000000000000300008000000000000033400000000000000083600000000000197702016011800000010000000000000BRBBASACNOR3255
012016010478BBASA21     070BBAS        ON      NM000R$  000000000000200000000000020000000000001000000000000100000000000010000000000001000000000000300002000000000000000200000000000000000300000000000207702016011800000010000000000000BRBBASACNOR3255
012016010478BBASA44     070BBAS  FM    ON      NM000R$  000000000006900000000000720000000000065000000000006800000000000650000000000059000000000006500023000000000000053100000000000003639900000000000142702016011800000010000000000000BRBBASACNOR3255
012016010478BBASA45     070BBAS  FM    ON      NM000R$  000000000003200000000000320000000000028000000000003000000000000280000000000025000000000011900066000000000000136800000000000004130000000000000152702016011800000010000000000000BRBBASACNOR3255
012016010478BBASA46     070BBAS        ON      NM000R$  000000000001500000000000150000000000012000000000001300000000000130000000000008000000000001600067000000000000088600000000000001209100000000000162702016011800000010000000000000BRBBASACNOR3255
012016010478BBASA47     070BBAS        ON      NM000R$  000000000000900000000000090000000000007000000000000700000000000070000000000003000000000000900012000000000000068900000000000000543700000000000172702016011800000010000000000000BRBBASACNOR3255
012016010478BBASA49     070BBAS        ON      NM000R$  000000000000400000000000040000000000004000000000000400000000000040000000000003000000000000400002000000000000004800000000000000019200000000000187702016011800000010000000000000BRBBASACNOR3255
012016010478BBASA50     070BBAS        ON      NM000R$  000000000000200000000000020000000000002000000000000200000000000020000000000001000000000197700015000000000000036500000000000000073000000000000202702016011800000010000000000000BRBBASACNOR3255
012016010478BBASA76     070BBASE       ON      NM000R$  000000000001100000000000110000000000011000000000001100000000000110000000000000000000000001100001000000000000010000000000000000110000000000000165202016011800000010000000000000BRBBASACNOR3255
012016010478BBASB15     070BBAS  FM    ON      NM000R$  000000000010400000000001120000000000097000000000010400000000000990000000000000000000000011400038000000000000074600000000000007816300000000000147702016021500000010000000000000BRBBASACNOR3255
012016010478BBASB16     070BBAS  FM    ON      NM000R$  000000000007200000000000780000000000064000000000007200000000000640000000000000000000000010000139000000000000172600000000000012534900000000000157702016021500000010000000000000BRBBASACNOR3255
012016010478BBASB17     070BBAS        ON      NM000R$  000000000004800000000000500000000000044000000000004800000000000440000000000005000000000005200055000000000000167200000000000008136800000000000167702016021500000010000000000000BRBBASACNOR3255
012016010478BBASB18     070BBAS        ON      NM000R$  000000000003300000000000330000000000024000000000002700000000000240000000000024000000000003100021000000000000040300000000000001109700000000000182702016021500000010000000000000BRBBASACNOR3255
012016010478BBASB19     070BBAS        ON      NM000R$  000000000001900000000000200000000000018000000000001900000000000180000000000000000000000002500007000000000000022000000000000000437600000000000192702016021500000010000000000000BRBBASACNOR3255
012016010478BBASB20     070BBAS        ON      NM000R$  000000000001800000000000200000000000015000000000001700000000000150000000000015000000000001700095000000000000328600000000000005629400000000000197702016021500000010000000000000BRBBASACNOR3255
012016010478BBASB21     070BBAS        ON      NM000R$  000000000001200000000000130000000000011000000000001200000000000130000000000009000000000000000004000000000000004800000000000000058400000000000207702016021500000010000000000000BRBBASACNOR3255
012016010478BBASB22     070BBAS        ON      NM000R$  000000000000800000000000080000000000008000000000000800000000000080000000000005000000000000000005000000000000012400000000000000099200000000000217702016021500000010000000000000BRBBASACNOR3255
012016010478BBASB44     070BBAS  FM    ON      NM000R$  000000000012600000000001340000000000121000000000012800000000001210000000000000000000000000000041000000000000074500000000000009544200000000000142702016021500000010000000000000BRBBASACNOR3255
012016010478BBASB45     070BBAS  FM    ON      NM000R$  000000000008600000000000930000000000080000000000008700000000000800000000000000000000000000000023000000000000048500000000000004254600000000000152702016021500000010000000000000BRBBASACNOR3255
012016010478BBASB46     070BBAS        ON      NM000R$  000000000005800000000000610000000000054000000000005700000000000540000000000000000000000009000061000000000000101000000000000005785900000000000162702016021500000010000000000000BRBBASACNOR3255
012016010478BBASB48     070BBAS        ON      NM000R$  000000000003500000000000350000000000032000000000003300000000000330000000000020000000000000000024000000000000067000000000000002255500000000000177702016021500000010000000000000BRBBASACNOR3253
012016010478BBASB49     070BBAS        ON      NM000R$  000000000002300000000000230000000000023000000000002300000000000230000000000000000000000007000001000000000000000100000000000000002300000000000187702016021500000010000000000000BRBBASACNOR3253
012016010478BBASB50     070BBAS        ON      NM000R$  000000000001500000000000150000000000013000000000001400000000000130000000000000000000000001700012000000000000050500000000000000756500000000000202702016021500000010000000000000BRBBASACNOR3255
012016010478BBASB69     070BBASE       ON      NM000R$  000000000002000000000000200000000000020000000000002000000000000200000000000000000000000000000001000000000000000500000000000000010000000000000190202016021500000010000000000000BRBBASACNOR3255
012016010478BBASB76     070BBASE       ON      NM000R$  000000000005400000000000540000000000054000000000005400000000000540000000000000000000000000000001000000000000004000000000000000216000000000000165202016021500000010000000000000BRBBASACNOR3255
012016010478BBASB80     070BBASE       ON      NM000R$  000000000001400000000000140000000000014000000000001400000000000140000000000000000000000000000002000000000000004600000000000000064400000000000200202016021500000010000000000000BRBBASACNOR3253
012016010478BBASC15     070BBAS        ON      NM000R$  000000000014100000000001410000000000134000000000013900000000001400000000000121000000000014800005000000000000009300000000000001294800000000000151602016032100000010000000000000BRBBASACNOR3257
012016010478BBASC16     070BBAS        ON      NM000R$  000000000010100000000001040000000000098000000000009900000000000980000000000000000000000010500009000000000000031100000000000003087500000000000161602016032100000010000000000000BRBBASACNOR3257
012016010478BBASC17     070BBAS        ON      NM000R$  000000000007800000000000780000000000078000000000007800000000000780000000000000000000000000000002000000000000006000000000000000468000000000000171602016032100000010000000000000BRBBASACNOR3257
012016010478BBASC46     070BBAS        ON      NM000R$  000000000009000000000000900000000000088000000000008900000000000880000000000000000000000000000003000000000000010000000000000000892000000000000166602016032100000010000000000000BRBBASACNOR3257
012016010478BBASC47     070BBAS        ON      NM000R$  000000000006700000000000670000000000067000000000006700000000000670000000000000000000000000000001000000000000004000000000000000268000000000000176602016032100000010000000000000BRBBASACNOR3257
012016010478BBASC67     070BBASE       ON      NM000R$  000000000008300000000000830000000000083000000000008300000000000830000000000000000000000000000002000000000000007400000000000000614200000000000169102016032100000010000000000000BRBBASACNOR3255
012016010478BBASC72     070BBAS        ON      NM000R$  000000000003000000000000310000000000030000000000003000000000000310000000000026000000000004500002000000000000008000000000000000240600000000000201602016032100000010000000000000BRBBASACNOR3249
012016010478BBASC80     070BBAS        ON      NM000R$  000000000005400000000000540000000000050000000000005200000000000500000000000000000000000000000006000000000000001000000000000000052000000000000186602016032100000010000000000000BRBBASACNOR3249
012016010478BBASD18     070BBAS        ON      NM000R$  000000000008000000000000800000000000061000000000007000000000000610000000000041000000000008000002000000000000001000000000000000070500000000000187502016041800000010000000000000BRBBASACNOR3257
012016010478BBASH97     070BBAS        ON      NM000R$  000000000006400000000000640000000000064000000000006400000000000640000000000000000000000000000001000000000000000100000000000000006400000000000232702016081500000010000000000000BRBBASACNOR3253
012016010482BBASM13     080BBASE       ON      NM000R$  000000000001000000000000110000000000010000000000001000000000000110000000000000000000000001200002000000000000012900000000000000131900000000000127702016011800000010000000000000BRBBASACNOR3255
012016010482BBASM14     080BBASE FM    ON      NM000R$  000000000003300000000000340000000000027000000000003100000000000330000000000000000000000000000034000000000000086000000000000002678400000000000137702016011800000010000000000000BRBBASACNOR3255
012016010482BBASM15     080BBASE FM    ON      NM000R$  000000000005700000000000820000000000057000000000007400000000000820000000000072000000000008400081000000000000152000000000000011397100000000000147702016011800000010000000000000BRBBASACNOR3255
012016010482BBASM16     080BBASE       ON      NM000R$  000000000015000000000001550000000000139000000000014500000000001550000000000006000000000000000010000000000000012400000000000001802000000000000157702016011800000010000000000000BRBBASACNOR3255
012016010482BBASM17     080BBASE       ON      NM000R$  000000000024300000000002430000000000235000000000023900000000002400000000000080000000000000000004000000000000002800000000000000670400000000000167702016011800000010000000000000BRBBASACNOR3255
012016010482BBASM42     080BBASE       ON      NM000R$  000000000000600000000000060000000000006000000000000600000000000060000000000000000000000000000002000000000000008500000000000000051000000000000122702016011800000010000000000000BRBBASACNOR3255
012016010482BBASM43     080BBASE       ON      NM000R$  000000000002000000000000210000000000017000000000001800000000000210000000000000000000000002700012000000000000033000000000000000598400000000000132702016011800000010000000000000BRBBASACNOR3255
012016010482BBASM44     080BBASE FM    ON      NM000R$  000000000004700000000000520000000000046000000000004800000000000520000000000007000000000008000017000000000000027600000000000001335700000000000142702016011800000010000000000000BRBBASACNOR3255
012016010482BBASM45     080BBASE       ON      NM000R$  000000000011500000000001150000000000109000000000011200000000001090000000000007000000000000000002000000000000005000000000000000563000000000000152702016011800000010000000000000BRBBASACNOR3255
012016010482BBASM74     080BBASE       ON      NM000R$  000000000006000000000000600000000000060000000000006000000000000600000000000000000000000000000001000000000000002100000000000000126000000000000145202016011800000010000000000000BRBBASACNOR3255
012016010482BBASN11     080BBASE       ON      NM000R$  000000000000700000000000070000000000007000000000000700000000000070000000000005000000000000000002000000000000005000000000000000035000000000000107702016021500000010000000000000BRBBASACNOR3255
012016010482BBASN13     080BBASE       ON      NM000R$  000000000003800000000000380000000000036000000000003700000000000370000000000000000000000000000007000000000000039000000000000001450000000000000127702016021500000010000000000000BRBBASACNOR3255
012016010482BBASN14     080BBASE FM    ON      NM000R$  000000000007300000000000730000000000069000000000007000000000000700000000000010000000000000000024000000000000098100000000000006915400000000000137702016021500000010000000000000BRBBASACNOR3255
012016010482BBASN15     080BBASE FM    ON      NM000R$  000000000012100000000001270000000000115000000000012100000000001270000000000008000000000000000053000000000000140500000000000017015400000000000147702016021500000010000000000000BRBBASACNOR3255
012016010482BBASN16     080BBASE       ON      NM000R$  000000000018500000000001870000000000180000000000018500000000001820000000000000000000000000000028000000000000015200000000000002818200000000000157702016021500000010000000000000BRBBASACNOR3255
012016010482BBASN41     080BBASE       ON      NM000R$  000000000001200000000000120000000000011000000000001100000000000110000000000000000000000001200002000000000000005200000000000000057400000000000112702016021500000010000000000000BRBBASACNOR3255
012016010482BBASN42     080BBASE       ON      NM000R$  000000000002500000000000250000000000025000000000002500000000000250000000000000000000000000000005000000000000020000000000000000500000000000000122702016021500000010000000000000BRBBASACNOR3255
012016010482BBASN44     080BBASE FM    ON      NM000R$  000000000009500000000000960000000000090000000000009200000000000950000000000000000000000000000014000000000000027200000000000002518500000000000142702016021500000010000000000000BRBBASACNOR3255
012016010482BBASN45     080BBASE       ON      NM000R$  000000000014800000000001540000000000148000000000015100000000001500000000000000000000000000000005000000000000014200000000000002151700000000000152702016021500000010000000000000BRBBASACNOR3255
012016010482BBASN76     080BBASE       ON      NM000R$  000000000025500000000002550000000000239000000000024700000000002390000000000000000000000000000012000000000000004000000000000000989100000000000165202016021500000010000000000000BRBBASACNOR3255
012016010482BBASO16     080BBASE       ON      NM000R$  000000000022900000000002290000000000229000000000022900000000002290000000000000000000000000000001000000000000002600000000000000595400000000000161602016032100000010000000000000BRBBASACNOR3257
012016010482BBASO42     080BBASE       ON      NM000R$  000000000005900000000000590000000000059000000000005900000000000590000000000000000000000000000002000000000000010000000000000000590000000000000126602016032100000010000000000000BRBBASACNOR3257
012016010482BBASO43     080BBASE       ON      NM000R$  000000000009600000000000960000000000093000000000009300000000000930000000000000000000000010000003000000000000011000000000000001026000000000000136602016032100000010000000000000BRBBASACNOR3257
012016010482BBASO44     080BBASE       ON      NM000R$  000000000013700000000001450000000000137000000000014100000000001450000000000000000000000000000006000000000000017000000000000002403000000000000146602016032100000010000000000000BRBBASACNOR3257
012016010482BBASO45     080BBASE       ON      NM000R$  000000000019700000000001970000000000197000000000019700000000001970000000000000000000000000000002000000000000005000000000000000985000000000000156602016032100000010000000000000BRBBASACNOR3257
012016010410BBDC1       010BRADESCO    DIR ORD N1   R$  000000000011000000000001300000000000072000000000011200000000000720000000000072000000000011000145000000000000089600000000000010089700000000000000009999123100000010000000000000BRBBDCD13OR1641
012016010496BBDC1F      020BRADESCO    DIR ORD N1   R$  000000000010100000000001300000000000100000000000011300000000001000000000000020000000000011000056000000000000001507000000000000170413000000000000009999123100000010000000000000BRBBDCD13OR1641
012016010410BBDC2       010BRADESCO    DIR PRE N1   R$  000000000022900000000002290000000000168000000000019100000000001870000000000187000000000019700445000000000000558700000000000106932700000000000000009999123100000010000000000000BRBBDCD13PR8641
012016010496BBDC2F      020BRADESCO    DIR PRE N1   R$  000000000021000000000002100000000000165000000000018700000000001770000000000177000000000019800309000000000000007860000000000001471900000000000000009999123100000010000000000000BRBBDCD13PR8641
012016010402BBDC3       010BRADESCO    ON  ES  N1   R$  000000000202000000000020480000000001998000000000202100000000020200000000002018000000000202007681000000000001974100000000003990354900000000000000009999123100000010000000000000BRBBDCACNOR1642
012016010496BBDC3F      020BRADESCO    ON  ES  N1   R$  000000000200800000000020500000000002001000000000202000000000020280000000002001000000000202800174000000000000004389000000000008867335000000000000009999123100000010000000000000BRBBDCACNOR1642
012016010402BBDC4       010BRADESCO    PN  ES  N1   R$  000000000190200000000019280000000001878000000000190300000000019000000000001900000000000190124028000000000010724300000000020415479600000000000000009999123100000010000000000000BRBBDCACNPR8642
012016010496BBDC4F      020BRADESCO    PN  ES  N1   R$  000000000191400000000019300000000001882000000000190300000000019170000000001897000000000191700289000000000000005955000000000011335810000000000000009999123100000010000000000000BRBBDCACNPR8642
012016010462BBDC4T      030BRADESCO    PN  ES  N1016R$  000000000190500000000019120000000001905000000000190700000000019120000000000000000000000000000004000000000000001500000000000002861348000000000000009999123100000010000000000000BRBBDCACNPR8642
012016010462BBDC4T      030BRADESCO    PN  ES  N1017R$  000000000191500000000019160000000001915000000000191500000000019160000000000000000000000000000002000000000000058000000000000111106883000000000000009999123100000010000000000000BRBBDCACNPR8642
012016010462BBDC4T      030BRADESCO    PN  ES  N1030R$  000000000191900000000019340000000001919000000000192700000000019320000000000000000000000000000010000000000000016900000000000032582698000000000000009999123100000010000000000000BRBBDCACNPR8642
012016010462BBDC4T      030BRADESCO    PN  ES  N1045R$  000000000193600000000019370000000001936000000000193600000000019370000000000000000000000000000056000000000000005000000000000009684547000000000000009999123100000010000000000000BRBBDCACNPR8642
012016010462BBDC4T      030BRADESCO    PN  ES  N1060R$  000000000192500000000019300000000001925000000000192800000000019300000000000000000000000000000004000000000000003300000000000006365676000000000000009999123100000010000000000000BRBBDCACNPR8642
012016010478BBDCA21     070BBDC  FM/ES PN      N1000R$  000000000002700000000000270000000000016000000000001900000000000190000000000018000000000001900331000000000000589800000000000011451400000000000201302016011800000010000000000000BRBBDCACNPR8638
012016010478BBDCA22     070BBDC    /ES PN      N1000R$  000000000001000000000000100000000000007000000000000700000000000070000000000001000000000000800068000000000000188200000000000001439900000000000211302016011800000010000000000000BRBBDCACNPR8637
012016010478BBDCA24     070BBDC    /ES PN      N1000R$  000000000000300000000000030000000000002000000000000200000000000030000000000002000000000000300010000000000000092100000000000000251200000000000231302016011800000010000000000000BRBBDCACNPR8637
012016010478BBDCA32     070BBDCE   /ES PN      N1000R$  000000000000700000000000070000000000007000000000000700000000000070000000000001000000000001100001000000000000004000000000000000028000000000000213802016011800000010000000000000BRBBDCACNPR8638
012016010478BBDCA50     070BBDC  FM/ES PN      N1000R$  000000000005400000000000640000000000043000000000005100000000000550000000000045000000000000000159000000000000307300000000000015794400000000000191302016011800000010000000000000BRBBDCACNPR8637
012016010478BBDCA51     070BBDC  FM/ES PN      N1000R$  000000000001200000000000150000000000009000000000001100000000000110000000000000000000000001600147000000000000175700000000000001938100000000000206302016011800000010000000000000BRBBDCACNPR8639
012016010478BBDCA6      070BBDC    /ES PN      N1000R$  000000000000500000000000050000000000004000000000000400000000000050000000000003000000000000500005000000000000007100000000000000029700000000000221302016011800000010000000000000BRBBDCACNPR8637
012016010478BBDCA60     070BBDCE   /ES PN      N1000R$  000000000005000000000000500000000000050000000000005000000000000500000000000000000000000000000003000000000000003000000000000000150000000000000193802016011800000010000000000000BRBBDCACNPR8637
012016010478BBDCA61     070BBDCE   /ES PN      N1000R$  000000000001400000000000170000000000014000000000001400000000000140000000000010000000000009400005000000000000034200000000000000486900000000000203802016011800000010000000000000BRBBDCACNPR8637
012016010478BBDCA7      070BBDC    /ES PN      N1000R$  000000000000700000000000070000000000005000000000000500000000000050000000000001000000000001500005000000000000011500000000000000065500000000000216302016011800000010000000000000BRBBDCACNPR8639
012016010478BBDCA70     070BBDC  FM/ES PN      N1000R$  000000000002800000000000400000000000028000000000003300000000000340000000000008000000000010000035000000000000067700000000000002290100000000000196302016011800000010000000000000BRBBDCACNPR8639
012016010478BBDCA9      070BBDCE   /ES PN      N1000R$  000000000000500000000000050000000000005000000000000500000000000050000000000000000000000000500003000000000000012000000000000000060000000000000218802016011800000010000000000000BRBBDCACNPR8640
012016010478BBDCA92     070BBDCE   /ES ON      N1000R$  000000000001000000000000100000000000010000000000001000000000000100000000000000000000000000000002000000000000450000000000000004500000000000000219502016011800000010000000000000BRBBDCACNOR1633
012016010478BBDCB19     070BBDC    /ES PN      N1000R$  000000000015000000000001500000000000150000000000015000000000001500000000000087000000000000000001000000000000004000000000000000600000000000000183002016021500000010000000000000BRBBDCACNPR8638
012016010478BBDCB2      070BBDCE   /ES PN      N1000R$  000000000006700000000000680000000000065000000000006600000000000650000000000000000000000000000006000000000000007200000000000000480000000000000200502016021500000010000000000000BRBBDCACNPR8639
012016010478BBDCB21     070BBDC    /ES PN      N1000R$  000000000005000000000000620000000000050000000000005500000000000540000000000000000000000006700020000000000000059200000000000003295000000000000203002016021500000010000000000000BRBBDCACNPR8639
012016010478BBDCB22     070BBDC    /ES PN      N1000R$  000000000003000000000000330000000000030000000000003000000000000300000000000000000000000004200008000000000000036700000000000001101300000000000213002016021500000010000000000000BRBBDCACNPR8639
012016010478BBDCB23     070BBDC    /ES PN      N1000R$  000000000001600000000000180000000000016000000000001600000000000160000000000006000000000002200016000000000000007700000000000000127000000000000223002016021500000010000000000000BRBBDCACNPR8639
012016010478BBDCB24     070BBDCE   /ES PN      N1000R$  000000000001100000000000110000000000011000000000001100000000000110000000000000000000000000000018000000000000050000000000000000550000000000000230502016021500000010000000000000BRBBDCACNPR8634
012016010478BBDCB25     070BBDC    /ES PN      N1000R$  000000000000600000000000060000000000006000000000000600000000000060000000000000000000000000800001000000000000003600000000000000021600000000000243002016021500000010000000000000BRBBDCACNPR8639
012016010478BBDCB49     070BBDC  FM/ES PN      N1000R$  000000000011000000000001330000000000109000000000012100000000001230000000000000000000000000000181000000000000354200000000000042956500000000000188002016021500000010000000000000BRBBDCACNPR8639
012016010478BBDCB50     070BBDC  FM/ES PN      N1000R$  000000000006900000000000830000000000065000000000007400000000000740000000000035000000000016100056000000000000096600000000000007173800000000000198002016021500000010000000000000BRBBDCACNPR8638
012016010478BBDCB51     070BBDC  FM/ES PN      N1000R$  000000000003900000000000480000000000039000000000004100000000000420000000000000000000000006000035000000000000090700000000000003746300000000000208002016021500000010000000000000BRBBDCACNPR8639
012016010478BBDCB52     070BBDC    /ES PN      N1000R$  000000000002300000000000230000000000023000000000002300000000000230000000000000000000000000000004000000000000009100000000000000209300000000000218002016021500000010000000000000BRBBDCACNPR8639
012016010478BBDCB53     070BBDC    /ES PN      N1000R$  000000000001200000000000120000000000012000000000001200000000000120000000000000000000000001500001000000000000000100000000000000001200000000000228002016021500000010000000000000BRBBDCACNPR8636
012016010478BBDCB54     070BBDC    /ES PN      N1000R$  000000000001000000000000100000000000009000000000000900000000000090000000000009000000000001200020000000000000057900000000000000521500000000000233002016021500000010000000000000BRBBDCACNPR8639
012016010478BBDCB61     070BBDCE   /ES PN      N1000R$  000000000004700000000000560000000000042000000000004700000000000470000000000044000000000005600022000000000000005300000000000000252900000000000205502016021500000010000000000000BRBBDCACNPR8638
012016010478BBDCB62     070BBDCE   /ES PN      N1000R$  000000000002800000000000280000000000028000000000002800000000000280000000000000000000000000000003000000000000003000000000000000084000000000000215502016021500000010000000000000BRBBDCACNPR8636
012016010478BBDCB72     070BBDCE   /ES PN      N1000R$  000000000002200000000000220000000000022000000000002200000000000220000000000000000000000000000001000000000000000200000000000000004400000000000220502016021500000010000000000000BRBBDCACNPR8638
012016010478BBDCB80     070BBDC  FM/ES PN      N1000R$  000000000008600000000001060000000000086000000000009400000000000960000000000000000000000014500096000000000000186200000000000017586600000000000193002016021500000010000000000000BRBBDCACNPR8639
012016010478BBDCB81     070BBDCE   /ES PN      N1000R$  000000000003900000000000390000000000036000000000003700000000000360000000000000000000000000000005000000000000024200000000000000899400000000000210502016021500000010000000000000BRBBDCACNPR8636
012016010478BBDCB89     070BBDCE       PN      N1000R$  000000000046000000000004600000000000460000000000046000000000004600000000000000000000000000000002000000000000210000000000000096600000000000000192502017022000000010000000000000BRBBDCACNPR8642
012016010478BBDCB92     070BBDCE       PN      N1000R$  000000000023300000000002330000000000232000000000023200000000002320000000000000000000000000000003000000000000420000000000000097840000000000000232502017022000000010000000000000BRBBDCACNPR8642
012016010478BBDCC20     070BBDC    /ES PN      N1000R$  000000000012200000000001220000000000122000000000012200000000001220000000000000000000000000000001000000000000000200000000000000024400000000000196302016032100000010000000000000BRBBDCACNPR8640
012016010478BBDCC21     070BBDC    /ES PN      N1000R$  000000000009100000000000910000000000091000000000009100000000000910000000000051000000000010200001000000000000001500000000000000136500000000000206302016032100000010000000000000BRBBDCACNPR8640
012016010478BBDCC23     070BBDC    /ES PN      N1000R$  000000000004200000000000420000000000042000000000004200000000000420000000000000000000000000000001000000000000084900000000000003565800000000000226502016032100000010000000000000BRBBDCACNPR8636
012016010478BBDCC40     070BBDC    /ES PN      N1000R$  000000000011000000000001190000000000110000000000011100000000001100000000000000000000000012000007000000000000010500000000000001172700000000000201302016032100000010000000000000BRBBDCACNPR8640
012016010478BBDCC41     070BBDCE   /ES PN      N1000R$  000000000006200000000000620000000000057000000000006100000000000570000000000051000000000006400003000000000000004200000000000000259500000000000219002016032100000010000000000000BRBBDCACNPR8642
012016010478BBDCC72     070BBDC    /ES PN      N1000R$  000000000007800000000000830000000000078000000000008100000000000780000000000000000000000000000004000000000000002500000000000000203000000000000211502016032100000010000000000000BRBBDCACNPR8639
012016010478BBDCC82     070BBDC    /ES PN      N1000R$  000000000007000000000000700000000000064000000000006800000000000640000000000000000000000000000003000000000000006800000000000000466400000000000216502016032100000010000000000000BRBBDCACNPR8639
012016010478BBDCE73     070BBDC    /ES PN      N1000R$  000000000009000000000000900000000000090000000000009000000000000900000000000000000000000000000001000000000000000500000000000000045000000000000223002016051600000010000000000000BRBBDCACNPR8636
012016010478BBDCJ67     070BBDCE   /ES ON      N1000R$  000000000006400000000000640000000000064000000000006400000000000640000000000000000000000000000002000000000000692000000000000044288000000000000329302016101700000010000000000000BRBBDCACNOR1637
012016010482BBDCM21     080BBDCE   /ES PN      N1000R$  000000000012200000000001290000000000107000000000011300000000001180000000000100000000000017000093000000000000225200000000000025468500000000000201302016011800000010000000000000BRBBDCACNPR8638
012016010482BBDCM22     080BBDCE   /ES PN      N1000R$  000000000022000000000002200000000000215000000000021900000000002200000000000190000000000000000008000000000000019100000000000004201000000000000211302016011800000010000000000000BRBBDCACNPR8637
012016010482BBDCM24     080BBDCE   /ES PN      N1000R$  000000000039300000000003930000000000393000000000039300000000003930000000000000000000000000000001000000000000000900000000000000353700000000000231302016011800000010000000000000BRBBDCACNPR8637
012016010482BBDCM49     080BBDCE FM/ES PN      N1000R$  000000000003800000000000400000000000030000000000003300000000000310000000000000000000000005000043000000000000111200000000000003710900000000000186302016011800000010000000000000BRBBDCACNPR8638
012016010482BBDCM50     080BBDCE FM/ES PN      N1000R$  000000000006400000000000640000000000049000000000005300000000000520000000000000000000000006000133000000000000322000000000000017263800000000000191302016011800000010000000000000BRBBDCACNPR8637
012016010482BBDCM58     080BBDCE   /ES PN      N1000R$  000000000000600000000000070000000000006000000000000600000000000070000000000000000000000000700002000000000000008400000000000000054800000000000171302016011800000010000000000000BRBBDCACNPR8638
012016010482BBDCM59     080BBDCE   /ES PN      N1000R$  000000000002100000000000210000000000017000000000002000000000000200000000000001000000000002100011000000000000007000000000000000140700000000000181302016011800000010000000000000BRBBDCACNPR8638
012016010482BBDCM60     080BBDCE FM/ES PN      N1000R$  000000000007000000000000800000000000060000000000006900000000000640000000000000000000000000000190000000000000405800000000000028284200000000000193802016011800000010000000000000BRBBDCACNPR8637
012016010482BBDCM70     080BBDCE   /ES PN      N1000R$  000000000009200000000000940000000000075000000000008600000000000790000000000051000000000010500009000000000000017700000000000001524200000000000196302016011800000010000000000000BRBBDCACNPR8639
012016010482BBDCN18     080BBDCE   /ES PN      N1000R$  000000000002700000000000290000000000027000000000002800000000000290000000000000000000000000000002000000000000011600000000000000333200000000000173002016021500000010000000000000BRBBDCACNPR8639
012016010482BBDCN19     080BBDCE FM/ES PN      N1000R$  000000000005400000000000560000000000051000000000005300000000000510000000000000000000000000000017000000000000033800000000000001803400000000000183002016021500000010000000000000BRBBDCACNPR8638
012016010482BBDCN2      080BBDCE   /ES PN      N1000R$  000000000013700000000001370000000000133000000000013400000000001350000000000000000000000000000005000000000000012200000000000001640000000000000200502016021500000010000000000000BRBBDCACNPR8639
012016010482BBDCN21     080BBDCE   /ES PN      N1000R$  000000000014000000000001570000000000140000000000014600000000001490000000000000000000000000000009000000000000039200000000000005744000000000000203002016021500000010000000000000BRBBDCACNPR8639
012016010482BBDCN49     080BBDCE FM/ES PN      N1000R$  000000000007700000000000770000000000069000000000007100000000000690000000000000000000000008500053000000000000116700000000000008390700000000000188002016021500000010000000000000BRBBDCACNPR8639
012016010482BBDCN50     080BBDCE   /ES PN      N1000R$  000000000011300000000001240000000000113000000000011700000000001180000000000000000000000000000004000000000000009500000000000001119000000000000198002016021500000010000000000000BRBBDCACNPR8638
012016010482BBDCN54     080BBDCE   /ES PN      N1000R$  000000000039200000000003920000000000392000000000039200000000003920000000000000000000000000000001000000000000000900000000000000352800000000000233002016021500000010000000000000BRBBDCACNPR8639
012016010482BBDCN60     080BBDCE   /ES PN      N1000R$  000000000011400000000001140000000000100000000000010700000000001040000000000000000000000000000023000000000000064200000000000006890400000000000195502016021500000010000000000000BRBBDCACNPR8638
012016010482BBDCN61     080BBDCE   /ES PN      N1000R$  000000000018600000000001860000000000159000000000016800000000001660000000000000000000000000000008000000000000030400000000000005128600000000000205502016021500000010000000000000BRBBDCACNPR8638
012016010482BBDCN80     080BBDCE FM/ES PN      N1000R$  000000000010200000000001050000000000085000000000009500000000000910000000000000000000000009800111000000000000268800000000000025779300000000000193002016021500000010000000000000BRBBDCACNPR8639
012016010482BBDCO21     080BBDCE   /ES PN      N1000R$  000000000018600000000001920000000000186000000000018800000000001920000000000000000000000000000002000000000000006800000000000001281600000000000206302016032100000010000000000000BRBBDCACNPR8640
012016010482BBDCO40     080BBDCE   /ES PN      N1000R$  000000000016600000000001660000000000166000000000016600000000001660000000000000000000000000000001000000000000000100000000000000016600000000000201302016032100000010000000000000BRBBDCACNPR8640
012016010482BBDCO51     080BBDCE   /ES PN      N1000R$  000000000020700000000002090000000000207000000000020800000000002090000000000000000000000000000002000000000000006500000000000001353300000000000208802016032100000010000000000000BRBBDCACNPR8638
012016010482BBDCO60     080BBDCE   /ES PN      N1000R$  000000000013100000000001310000000000131000000000013100000000001310000000000000000000000000000001000000000000000100000000000000013100000000000193802016032100000010000000000000BRBBDCACNPR8640
012016010482BBDCO81     080BBDCE   /ES PN      N1000R$  000000000017300000000001730000000000173000000000017300000000001730000000000000000000000000000001000000000000084900000000000014687700000000000203802016032100000010000000000000BRBBDCACNPR8639
012016010482BBDCO98     080BBDCE   /ES PN      N1000R$  000000000008500000000000850000000000085000000000008500000000000850000000000000000000000000000001000000000000084900000000000007216500000000000181302016032100000010000000000000BRBBDCACNPR8639
012016010482BBDCV66     080BBDCE   /ES ON      N1000R$  000000000023000000000002300000000000230000000000023000000000002300000000000000000000000000000001000000000000346000000000000079580000000000000211802016101700000010000000000000BRBBDCACNOR1637
012016010482BBDCV77     080BBDCE   /ES ON      N1000R$  000000000036800000000003680000000000368000000000036800000000003680000000000000000000000000000001000000000000346000000000000127328000000000000239302016101700000010000000000000BRBBDCACNOR1636
012016010412BBPO11      010FII BB PRGIICI  ER       R$  000000000961900000000096190000000009550000000000958200000000095500000000009550000000000959200184000000000000025290000000000242352067000000000000009999123100000010000000000000BRBBPOCTF003138
012016010412BBRC11      010FII BB CORP CI  ER       R$  000000000850000000000085000000000008400000000000848300000000084000000000008400000000000849900005000000000000000036000000000000305390000000000000009999123100000010000000000000BRBBRCCTF004152
012016010402BBRK3       010BR BROKERS  ON      NM   R$  000000000013100000000001390000000000130000000000013300000000001330000000000133000000000013500811000000000000599600000000000080129500000000000000009999123100000010000000000000BRBBRKACNOR4110
012016010496BBRK3F      020BR BROKERS  ON      NM   R$  000000000014500000000001460000000000132000000000014200000000001330000000000132000000000013700013000000000000000299000000000000042635000000000000009999123100000010000000000000BRBBRKACNOR4110
012016010414BBSD11      010BB ETF SP DVCI           R$  000000000283700000000028370000000002825000000000282500000000028250000000002751000000000000000003000000000000001140000000000003221080000000000000009999123100000010000000000000BRBBSDCTF000100
012016010402BBSE3       010BBSEGURIDADEON      NM   R$  000000000238500000000024150000000002258000000000233200000000022830000000002281000000000228321064000000000006505000000000015170220400000000000000009999123100000010000000000000BRBBSEACNOR5105
012016010496BBSE3F      020BBSEGURIDADEON      NM   R$  000000000241600000000024160000000002256000000000235200000000023800000000002322000000000238000376000000000000006860000000000016136994000000000000009999123100000010000000000000BRBBSEACNOR5105
012016010462BBSE3T      030BBSEGURIDADEON      NM016R$  000000000238500000000023860000000002274000000000229900000000022970000000000000000000000000000008000000000000043000000000000098857776000000000000009999123100000010000000000000BRBBSEACNOR5105
012016010462BBSE3T      030BBSEGURIDADEON      NM030R$  000000000241300000000024140000000002315000000000238800000000023160000000000000000000000000000004000000000000000800000000000001911108000000000000009999123100000010000000000000BRBBSEACNOR5105
012016010478BBSEA25     070BBSE        ON      NM000R$  000000000003500000000000390000000000014000000000001800000000000140000000000008000000000008000005000000000000006300000000000000113400000000000251202016011800000010000000000000BRBBSEACNOR5105
012016010478BBSEA29     070BBSE        ON      NM000R$  000000000001000000000000100000000000010000000000001000000000000100000000000000000000000002500001000000000000000500000000000000005000000000000281202016011800000010000000000000BRBBSEACNOR5104
012016010478BBSEA53     070BBSE  FM    ON      NM000R$  000000000004500000000000470000000000045000000000004600000000000470000000000000000000000000000004000000000000040000000000000001840000000000000236202016011800000010000000000000BRBBSEACNOR5105
012016010478BBSEA54     070BBSE  FM    ON      NM000R$  000000000002200000000000220000000000022000000000002200000000000220000000000000000000000040000001000000000000007000000000000000154000000000000246202016011800000010000000000000BRBBSEACNOR5105
012016010478BBSEA55     070BBSE  FM    ON      NM000R$  000000000002400000000000270000000000024000000000002400000000000240000000000008000000000003500004000000000000010600000000000000258600000000000256202016011800000010000000000000BRBBSEACNOR5105
012016010478BBSEA56     070BBSE  FM    ON      NM000R$  000000000000500000000000060000000000005000000000000500000000000060000000000000000000000000000002000000000000025300000000000000142800000000000266202016011800000010000000000000BRBBSEACNOR5105
012016010478BBSEA57     070BBSE        ON      NM000R$  000000000000400000000000040000000000004000000000000400000000000040000000000000000000000000000001000000000000003500000000000000014000000000000276202016011800000010000000000000BRBBSEACNOR5105
012016010478BBSEA58     070BBSE        ON      NM000R$  000000000000400000000000040000000000004000000000000400000000000040000000000000000000000000000001000000000000000500000000000000002000000000000286202016011800000010000000000000BRBBSEACNOR5105
012016010478BBSEB24     070BBSE        ON      NM000R$  000000000012400000000001240000000000102000000000010900000000001030000000000000000000000010500004000000000000003000000000000000329000000000000241202016021500000010000000000000BRBBSEACNOR5105
012016010478BBSEB26     070BBSE        ON      NM000R$  000000000004000000000000400000000000040000000000004000000000000400000000000000000000000000000005000000000000027200000000000001088000000000000261202016021500000010000000000000BRBBSEACNOR5105
012016010478BBSEB43     070BBSE  FM    ON      NM000R$  000000000012300000000001230000000000101000000000011700000000001040000000000000000000000000000017000000000000070000000000000008222900000000000236202016021500000010000000000000BRBBSEACNOR5105
012016010478BBSEB45     070BBSE  FM    ON      NM000R$  000000000004500000000000450000000000045000000000004500000000000450000000000000000000000000000001000000000000025300000000000001138500000000000256202016021500000010000000000000BRBBSEACNOR5105
012016010478BBSEB76     070BBSEE       ON      NM000R$  000000000002200000000000220000000000022000000000002200000000000220000000000000000000000000000001000000000000001000000000000000022000000000000268702016021500000010000000000000BRBBSEACNOR5105
012016010482BBSEM23     080BBSEE       ON      NM000R$  000000000009600000000000960000000000096000000000009600000000000960000000000000000000000000000001000000000000004000000000000000384000000000000231202016011800000010000000000000BRBBSEACNOR5105
012016010482BBSEM24     080BBSEE       ON      NM000R$  000000000015900000000001610000000000159000000000016000000000001610000000000000000000000000000002000000000000004200000000000000675800000000000241202016011800000010000000000000BRBBSEACNOR5105
012016010482BBSEM55     080BBSEE       ON      NM000R$  000000000025400000000002540000000000254000000000025400000000002540000000000000000000000000000001000000000000000500000000000000127000000000000256202016011800000010000000000000BRBBSEACNOR5105
012016010482BBSEN24     080BBSEE       ON      NM000R$  000000000016300000000001630000000000163000000000016300000000001630000000000000000000000000000001000000000000000800000000000000130400000000000241202016021500000010000000000000BRBBSEACNOR5105
012016010482BBSEN25     080BBSEE       ON      NM000R$  000000000019900000000001990000000000178000000000019200000000001780000000000000000000000000000002000000000000001200000000000000230400000000000251202016021500000010000000000000BRBBSEACNOR5105
012016010402BBTG11      010BTG PACTUAL UNT EJ       R$  000000000150900000000015300000000001480000000000150300000000015300000000001510000000000153000908000000000000279900000000000420727700000000000000009999123100000010000000000000BRBBTGUNT007113
012016010496BBTG11F     020BTG PACTUAL UNT EJ       R$  000000000152500000000015700000000001486000000000150900000000014920000000001492000000000153500014000000000000000310000000000000467853000000000000009999123100000010000000000000BRBBTGUNT007113
012016010462BBTG11T     030BTG PACTUAL UNT EJ    016R$  000000000151700000000015180000000001517000000000151700000000015180000000000000000000000000000002000000000000010000000000000015178125000000000000009999123100000010000000000000BRBBTGUNT007113
012016010412BBVJ11      010FII C JARDIMCI  ER       R$  000000000528900000000053500000000005200000000000522700000000053500000000005205000000000535000021000000000000000425000000000002221788000000000000009999123100000010000000000000BRBBVJCTF001161
012016010412BCFF11B     010FII BC FFII CI      MB   R$  000000000575000000000057500000000005720000000000572600000000057500000000005720000000000575000027000000000000001806000000000010341524000000000000009999123100000010000000000000BRBCFFCTF000169
012016010412BCRI11      010FII BEES CRICI  ER       R$  000000000967900000000096790000000009679000000000967900000000096790000000009640000000000967900001000000000000000001000000000000009679000000000000009999123100000010000000000000BRBCRICTF009106
012016010402BEEF3       010MINERVA     ON      NM   R$  000000000131400000000013140000000001235000000000126800000000012500000000001250000000000125103991000000000001074600000000001363251900000000000000009999123100000010000000000000BRBEEFACNOR6105
012016010496BEEF3F      020MINERVA     ON      NM   R$  000000000128000000000013000000000001012000000000125500000000012340000000001236000000000132800066000000000000001517000000000001904898000000000000009999123100000010000000000000BRBEEFACNOR6105
012016010402BEES3       010BANESTES    ON  EJ       R$  000000000019000000000001900000000000175000000000017600000000001750000000000174000000000017500014000000000000015000000000000002651400000000000000009999123100000010000000000000BRBEESACNOR9276
012016010402BEES4       010BANESTES    PN  EJ       R$  000000000017600000000001950000000000176000000000017600000000001780000000000174000000000017800009000000000000009500000000000001678200000000000000009999123100000010000000000000BRBEESACNPR6201
012016010402BERK34      010BERKSHIRE   DRN          R$  000000005260600000000526060000000052606000000005260600000000526060000000049751000000005724100001000000000000000100000000000005260600000000000000009999123100000010000000000000BRBERKBDR002100
012016010496BERK34F     020BERKSHIRE   DRN          R$  000000005250000000000525000000000052296000000005233000000000522960000000039500000000000000000002000000000000000012000000000000627960000000000000009999123100000010000000000000BRBERKBDR002100
012016010402BGIP4       010BANESE      PN           R$  000000000113500000000011350000000001135000000000113500000000011350000000001021000000000113400001000000000000000100000000000000113500000000000000009999123100000010000000000000BRBGIPACNPR8186
012016010402BMEB3       010MERC BRASIL ON           R$  000000000070000000000007000000000000700000000000070000000000007000000000000350000000000070000001000000000000000200000000000000140000000000000000009999123100000010000000000000BRBMEBACNOR8191
012016010402BMKS3       010BIC MONARK  ON           R$  000000002570000000000257000000000025700000000002570000000000257000000000024513000000002570000001000000000000000001000000000000025700000000000000009999123100000010000000000000BRBMKSACNOR9157
012016010412BMLC11B     010FII BMBRC LCCI      MB   R$  000000000785100000000081000000000007851000000000798400000000081000000000007860000000000810000007000000000000000165000000000001317504000000000000009999123100000010000000000000BRBMLCCTF004146
012016010402BOAC34      010BANK AMERICADRN          R$  000000000663900000000066390000000006639000000000663900000000066390000000004400000000000000000001000000000000001700000000000011286300000000000000009999123100000010000000000000BRBOACBDR004121
012016010496BOAC34F     020BANK AMERICADRN          R$  000000000663900000000066390000000006580000000000658300000000065800000000000000000000000000000002000000000000000080000000000000526695000000000000009999123100000010000000000000BRBOACBDR004121
012016010496BOEI34F     020BOEING      DRN          R$  000000005671700000000567170000000056717000000005671700000000567170000000000000000000000000000001000000000000000005000000000000283585000000000000009999123100000010000000000000BRBOEIBDR003115
012016010496BONY34F     020BNY MELLON  DRN          R$  000000001608300000000160830000000016083000000001608300000000160830000000000000000000000000000001000000000000000054000000000000868482000000000000009999123100000010000000000000BRBONYBDR001101
012016010414BOVA11      010ISHARES BOVACI           R$  000000000410000000000042300000000004080000000000412700000000041100000000004080000000000411003628000000000001709240000000007054043950000000000000009999123100000010000000000000BRBOVACTF003102
012016010496BOVA11F     020ISHARES BOVACI           R$  000000000418000000000041800000000004102000000000414800000000041020000000004002000000000417900017000000000000000058000000000000240595000000000000009999123100000010000000000000BRBOVACTF003102
012016010462BOVA11T     030ISHARES BOVACI        365R$  000000000480900000000048100000000004809000000000480900000000048100000000000000000000000000000002000000000000000300000000000001442790000000000000009999123100000010000000000000BRBOVACTF003102
012016010478BOVAA12     070BOVA        CI        000R$  000000000005000000000000500000000000047000000000004800000000000470000000000000000000000000000004000000000000009400000000000000458000000000000425002016011800000010000000000000BRBOVACTF003102
012016010478BOVAA43     070BOVA  FM    CI        000R$  000000000003200000000000370000000000032000000000003300000000000330000000000016000000000004000007000000000000002300000000000000076100000000000430002016011800000010000000000000BRBOVACTF003102
012016010478BOVAA44     070BOVA  FM    CI        000R$  000000000001700000000000170000000000014000000000001500000000000140000000000004000000000001600002000000000000000200000000000000003100000000000440002016011800000010000000000000BRBOVACTF003102
012016010478BOVAA45     070BOVA  FM    CI        000R$  000000000000500000000000080000000000005000000000000600000000000080000000000000000000000005500005000000000000021000000000000000133000000000000450002016011800000010000000000000BRBOVACTF003102
012016010478BOVAB41     070BOVA        CI        000R$  000000000020500000000002050000000000176000000000017900000000001760000000000000000000000000000003000000000000000610000000000000109740000000000410002016021500000010000000000000BRBOVACTF003102
012016010478BOVAB42     070BOVA  FM    CI        000R$  000000000013800000000001530000000000121000000000014400000000001210000000000111000000000000000013000000000000016540000000000002388640000000000420002016021500000010000000000000BRBOVACTF003102
012016010478BOVAB43     070BOVA  FM    CI        000R$  000000000009600000000000960000000000096000000000009600000000000960000000000000000000000000000001000000000000000300000000000000028800000000000430002016021500000010000000000000BRBOVACTF003102
012016010478BOVAB44     070BOVA  FM    CI        000R$  000000000006300000000000690000000000060000000000006500000000000600000000000000000000000000000007000000000000013700000000000000894000000000000440002016021500000010000000000000BRBOVACTF003102
012016010482BOVAM40     080BOVAE       CI        000R$  000000000004200000000000470000000000042000000000004400000000000470000000000040000000000004900002000000000000000200000000000000008900000000000400002016011800000010000000000000BRBOVACTF003102
012016010482BOVAM41     080BOVAE FM    CI        000R$  000000000007600000000000830000000000063000000000007800000000000830000000000000000000000000000014000000000000005100000000000000402100000000000410002016011800000010000000000000BRBOVACTF003102
012016010482BOVAM42     080BOVAE FM    CI        000R$  000000000011800000000001420000000000118000000000012700000000001420000000000000000000000000000003000000000000001300000000000000165300000000000420002016011800000010000000000000BRBOVACTF003102
012016010482BOVAM43     080BOVAE FM    CI        000R$  000000000017400000000001740000000000172000000000017300000000001720000000000000000000000000000002000000000000000200000000000000034600000000000430002016011800000010000000000000BRBOVACTF003102
012016010482BOVAM44     080BOVAE       CI        000R$  000000000027100000000002710000000000271000000000027100000000002710000000000000000000000000000001000000000000000300000000000000081300000000000440002016011800000010000000000000BRBOVACTF003102
012016010482BOVAN40     080BOVAE       CI        000R$  000000000008200000000000870000000000082000000000008400000000000870000000000000000000000000000005000000000000000500000000000000042100000000000400002016021500000010000000000000BRBOVACTF003102
012016010482BOVAN41     080BOVAE FM    CI        000R$  000000000013100000000001310000000000131000000000013100000000001310000000000000000000000000000001000000000000000100000000000000013100000000000410002016021500000010000000000000BRBOVACTF003102
012016010402BPAN4       010BANCO PAN   PN      N1   R$  000000000016100000000001790000000000161000000000016700000000001790000000000168000000000017900009000000000000013600000000000002276500000000000000009999123100000010000000000000BRBPANACNPR1103
012016010412BPFF11      010FII ABSOLUTOCI  ER       R$  000000000670000000000067000000000006517000000000659700000000066480000000006538000000000664800026000000000000001095000000000007224674000000000000009999123100000010000000000000BRBPFFCTF002133
012016010422BPHA11      010BR PHARMA   BNS ORD NM   R$  000000000000100000000000020000000000001000000000000100000000000020000000000001000000000000200011000000000000088200000000000000174400000000000000009999123100000010000000000000BRBPHAN01OR0100
012016010402BPHA3       010BR PHARMA   ON      NM   R$  000000000046500000000004840000000000465000000000046900000000004680000000000468000000000047000085000000000000049100000000000023075200000000000000009999123100000010000000000000BRBPHAACNOR6104
012016010496BPHA3F      020BR PHARMA   ON      NM   R$  000000000046500000000004800000000000465000000000047300000000004730000000000468000000000053500016000000000000000352000000000000166838000000000000009999123100000010000000000000BRBPHAACNOR6104
012016010462BPHA3T      030BR PHARMA   ON      NM030R$  000000000047500000000004760000000000475000000000047500000000004760000000000000000000000000000002000000000000000200000000000000095043000000000000009999123100000010000000000000BRBPHAACNOR6104
012016010402BRAP3       010BRADESPAR   ON      N1   R$  000000000043100000000004510000000000428000000000043700000000004280000000000425000000000042900081000000000000015900000000000006963400000000000000009999123100000010000000000000BRBRAPACNOR5129
012016010496BRAP3F      020BRADESPAR   ON      N1   R$  000000000046000000000004600000000000440000000000044700000000004400000000000433000000000046000004000000000000000037000000000000016560000000000000009999123100000010000000000000BRBRAPACNOR5129
012016010402BRAP4       010BRADESPAR   PN      N1   R$  000000000048300000000005010000000000470000000000048000000000004700000000000469000000000047004854000000000001870600000000000899682200000000000000009999123100000010000000000000BRBRAPACNPR2129
012016010496BRAP4F      020BRADESPAR   PN      N1   R$  000000000049200000000004960000000000469000000000048500000000004690000000000469000000000047800057000000000000000932000000000000452876000000000000009999123100000010000000000000BRBRAPACNPR2129
012016010462BRAP4T      030BRADESPAR   PN      N1030R$  000000000048800000000004890000000000488000000000048800000000004890000000000000000000000000000002000000000000005000000000000002444945000000000000009999123100000010000000000000BRBRAPACNPR2129
012016010462BRAP4T      030BRADESPAR   PN      N1060R$  000000000050700000000005080000000000507000000000050700000000005080000000000000000000000000000002000000000000020000000000000010150144000000000000009999123100000010000000000000BRBRAPACNPR2129
012016010462BRAP4T      030BRADESPAR   PN      N1120R$  000000000051500000000005160000000000515000000000051500000000005160000000000000000000000000000002000000000000000800000000000000412503000000000000009999123100000010000000000000BRBRAPACNPR2129
012016010414BRAX11      010ISHARES BRAXCI           R$  000000000353000000000035300000000003507000000000352000000000035070000000003421000000000400000011000000000000011740000000000041328240000000000000009999123100000010000000000000BRBRAXCTF002100
012016010412BRCR11      010FII BC FUND CI           R$  000000000935000000000093650000000009160000000000926500000000091600000000009155000000000916000701000000000000018433000000000170795052000000000000009999123100000010000000000000BRBRCRCTF000160
012016010402BRFS3       010BRF SA      ON  EDJ NM   R$  000000000544000000000055350000000005341000000000544500000000054220000000005422000000000544016133000000000003986600000000021708952400000000000000009999123100000010000000000000BRBRFSACNOR8115
012016010496BRFS3F      020BRF SA      ON  EDJ NM   R$  000000000547700000000055300000000005349000000000544800000000054580000000005437000000000545800205000000000000006006000000000032724469000000000000009999123100000010000000000000BRBRFSACNOR8115
012016010478BRFSA54     070BRFS  FM/EDJON      NM000R$  000000000013600000000002210000000000128000000000017800000000001740000000000000000000000000000014000000000000018200000000000003248600000000000539602016011800000010000000000000BRBRFSACNOR8114
012016010478BRFSA55     070BRFS  FM/EDJON      NM000R$  000000000008600000000001590000000000086000000000011900000000001500000000000000000000000000000024000000000000049700000000000005952700000000000549602016011800000010000000000000BRBRFSACNOR8114
012016010478BRFSA56     070BRFS  FM/EDJON      NM000R$  000000000008300000000001080000000000073000000000008500000000001060000000000000000000000000000016000000000000030400000000000002587700000000000559602016011800000010000000000000BRBRFSACNOR8114
012016010478BRFSA57     070BRFS  FM/EDJON      NM000R$  000000000005000000000000670000000000042000000000005000000000000580000000000000000000000000000023000000000000042800000000000002169500000000000569602016011800000010000000000000BRBRFSACNOR8114
012016010478BRFSA58     070BRFS    /EDJON      NM000R$  000000000003100000000000310000000000031000000000003100000000000310000000000000000000000004000001000000000000000300000000000000009300000000000579602016011800000010000000000000BRBRFSACNOR8114
012016010478BRFSA59     070BRFS    /EDJON      NM000R$  000000000002300000000000230000000000023000000000002300000000000230000000000001000000000000000001000000000000000800000000000000018400000000000589602016011800000010000000000000BRBRFSACNOR8114
012016010478BRFSB54     070BRFS  FM/EDJON      NM000R$  000000000028300000000003260000000000278000000000028600000000003260000000000000000000000000000005000000000000007900000000000002265800000000000539602016021500000010000000000000BRBRFSACNOR8114
012016010478BRFSB55     070BRFS  FM/EDJON      NM000R$  000000000022400000000002660000000000224000000000023400000000002660000000000000000000000000000003000000000000004700000000000001103200000000000549602016021500000010000000000000BRBRFSACNOR8114
012016010478BRFSB56     070BRFS  FM/EDJON      NM000R$  000000000017700000000002130000000000177000000000018500000000002130000000000000000000000000000003000000000000005000000000000000928200000000000559602016021500000010000000000000BRBRFSACNOR8114
012016010478BRFSB57     070BRFS  FM/EDJON      NM000R$  000000000014200000000001670000000000142000000000016400000000001660000000000000000000000000000003000000000000002600000000000000428000000000000569602016021500000010000000000000BRBRFSACNOR8114
012016010478BRFSC52     070BRFS    /EDJON      NM000R$  000000000077000000000007700000000000582000000000058700000000005820000000000000000000000078100007000000000000004000000000000002350700000000000513902016032100000010000000000000BRBRFSACNOR8114
012016010482BRFSM33     080BRFSE FM/EDJON      NM000R$  000000000010400000000001050000000000055000000000007900000000000730000000000001000000000010800030000000000000037500000000000002999800000000000529602016011800000010000000000000BRBRFSACNOR8114
012016010482BRFSM53     080BRFSE   /EDJON      NM000R$  000000000006500000000000650000000000065000000000006500000000000650000000000001000000000006700001000000000000000500000000000000032500000000000519602016011800000010000000000000BRBRFSACNOR8113
012016010482BRFSM54     080BRFSE FM/EDJON      NM000R$  000000000011800000000001230000000000082000000000010700000000001060000000000001000000000011800045000000000000078400000000000008421100000000000539602016011800000010000000000000BRBRFSACNOR8114
012016010482BRFSM55     080BRFSE FM/EDJON      NM000R$  000000000020100000000002010000000000115000000000015000000000001580000000000001000000000000000017000000000000025700000000000003869600000000000549602016011800000010000000000000BRBRFSACNOR8114
012016010482BRFSM58     080BRFSE   /EDJON      NM000R$  000000000030100000000003010000000000301000000000030100000000003010000000000000000000000000000001000000000000000200000000000000060200000000000579602016011800000010000000000000BRBRFSACNOR8114
012016010482BRFSN53     080BRFSE FM/EDJON      NM000R$  000000000015400000000001540000000000140000000000015100000000001400000000000000000000000000000012000000000000013200000000000001994400000000000529602016021500000010000000000000BRBRFSACNOR8114
012016010482BRFSN55     080BRFSE FM/EDJON      NM000R$  000000000022500000000002250000000000183000000000020700000000002100000000000000000000000000000009000000000000016400000000000003400800000000000549602016021500000010000000000000BRBRFSACNOR8114
012016010402BRIN3       010BR INSURANCEON      NM   R$  000000000200500000000020050000000001880000000000195000000000019500000000001870000000000195000077000000000000059700000000000116438300000000000000009999123100000010000000000000BRBRINACNOR3110
012016010496BRIN3F      020BR INSURANCEON      NM   R$  000000000199500000000019950000000001850000000000190200000000018750000000001884000000000191000008000000000000000125000000000000237810000000000000009999123100000010000000000000BRBRINACNOR3110
012016010462BRIN3T      030BR INSURANCEON      NM060R$  000000000203500000000020360000000002035000000000203500000000020360000000000000000000000000000002000000000000023000000000000046812905000000000000009999123100000010000000000000BRBRINACNOR3110
012016010402BRKM3       010BRASKEM     ON      N1   R$  000000000156600000000015740000000001537000000000156200000000015500000000001540000000000159700015000000000000001500000000000002343700000000000000009999123100000010000000000000BRBRKMACNOR1112
012016010402BRKM5       010BRASKEM     PNA     N1   R$  000000000270800000000027310000000002681000000000270300000000027100000000002710000000000271207839000000000001533100000000004145144200000000000000009999123100000010000000000000BRBRKMACNPA4112
012016010496BRKM5F      020BRASKEM     PNA     N1   R$  000000000270000000000027310000000002669000000000270300000000027300000000002695000000000273000083000000000000002088000000000005643920000000000000009999123100000010000000000000BRBRKMACNPA4112
012016010478BRKMF72     070BRKME       PNA     N1000R$  000000000012000000000001200000000000120000000000012000000000001200000000000000000000000000000001000000000000006000000000000000720000000000000327502016062000000010000000000000BRBRKMACNPA4112
012016010482BRKMR59     080BRKME       PNA     N1000R$  000000000034000000000003400000000000340000000000034000000000003400000000000000000000000000000001000000000000006000000000000002040000000000000295002016062000000010000000000000BRBRKMACNPA4112
012016010402BRML3       010BR MALLS PARON      NM   R$  000000000109600000000011080000000001080000000000108700000000010870000000001086000000000108706502000000000002283200000000002482020400000000000000009999123100000010000000000000BRBRMLACNOR9108
012016010496BRML3F      020BR MALLS PARON      NM   R$  000000000110000000000011950000000001072000000000109100000000010720000000001072000000000110000049000000000000000929000000000001014162000000000000009999123100000010000000000000BRBRMLACNOR9108
012016010482BRMLM12     080BRMLE       ON      NM000R$  000000000011900000000001190000000000119000000000011900000000001190000000000000000000000000000001000000000000000500000000000000059500000000000120002016011800000010000000000000BRBRMLACNOR9108
012016010482BRMLN41     080BRMLE FM    ON      NM000R$  000000000008500000000000850000000000085000000000008500000000000850000000000000000000000000000001000000000000000700000000000000059500000000000115002016021500000010000000000000BRBRMLACNOR9108
012016010402BRPR3       010BR PROPERT  ON      NM   R$  000000000084500000000008450000000000818000000000083000000000008290000000000825000000000082901309000000000000347200000000000288262500000000000000009999123100000010000000000000BRBRPRACNOR9116
012016010496BRPR3F      020BR PROPERT  ON      NM   R$  000000000090000000000009000000000000824000000000086100000000008290000000000825000000000090800033000000000000000789000000000000680013000000000000009999123100000010000000000000BRBRPRACNOR9116
012016010462BRPR3T      030BR PROPERT  ON      NM016R$  000000000083400000000008350000000000834000000000083400000000008350000000000000000000000000000002000000000000045000000000000037532560000000000000009999123100000010000000000000BRBRPRACNOR9116
012016010496BRSR3F      020BANRISUL    ON      N1   R$  000000000090000000000009000000000000900000000000090000000000009000000000000659000000000090000001000000000000000010000000000000009000000000000000009999123100000010000000000000BRBRSRACNOR3142
012016010402BRSR6       010BANRISUL    PNB     N1   R$  000000000057900000000005790000000000557000000000056600000000005570000000000557000000000056004041000000000000732000000000000414531800000000000000009999123100000010000000000000BRBRSRACNPB4145
012016010496BRSR6F      020BANRISUL    PNB     N1   R$  000000000059400000000005970000000000561000000000057300000000005610000000000561000000000061400042000000000000000850000000000000487614000000000000009999123100000010000000000000BRBRSRACNPB4145
012016010462BRSR6T      030BANRISUL    PNB     N1063R$  000000000058400000000005850000000000584000000000058400000000005850000000000000000000000000000002000000000000004000000000000002336040000000000000009999123100000010000000000000BRBRSRACNPB4145
012016010402BTOW3       010B2W DIGITAL ON      NM   R$  000000000151700000000015440000000001449000000000149500000000014490000000001449000000000145300776000000000000178000000000000266260400000000000000009999123100000010000000000000BRBTOWACNOR8107
012016010496BTOW3F      020B2W DIGITAL ON      NM   R$  000000000147000000000015490000000001431000000000149400000000015300000000001430000000000153000024000000000000000685000000000001023878000000000000009999123100000010000000000000BRBTOWACNOR8107
012016010462BTOW3T      030B2W DIGITAL ON      NM016R$  000000000145700000000014580000000001457000000000145700000000014580000000000000000000000000000002000000000000005800000000000008455466000000000000009999123100000010000000000000BRBTOWACNOR8107
012016010402BTTL4       010BATTISTELLA PN           R$  000000000110100000000011010000000001100000000000110000000000011000000000001000000000000111900002000000000000000200000000000000220100000000000000009999123100000010000000000000BRBTTLACNPR7106
012016010402BVMF3       010BMFBOVESPA  ON      NM   R$  000000000107300000000010950000000001043000000000106000000000010450000000001045000000000105518484000000000011394700000000012088387000000000000000009999123100000010000000000000BRBVMFACNOR3136
012016010496BVMF3F      020BMFBOVESPA  ON      NM   R$  000000000108700000000010990000000001046000000000106200000000010490000000001044000000000104900156000000000000003213000000000003415220000000000000009999123100000010000000000000BRBVMFACNOR3136
012016010462BVMF3T      030BMFBOVESPA  ON      NM017R$  000000000108000000000010810000000001080000000000108000000000010810000000000000000000000000000002000000000000002000000000000002160807000000000000009999123100000010000000000000BRBVMFACNOR3136
012016010462BVMF3T      030BMFBOVESPA  ON      NM091R$  000000000110600000000011070000000001106000000000110600000000011070000000000000000000000000000002000000000000005000000000000005530295000000000000009999123100000010000000000000BRBVMFACNOR3136
012016010478BVMFA1      070BVMFE       ON      NM000R$  000000000004300000000000460000000000028000000000003900000000000280000000000025000000000000000046000000000000023600000000000000939800000000000105502016011800000010000000000000BRBVMFACNOR3131
012016010478BVMFA11     070BVMF  FM    ON      NM000R$  000000000002900000000000390000000000018000000000002400000000000190000000000000000000000002200031000000000000086600000000000002146800000000000108002016011800000010000000000000BRBVMFACNOR3134
012016010478BVMFA13     070BVMF        ON      NM000R$  000000000000200000000000020000000000002000000000000200000000000020000000000001000000000000200001000000000000024200000000000000048400000000000128002016011800000010000000000000BRBVMFACNOR3134
012016010478BVMFA2      070BVMF  FM    ON      NM000R$  000000000000600000000000060000000000003000000000000400000000000040000000000003000000000001500011000000000000059100000000000000277300000000000118002016011800000010000000000000BRBVMFACNOR3131
012016010478BVMFA31     070BVMFE       ON      NM000R$  000000000002000000000000240000000000015000000000002100000000000160000000000001000000000000000063000000000000193800000000000004216200000000000110502016011800000010000000000000BRBVMFACNOR3134
012016010478BVMFA41     070BVMF  FM    ON      NM000R$  000000000001200000000000150000000000007000000000000900000000000080000000000007000000000001000037000000000000195200000000000001808300000000000113002016011800000010000000000000BRBVMFACNOR3134
012016010478BVMFA42     070BVMF  FM    ON      NM000R$  000000000000300000000000030000000000003000000000000300000000000030000000000001000000000000300007000000000000050800000000000000152400000000000123002016011800000010000000000000BRBVMFACNOR3134
